:100000000C942E000C941F0F0C94AF0E0C943F0E0A
:100010000C94CF0D0C945F0D0C944B000C94DF0FDF
:100020000C944B000C948F0F0C94EF0C0C947F0CE1
:100030000C940F0C0C949F0B0C942F0B0C94BF0A78
:100040000C944F0A0C94DF090C946F090C94FF0870
:100050000C948F080C941F080C94AF0711241FBE3A
:10006000CFEFD4E0DEBFCDBF11E0A0E0B1E0E6E12C
:10007000FBE202C005900D92A836B107D9F714E053
:10008000A8E6B1E001C01D92A13CB107E1F70E94D2
:1000900085050C9489150C940000AF92BF92CF9205
:1000A000DF92EF92FF920F931F93CF93DF93EC01B8
:1000B0005B0168857985882777FD8095982F2DE7E6
:1000C00030E040E050E00E94C51424E030E040E021
:1000D00050E00E94F71481E090E06C01CA18DB0840
:1000E000CA01B90120E030E0A9018E010F2EFDE424
:1000F000EF2EF0E0FF2EF02D0E949D1081E0A8165B
:10010000B10499F00C811D81CE80DF8060E070E049
:10011000CB0120E030E0A9010F2EF6EAEF2EF4E04B
:10012000FF2EF02D0E949D1012C00C811D81CE80EB
:10013000DF8060E070E0CB0120E030E0A9010F2E0D
:10014000F7E8EF2EF4E0FF2EF02D0E949D10DF91D6
:10015000CF911F910F91FF90EF90DF90CF90BF90C4
:10016000AF900895CF93DF93EC0110926901109244
:10017000680160E070E00E944D00BC01CE0140E0EB
:1001800050E00E94B411DF91CF910895CF93DF9397
:10019000EC0181E090E090936901809368016E81A9
:1001A0007F81CE010E94A604BC01CE0140E050E058
:1001B0000E94B411DF91CF910895FC01718760878F
:1001C000089593B125B185B19223981721F081E06C
:1001D0008093F90008951092F9000895AF92BF92AC
:1001E000CF92DF92EF92FF920F931F93CF93DF9303
:1001F000843309F446C0853370F48133F1F08233DF
:1002000020F4803309F093C086C0823301F1833338
:1002100009F08DC029C0873309F459C0883330F400
:100220008533D9F1863309F082C044C0883309F49C
:1002300058C0893309F07BC061C0CC24DD24EE2492
:10024000FF24E39401E010E048E050E070C0CC24CB
:10025000DD24C3940F2EFEE0EF2EFF24F02D01E0ED
:1002600010E041E050E063C0CC24DD24C3940F2EA5
:10027000FBE0EF2EFF24F02D01E010E041E050E024
:1002800056C0CC24DD240F2EFBE0EF2EFF24F02DF2
:1002900005E010E040E050E04AC0CC24DD24C394E7
:1002A0000F2EFBE0EF2EFF24F02D04E010E041E0E4
:1002B00050E03DC0CC24DD24C3940F2EFFE0EF2E90
:1002C000FF24F02D04E010E041E050E030C0CC24E9
:1002D000DD24EE24FF24E39401E010E041E050E04F
:1002E00026C0CC24DD24C3940F2EFFE0EF2EFF2484
:1002F000F02D05E010E041E050E019C0CC24DD24F1
:10030000C3940F2EFBE0EF2EFF24F02D05E010E04C
:1003100041E050E00CC0CC24DD24C3940F2EF5E066
:10032000EF2EFF24F02D05E010E041E050E06230B8
:10033000710509F482C06330710544F461157105DB
:1003400091F06130710509F04BC132C06430710524
:1003500009F4DDC0643071050CF494C0653071059A
:1003600009F03EC1F9C06CEE70E0FB018081807F36
:100370008083A1EFB0E08C91807F8C93C6EFD0E0BA
:100380008881807F88832BEF30E0F9018081807F36
:100390008083FB018081482B40838C91082B0C9338
:1003A0008881E82AE882F9018081C82AC08218C1C0
:1003B0000F2EFCEEAF2EBB24F02DF50180818F7047
:1003C0008083A1EFB0E08C918F708C93C6EFD0E06A
:1003D00088818F7088832BEF30E0F90180818F70E6
:1003E0008083F5016081CA0182959295907F98275C
:1003F000807F9827862B80834C91C80182959295A7
:10040000907F9827807F9827842B8C934881C70101
:1004100082959295907F9827807F9827842B888358
:10042000F9018081CC0CDD1CCC0CDD1CCC0CDD1C5E
:10043000CC0CDD1CC82AC082D3C06DEE70E0FB017D
:100440008081807F8083A2EFB0E08C91807F8C934D
:10045000C7EFD0E08881807F88832CEF30E0F901FE
:100460008081807F8083FB018081482B40838C9139
:10047000082B0C938881E82AE882F9018081C82A38
:10048000C082AEC00F2EFDEEAF2EBB24F02DF501C5
:1004900080818F708083A2EFB0E08C918F708C93FD
:1004A000C7EFD0E088818F7088832CEF30E0F901AE
:1004B00080818F708083F5016081CA018295929559
:1004C000907F9827807F9827862B80834C91C80146
:1004D00082959295907F9827807F9827842B8C9384
:1004E0004881C70182959295907F9827807F9827B1
:1004F000842B8883F9018081CC0CDD1CCC0CDD1CA5
:10050000CC0CDD1CCC0CDD1CC82AC08269C06EEE90
:1005100070E0FB018081807F8083A3EFB0E08C914D
:10052000807F8C93C8EFD0E08881807F88832DEF17
:1005300030E0F9018081807F8083FB018081482B3E
:1005400040838C91082B0C938881E82AE882F9017A
:100550008081C82AC08244C00F2EFEEEAF2EBB247D
:10056000F02DF50180818F708083A3EFB0E08C9136
:100570008F708C93C8EFD0E088818F7088832DEFC7
:1005800030E0F90180818F708083F5016081CA01BC
:1005900082959295907F9827807F9827862B8083DD
:1005A0004C91C80182959295907F9827807F9827DB
:1005B000842B8C934881C70182959295907F9827D0
:1005C000807F9827842B8883F9018081CC0CDD1CE7
:1005D000CC0CDD1CCC0CDD1CCC0CDD1CC82AC08274
:1005E000DF91CF911F910F91FF90EF90DF90CF900F
:1005F000BF90AF900895CF92DF92EF92FF929C014F
:100600006AE070E00E94E4148217930779F1C9014F
:1006100064E670E00E94E4148217930751F1C90167
:1006200068EE73E00E94E4148217930729F1C90170
:1006300060E177E20E94E4148217930701F16901F7
:10064000EE24D7FCE094FE2CC701B60120EA36E880
:1006500041E050E00E94F714DC01CB01C816D90636
:10066000EA06FB0679F485E090E00EC081E090E0B8
:100670000BC082E090E008C083E090E005C084E019
:1006800090E002C086E090E0FF90EF90DF90CF9086
:1006900008954F925F926F927F928F929F92AF9246
:1006A000BF92CF92DF92EF92FF920F931F93CF935F
:1006B000DF9300D000D0CDB7DEB76C010E94FB0203
:1006C0007C01181619060CF0FDC04601AA2497FCFF
:1006D000A094BA2C0F2EF0EA4F2EF6E85F2EF1E030
:1006E0006F2EF0E07F2EF02DC501B401A301920121
:1006F0000E94F71469837A838B839C83C501B401BC
:1007000020E432E44FE050E00E94F71429813A815E
:100710004B815C81621B730B840B950BA3019201CF
:100720000E94F714922EC60160E177E20E94E41461
:100730008C01C801AA2797FDA095BA2F29813A817B
:100740004B815C81281B390B4A0B5B0BCA01B90139
:1007500020E137E240E050E00E94F714F22F28EE4B
:1007600033E0C601B9010E94E4145C01C8018A1992
:100770009B09B9010E94E414E62F24E630E0C6018B
:10078000B9010E94E4148C01C501801B910BB901D1
:100790000E94E414462F2AE030E0C601B9010E940D
:1007A000E4145C01C8018A199B09B9010E94E41490
:1007B00010E3662477240F2EF0E3DF2EF02DD40E05
:1007C0000F2EF0E3BF2EF02DBF0E0F2EF0E34F2EB5
:1007D000F02D4E0E0F2EF0E3CF2EF02DC90C0A2D6A
:1007E000005D0F2EF0E38F2EF02D860E32E06316A3
:1007F000710409F445C043E06416710444F46114C3
:10080000710481F151E06516710479F432C084E01D
:100810006816710409F442C0E4E06E167104BCF17C
:10082000F5E06F16710409F440C022E0621671040D
:1008300041F133E06316710444F46114710499F0DA
:1008400041E064167104B9F515C054E065167104F1
:1008500031F184E068167104DCF0E5E06E16710495
:1008600051F524C0102F812F65E070E00E94EE004A
:1008700022C0182D812F64E070E00E94EE001BC0A2
:100880001D2D812F63E070E00E94EE0014C0142D36
:10089000812F62E070E00E94EE000DC01B2D812FC1
:1008A00061E070E00E94EE0006C01C2D812F60E028
:1008B00070E00E94EE000894611C711C6E147F04AD
:1008C00009F094CF0F900F900F900F90DF91CF9180
:1008D0001F910F91FF90EF90DF90CF90BF90AF905E
:1008E0009F908F907F906F905F904F900895CB0175
:1008F0006AE070E00E94E4149C01862F805DB901DB
:100900000E94EE000895CB010E94490308956230D1
:10091000710561F06330710579F06130710591F412
:10092000EFEEF0E08081816080830FC0E9EFF0E0BE
:1009300080818160808309C0EEEFF0E0808181607A
:10094000808303C080E090E00895089562307105CF
:1009500059F06330710569F06130710579F4EFEE9B
:10096000F0E0808110820DC0E9EFF0E0808110821C
:1009700008C0EEEFF0E08081108203C080E090E0DC
:10098000089508950F931F93CF93DF93EC01BE0159
:10099000882777FD8095982F0E9407140E946F1476
:1009A0000E94D4139B012F5F3F4F223031058CF002
:1009B00000E010E0E2E0F0E0CE01BF010E94E414AC
:1009C000009711F40F5F1F4F31962E173F07A4F7C2
:1009D00002C000E010E081E090E00115110511F087
:1009E00080E090E0DF91CF911F910F910895AF9239
:1009F000BF92CF92DF92EF92FF920F931F93CF930C
:100A0000DF935C01EB0100E010E007C08FE7CF3F10
:100A1000D80711F0219601C0E801CE010E94C2045E
:100A20000097A1F3F5010481158160E070E0CB012E
:100A300020E030E0A9010F2EF3E8EF2EF4E0FF2EC6
:100A4000F02D6E010E949D100894C11CD11C6AE615
:100A500078E180E090E020E030E0A90185010F2EF0
:100A6000F7EFEF2EF4E0FF2EF02D0E949D10DF91A6
:100A7000CF911F910F91FF90EF90DF90CF90BF909B
:100A8000AF900895AF92BF92CF92DF92EF92FF9214
:100A90000F931F93CF93DF93EC010C811D8160E0D6
:100AA00070E0CB0120E030E0A9010F2EF7EFEF2E30
:100AB000F4E0FF2EF02DCC24DD240E949D100E8149
:100AC0001F810F2EF2EBAF2EF0E0BF2EF02D60E075
:100AD00070E0CB0120E030E0A90175010E949D107B
:100AE0000885198560E070E0CB0120E030E0A901C5
:100AF0000E949D10DF91CF911F910F91FF90EF9079
:100B0000DF90CF90BF90AF90089587EB8093E50082
:100B100080E18093E6008FE08093E70080E8809397
:100B2000E40085B980936C008DBB8AE091E061EEB2
:100B300070E042E00E94A31380E091E062E475E07F
:100B400040E050E00E94BD130895CF93DF93EB0186
:100B5000E881F9813097F9F0E817F90711F412C02C
:100B6000FD01A081B1811097C9F08A179B07C1F7D9
:100B7000309749F08D919C9111979183808381E00A
:100B800090E00EC0DF018D919C911197998388832D
:100B900081E090E005C080E090E002C080E090E05D
:100BA000DF91CF910895CF93DF9300D0CDB7DEB71B
:100BB0009A83898380914E0190914F0106960E94FD
:100BC0004815009759F489819A8190934F01809339
:100BD0004E01069661E070E00E9468150F900F903C
:100BE000DF91CF910895FC018081882321F0319617
:100BF00081918823E9F70895CF93DF9300D000D047
:100C000000D0CDB7DEB7E1E5F2E081E090E09C01F5
:100C100022953295307F3227207F32272F5A3D4F41
:100C200031832083019670968F30910581F7109261
:100C30003203109231038CE991E09C01235E3F4F17
:100C400030939D0120939C019C01265C3F4F309383
:100C5000BA012093B90123EF31E03093D7012093FB
:100C6000D6011092F4011092F3019C012C5F3F4FCA
:100C70003E832D831A82198289819A81880F991F58
:100C8000880F991F9C01220F331F220F331F220F41
:100C9000331F281B390B49815A81240F351FC90185
:100CA0008E559E4F9C838B830E944815E981FA8163
:100CB00020E630E0E29FC001E39F900DF29F900D8F
:100CC000112483569C4FEB81FC81918B808B938BFD
:100CD000828B21E532E1368B258BED81FE811182FD
:100CE000108229813A812F5F3F4F3A8329837D9675
:100CF000FE83ED832430310509F0BECF109235021A
:100D00001092340210923902109238021092370277
:100D1000109236028AE291E00E94F30588E391E0A6
:100D20000E94F3058BE491E00E94F305E1E6F0E018
:100D300080E880831082109285001092840084E005
:100D40008093810081E080936F0026960FB6F8941F
:100D5000DEBF0FBECDBFDF91CF91089520E030E020
:100D60002F5F3F4F929582958F7089279F708927BB
:100D70000097B1F72115310519F021503040E9F7FE
:100D80000895089508950F931F93CF93DF939C01C7
:100D90008B01DB01CD91DC911197209751F1FC0182
:100DA00046815781608571858E819F81A885B9852F
:100DB000481759076A077B0714F41BC0EF01E88145
:100DC000F981309749F086819781A085B1854817D0
:100DD00059076A077B0794F7D9011196FC93EE93A4
:100DE000209721F4F8013183208308C039832883B8
:100DF00005C0D9011196DC93CE93F4CFDF91CF914A
:100E00001F910F9108950F931F93CF93DF939C0130
:100E10008B01DB01CD91DC911197209751F1FC0101
:100E200042815381648175818A819B81AC81BD81BE
:100E3000481759076A077B0714F41BC0EF01E881C4
:100E4000F981309749F082819381A481B581481757
:100E500059076A077B0794F7D9011196FC93EE9323
:100E6000209721F4F8013183208308C03983288337
:100E700005C0D9011196DC93CE93F4CFDF91CF91C9
:100E80001F910F910895DC01ED91FC91119730971E
:100E900041F08081918111969C938E938E2F9F2F8C
:100EA00008958FEF8093EC008093ED008093EE0027
:100EB00081E083BF8895FDCFFB0120813181DC017A
:100EC00011963C932E93918380830895FB0120819A
:100ED0003181DC0111963C932E9391838083089598
:100EE000DC01ED91FC9111978081918111969C9389
:100EF0008E938E2F9F2F0895E0915001F091510114
:100F00000280F381E02DA0917601B09177011097D6
:100F100029F180915201909153010097F9F0309797
:100F200079F016968D919D910D90BC91A02D4681E2
:100F3000578160857185841B950BA60BB70B72F4E6
:100F400082E591E00E94700760E571E00E9466070B
:100F500080915001909151010E94D30508951F92F4
:100F60000F920FB60F9211240F931F932F933F935D
:100F70004F935F936F937F938F939F93AF93BF93A1
:100F8000EF93FF9380916E0190916F012091840007
:100F900030918500AC01662757FD6095762FBA0128
:100FA00055274427890120E030E0402B512B622B4C
:100FB000732B409370015093710160937201709391
:100FC0007301B09B1AC04091840050918500019636
:100FD000AA2797FDA095BA2FDC019927882760E002
:100FE00070E0842B952BA62BB72B809370019093E8
:100FF0007101A0937201B0937301E0913202F091FC
:101000003302309739F080919A0190919B0161E110
:1010100070E009950E947C07FF91EF91BF91AF911D
:101020009F918F917F916F915F914F913F912F9100
:101030001F910F910F900FBE0F901F9018951F9248
:101040000F920FB60F9211240F931F932F933F937C
:101050004F935F936F937F938F939F93AF93BF93C0
:10106000EF93FF9380916E0190916F012091840026
:1010700030918500AC01662757FD6095762FBA0147
:1010800055274427890120E030E0402B512B622B6B
:10109000732B4093700150937101609372017093B0
:1010A0007301B09B1AC04091840050918500019655
:1010B000AA2797FDA095BA2FDC019927882760E021
:1010C00070E0842B952BA62BB72B80937001909307
:1010D0007101A0937201B0937301E0913002F0911D
:1010E0003102309739F0809198019091990160E137
:1010F00070E009950E947C07FF91EF91BF91AF913D
:101100009F918F917F916F915F914F913F912F911F
:101110001F910F910F900FBE0F901F9018951F9267
:101120000F920FB60F9211240F931F932F933F939B
:101130004F935F936F937F938F939F93AF93BF93DF
:10114000EF93FF9380916E0190916F012091840045
:1011500030918500AC01662757FD6095762FBA0166
:1011600055274427890120E030E0402B512B622B8A
:10117000732B4093700150937101609372017093CF
:101180007301B09B1AC04091840050918500019674
:10119000AA2797FDA095BA2FDC019927882760E040
:1011A00070E0842B952BA62BB72B80937001909326
:1011B0007101A0937201B0937301E0912E02F0913E
:1011C0002F02309739F080919601909197016FE04E
:1011D00070E009950E947C07FF91EF91BF91AF915C
:1011E0009F918F917F916F915F914F913F912F913F
:1011F0001F910F910F900FBE0F901F9018951F9287
:101200000F920FB60F9211240F931F932F933F93BA
:101210004F935F936F937F938F939F93AF93BF93FE
:10122000EF93FF9380916E0190916F012091840064
:1012300030918500AC01662757FD6095762FBA0185
:1012400055274427890120E030E0402B512B622BA9
:10125000732B4093700150937101609372017093EE
:101260007301B09B1AC04091840050918500019693
:10127000AA2797FDA095BA2FDC019927882760E05F
:1012800070E0842B952BA62BB72B80937001909345
:101290007101A0937201B0937301E0912C02F0915F
:1012A0002D02309739F080919401909195016EE074
:1012B00070E009950E947C07FF91EF91BF91AF917B
:1012C0009F918F917F916F915F914F913F912F915E
:1012D0001F910F910F900FBE0F901F9018951F92A6
:1012E0000F920FB60F9211240F931F932F933F93DA
:1012F0004F935F936F937F938F939F93AF93BF931E
:10130000EF93FF9380916E0190916F012091840083
:1013100030918500AC01662757FD6095762FBA01A4
:1013200055274427890120E030E0402B512B622BC8
:10133000732B40937001509371016093720170930D
:101340007301B09B1AC040918400509185000196B2
:10135000AA2797FDA095BA2FDC019927882760E07E
:1013600070E0842B952BA62BB72B80937001909364
:101370007101A0937201B0937301E0912A02F09180
:101380002B02309739F080919201909193016DE09A
:1013900070E009950E947C07FF91EF91BF91AF919A
:1013A0009F918F917F916F915F914F913F912F917D
:1013B0001F910F910F900FBE0F901F9018951F92C5
:1013C0000F920FB60F9211240F931F932F933F93F9
:1013D0004F935F936F937F938F939F93AF93BF933D
:1013E000EF93FF9380916E0190916F0120918400A3
:1013F00030918500AC01662757FD6095762FBA01C4
:1014000055274427890120E030E0402B512B622BE7
:10141000732B40937001509371016093720170932C
:101420007301B09B1AC040918400509185000196D1
:10143000AA2797FDA095BA2FDC019927882760E09D
:1014400070E0842B952BA62BB72B80937001909383
:101450007101A0937201B0937301E0912802F091A1
:101460002902309739F080919001909191016CE0C0
:1014700070E009950E947C07FF91EF91BF91AF91B9
:101480009F918F917F916F915F914F913F912F919C
:101490001F910F910F900FBE0F901F9018951F92E4
:1014A0000F920FB60F9211240F931F932F933F9318
:1014B0004F935F936F937F938F939F93AF93BF935C
:1014C000EF93FF9380916E0190916F0120918400C2
:1014D00030918500AC01662757FD6095762FBA01E3
:1014E00055274427890120E030E0402B512B622B07
:1014F000732B40937001509371016093720170934C
:101500007301B09B1AC040918400509185000196F0
:10151000AA2797FDA095BA2FDC019927882760E0BC
:1015200070E0842B952BA62BB72B809370019093A2
:101530007101A0937201B0937301E0912602F091C2
:101540002702309739F080918E0190918F016BE0E6
:1015500070E009950E947C07FF91EF91BF91AF91D8
:101560009F918F917F916F915F914F913F912F91BB
:101570001F910F910F900FBE0F901F9018951F9203
:101580000F920FB60F9211240F931F932F933F9337
:101590004F935F936F937F938F939F93AF93BF937B
:1015A000EF93FF9380916E0190916F0120918400E1
:1015B00030918500AC01662757FD6095762FBA0102
:1015C00055274427890120E030E0402B512B622B26
:1015D000732B40937001509371016093720170936B
:1015E0007301B09B1AC04091840050918500019610
:1015F000AA2797FDA095BA2FDC019927882760E0DC
:1016000070E0842B952BA62BB72B809370019093C1
:101610007101A0937201B0937301E0912402F091E3
:101620002502309739F080918C0190918D016AE00C
:1016300070E009950E947C07FF91EF91BF91AF91F7
:101640009F918F917F916F915F914F913F912F91DA
:101650001F910F910F900FBE0F901F9018951F9222
:101660000F920FB60F9211240F931F932F933F9356
:101670004F935F936F937F938F939F93AF93BF939A
:10168000EF93FF9380916E0190916F012091840000
:1016900030918500AC01662757FD6095762FBA0121
:1016A00055274427890120E030E0402B512B622B45
:1016B000732B40937001509371016093720170938A
:1016C0007301B09B1AC0409184005091850001962F
:1016D000AA2797FDA095BA2FDC019927882760E0FB
:1016E00070E0842B952BA62BB72B809370019093E1
:1016F0007101A0937201B0937301E0912202F09105
:101700002302309739F080918A0190918B0169E032
:1017100070E009950E947C07FF91EF91BF91AF9116
:101720009F918F917F916F915F914F913F912F91F9
:101730001F910F910F900FBE0F901F9018951F9241
:101740000F920FB60F9211240F931F932F933F9375
:101750004F935F936F937F938F939F93AF93BF93B9
:10176000EF93FF9380916E0190916F01209184001F
:1017700030918500AC01662757FD6095762FBA0140
:1017800055274427890120E030E0402B512B622B64
:10179000732B4093700150937101609372017093A9
:1017A0007301B09B1AC0409184005091850001964E
:1017B000AA2797FDA095BA2FDC019927882760E01A
:1017C00070E0842B952BA62BB72B80937001909300
:1017D0007101A0937201B0937301E0912002F09126
:1017E0002102309739F0809188019091890168E059
:1017F00070E009950E947C07FF91EF91BF91AF9136
:101800009F918F917F916F915F914F913F912F9118
:101810001F910F910F900FBE0F901F9018951F9260
:101820000F920FB60F9211240F931F932F933F9394
:101830004F935F936F937F938F939F93AF93BF93D8
:10184000EF93FF9380916E0190916F01209184003E
:1018500030918500AC01662757FD6095762FBA015F
:1018600055274427890120E030E0402B512B622B83
:10187000732B4093700150937101609372017093C8
:101880007301B09B1AC0409184005091850001966D
:10189000AA2797FDA095BA2FDC019927882760E039
:1018A00070E0842B952BA62BB72B8093700190931F
:1018B0007101A0937201B0937301E0911E02F09147
:1018C0001F02309739F0809186019091870167E07F
:1018D00070E009950E947C07FF91EF91BF91AF9155
:1018E0009F918F917F916F915F914F913F912F9138
:1018F0001F910F910F900FBE0F901F9018951F9280
:101900000F920FB60F9211240F931F932F933F93B3
:101910004F935F936F937F938F939F93AF93BF93F7
:10192000EF93FF9380916E0190916F01209184005D
:1019300030918500AC01662757FD6095762FBA017E
:1019400055274427890120E030E0402B512B622BA2
:10195000732B4093700150937101609372017093E7
:101960007301B09B1AC0409184005091850001968C
:10197000AA2797FDA095BA2FDC019927882760E058
:1019800070E0842B952BA62BB72B8093700190933E
:101990007101A0937201B0937301E0911C02F09168
:1019A0001D02309739F0809184019091850166E0A5
:1019B00070E009950E947C07FF91EF91BF91AF9174
:1019C0009F918F917F916F915F914F913F912F9157
:1019D0001F910F910F900FBE0F901F9018951F929F
:1019E0000F920FB60F9211240F931F932F933F93D3
:1019F0004F935F936F937F938F939F93AF93BF9317
:101A0000EF93FF9380916E0190916F01209184007C
:101A100030918500AC01662757FD6095762FBA019D
:101A200055274427890120E030E0402B512B622BC1
:101A3000732B409370015093710160937201709306
:101A40007301B09B1AC040918400509185000196AB
:101A5000AA2797FDA095BA2FDC019927882760E077
:101A600070E0842B952BA62BB72B8093700190935D
:101A70007101A0937201B0937301E0911A02F09189
:101A80001B02309739F0809182019091830165E0CB
:101A900070E009950E947C07FF91EF91BF91AF9193
:101AA0009F918F917F916F915F914F913F912F9176
:101AB0001F910F910F900FBE0F901F9018951F92BE
:101AC0000F920FB60F9211240F931F932F933F93F2
:101AD0004F935F936F937F938F939F93AF93BF9336
:101AE000EF93FF9380916E0190916F01209184009C
:101AF00030918500AC01662757FD6095762FBA01BD
:101B000055274427890120E030E0402B512B622BE0
:101B1000732B409370015093710160937201709325
:101B20007301B09B1AC040918400509185000196CA
:101B3000AA2797FDA095BA2FDC019927882760E096
:101B400070E0842B952BA62BB72B8093700190937C
:101B50007101A0937201B0937301E0911802F091AA
:101B60001902309739F0809180019091810164E0F1
:101B700070E009950E947C07FF91EF91BF91AF91B2
:101B80009F918F917F916F915F914F913F912F9195
:101B90001F910F910F900FBE0F901F9018951F92DD
:101BA0000F920FB60F9211240F931F932F933F9311
:101BB0004F935F936F937F938F939F93AF93BF9355
:101BC000EF93FF9380916E0190916F0120918400BB
:101BD00030918500AC01662757FD6095762FBA01DC
:101BE00055274427890120E030E0402B512B622B00
:101BF000732B409370015093710160937201709345
:101C00007301B09B1AC040918400509185000196E9
:101C1000AA2797FDA095BA2FDC019927882760E0B5
:101C200070E0842B952BA62BB72B8093700190939B
:101C30007101A0937201B0937301E0911602F091CB
:101C40001702309739F080917E0190917F0163E017
:101C500070E009950E947C07FF91EF91BF91AF91D1
:101C60009F918F917F916F915F914F913F912F91B4
:101C70001F910F910F900FBE0F901F9018951F92FC
:101C80000F920FB60F9211240F931F932F933F9330
:101C90004F935F936F937F938F939F93AF93BF9374
:101CA000EF93FF9380916E0190916F0120918400DA
:101CB00030918500AC01662757FD6095762FBA01FB
:101CC00055274427890120E030E0402B512B622B1F
:101CD000732B409370015093710160937201709364
:101CE0007301B09B1AC04091840050918500019609
:101CF000AA2797FDA095BA2FDC019927882760E0D5
:101D000070E0842B952BA62BB72B809370019093BA
:101D10007101A0937201B0937301E0911402F091EC
:101D20001502309739F080917C0190917D0162E03D
:101D300070E009950E947C07FF91EF91BF91AF91F0
:101D40009F918F917F916F915F914F913F912F91D3
:101D50001F910F910F900FBE0F901F9018951F921B
:101D60000F920FB60F9211240F931F932F933F934F
:101D70004F935F936F937F938F939F93AF93BF9393
:101D8000EF93FF9380916E0190916F0120918400F9
:101D900030918500AC01662757FD6095762FBA011A
:101DA00055274427890120E030E0402B512B622B3E
:101DB000732B409370015093710160937201709383
:101DC0007301B09B1AC04091840050918500019628
:101DD000AA2797FDA095BA2FDC019927882760E0F4
:101DE00070E0842B952BA62BB72B809370019093DA
:101DF0007101A0937201B0937301E0911202F0910E
:101E00001302309739F080917A0190917B0161E063
:101E100070E009950E947C07FF91EF91BF91AF910F
:101E20009F918F917F916F915F914F913F912F91F2
:101E30001F910F910F900FBE0F901F9018951F923A
:101E40000F920FB60F9211240F931F932F933F936E
:101E50004F935F936F937F938F939F93AF93BF93B2
:101E6000EF93FF9380916E0190916F012091840018
:101E700030918500AC01662757FD6095762FBA0139
:101E800055274427890120E030E0402B512B622B5D
:101E9000732B4093700150937101609372017093A2
:101EA0007301B09B1AC04091840050918500019647
:101EB000AA2797FDA095BA2FDC019927882760E013
:101EC00070E0842B952BA62BB72B809370019093F9
:101ED0007101A0937201B0937301E0911002F0912F
:101EE0001102309739F0809178019091790160E08A
:101EF00070E009950E947C07FF91EF91BF91AF912F
:101F00009F918F917F916F915F914F913F912F9111
:101F10001F910F910F900FBE0F901F9018951F9259
:101F20000F920FB60F9211242F933F938F939F938D
:101F3000AF93BF93EF93FF9320916E0130916F01A8
:101F40002F5F3F4F30936F0120936E01E09174013A
:101F5000F0917501309709F182819381A481B58157
:101F60002A173B07D1F420918400309185002095F9
:101F70003095280F391F2115310529F480918400EF
:101F80009091850001969093890080938800EFE6F8
:101F9000F0E080818260808305C0EFE6F0E0808120
:101FA0008D7F8083FF91EF91BF91AF919F918F9132
:101FB0003F912F910F900FBE0F901F9018951F9279
:101FC0000F920FB60F921124CF92DF92EF92FF92F1
:101FD0000F931F932F933F934F935F936F937F9331
:101FE0008F939F93AF93BF93CF93DF93EF93FF9321
:101FF000C0906E01D0906F01809184009091850017
:10200000B0990EC0EE24D7FCE094FE2C7601DD24BE
:10201000CC24A0E0B0E0C82AD92AEA2AFB2A14C0BE
:1020200080918400909185000894C11CD11CEE24FD
:10203000D7FCE094FE2C7601DD24CC24A0E0B0E0B7
:10204000C82AD92AEA2AFB2AE0917401F091750185
:10205000309709F446C082819381A481B5818C199F
:102060009D09AE09BF09181619061A061B060CF4BD
:1020700058C0C4E7D1E006E711E0CE010E94430753
:10208000B8010E94C306E0917401F0917501309788
:1020900041F182819381A481B5818C199D09AE099A
:1020A000BF09181619061A061B063CF73AC02091FC
:1020B00084003091850020953095280F391F211517
:1020C000310529F4809184009091850001969093C8
:1020D000890080938800EFE6F0E080818260808351
:1020E00005C0EFE6F0E080818D7F80830E947C0751
:1020F000FF91EF91DF91CF91BF91AF919F918F9120
:102100007F916F915F914F913F912F911F910F910F
:10211000FF90EF90DF90CF900F900FBE0F901F9029
:10212000189582819381A481B58120916E013091AF
:102130006F012A173B07A9F6BACF3F924F925F92E1
:102140006F927F928F929F92AF92BF92CF92DF92C7
:10215000EF92FF920F931F93CF93DF932B013C01DC
:1021600049015A018FB70F2EF0E83F2EF02D38228B
:10217000F89484E591E00E944307EC011B870A87ED
:10218000FD86EC86DF86CE86332061F0E0914E013D
:10219000F0914F010280F381E02D428153816481EF
:1021A000758108C040917001509171016091720178
:1021B00070917301440D551D661D771D4A835B8325
:1021C0006C837D83181419041A041B0454F00F2E19
:1021D000FFEF8F2EFFEF9F2EFFEFAF2EFFE7BF2EFB
:1021E000F02D840E951EA61EB71E8E829F82A88695
:1021F000B98680916E0190916F01E0918400F09119
:102200008500B0990FC0AA2797FDA095BA2F9C0111
:1022100011270027CF01A0E0B0E0802B912BA22B4B
:10222000B32B13C0E0918400F09185000196AA279A
:1022300097FDA095BA2F9C0111270027CF01A0E0A0
:10224000B0E0802B912BA22BB32B481B590B6A0BB0
:102250007B0B1416150616061706B4F5CE0164E7B7
:1022600071E00E940307E0917401F09175013097CD
:1022700029F1428153816481758180916E01909131
:102280006F0186179707D1F48091840090918500A3
:1022900080959095840F951F009731F440918400AC
:1022A000509185004F5F5F4F5093890040938800A5
:1022B000EFE6F0E08081826080833FC0EFE6F0E0EF
:1022C00080818D7F808339C0CE0166E771E00E94F6
:1022D000C3063320A9F180915201909153010097D8
:1022E00071F1E0917601F0917701A0915001B091E8
:1022F000510112960D90BC91A02D468157816085A9
:10230000718516968D919D910D90BC91A02D8A019D
:102310009B01081B190B2A0B3B0B8AF482E591E009
:102320000E94700760E571E00E946607809150018D
:10233000909151010E94D30502C0332009F0789496
:102340008C2F9D2FDF91CF911F910F91FF90EF90D8
:10235000DF90CF90BF90AF909F908F907F906F90C5
:102360005F904F903F900895AF92BF92CF92DF92CF
:10237000FF920F931F93CF93DF938C015B016A0150
:102380008FB70F2EF0E8FF2EF02DF822F894D80129
:10239000CD91DC911197209709F43FC0EC81FD812C
:1023A000309731F0C081D181EC81FD813097D1F738
:1023B000E0914E01F0914F01CE17DF0721F0FF2091
:1023C00009F459C007C0FF2009F458C07894CFEF32
:1023D000DFEF56C0D80112968D919C91139700970C
:1023E00029F0DC0115961C921E921497D8011396C1
:1023F000FC93EE93129715830483CE010E94D305BC
:10240000E0914E01F0914F0182819381009709F094
:1024100043C07894C0E0D0E033C080914E019091E9
:102420004F01F80191838083FF2049F0D801129673
:102430008D919C9113978130910509F07894C80192
:10244000B601F5010995EC018FB7F894F8011182F6
:102450001082828193818230910548F0138212822A
:10246000DC0115961C921E9214970E94D305FF2042
:1024700039F0789405C0CFEFDFEF02C0CFEFDFEF88
:102480008C2F9D2FDF91CF911F910F91FF90DF90A7
:10249000CF90BF90AF900895D8011196FC93EE9322
:1024A000C5CF0F2EF6E7EF2EF1E0FF2EF02D0F2E09
:1024B000F4E5CF2EF1E0DF2EF02D0F2EF0E5AF2E5C
:1024C000F1E0BF2EF02D0F2EF2E58F2EF1E09F2EC2
:1024D000F02DC0914E01D0914F01C7010E944307DA
:1024E0008C019B838A837894FC016485758546857D
:1024F0005785828593850E94B4118FB7F894C801DF
:10250000B6010E945C07E0915001F09151010190E9
:10251000F081E02DA281B381E0917601F091770105
:102520003097B1F01097A9F2468157816085718587
:1025300016968D919D910D90BC91A02D481B590B25
:102540006A0B7B0B14161506160617060CF0C1CF86
:10255000C5010E947007B4010E946607A091500156
:10256000B09151011496ED91FC911597309741F07F
:10257000A081B1811496ED91FC9115973097C1F728
:10258000CD010E94D305A5CF1F93CF93DF93EC011C
:102590001FB71078F89464E771E00E94A5050097D2
:1025A00039F4CE0166E771E00E94A505009731F08D
:1025B000CE0164E571E00E945C0726C0E091500105
:1025C000F0915101309701F140914E0150914F012E
:1025D000E417F507A1F0828193818C179D0779F4A8
:1025E000848195812A853B858217930741F4138264
:1025F0001282CE0164E571E00E945C0705C0019083
:10260000F081E02D309721F7112309F07894DF91C4
:10261000CF911F9108950FB607FE0CC0E0914E01B7
:10262000F0914F010280F381E02D4281538164815A
:10263000758108C0409170015091710160917201E3
:1026400070917301FC014083518362837383089509
:102650000F931F930FB607FE0CC0E0914E01F0914F
:102660004F010280F381E02D0281138124813581A5
:1026700008C0009170011091710120917201309198
:102680007301FC0180819181A281B381081B190B28
:102690002A0B3B0B602F712F822F932F1F910F91CD
:1026A00008950F931F934FB74078F89400916E01EF
:1026B00010916F018091840090918500B0990EC0B7
:1026C000222717FD2095322F980111270027A0E01F
:1026D000B0E0082B192B2A2B3B2B13C080918400D0
:1026E000909185000F5F1F4F222717FD2095322FF5
:1026F000980111270027A0E0B0E0082B192B2A2B06
:102700003B2B442369F07894E0914E01F0914F0106
:102710000280F381E02D82819381A481B58108C07C
:102720008091700190917101A0917201B09173013B
:10273000081B190B2A0B3B0B602F712F822F932F35
:102740001F910F9108954231B8F4AFB7F89450E05B
:10275000440F551FFA01E858FE4F91838083405F74
:102760005D4FFA017183608321E030E0FC01338327
:102770002283AA230CF4789408958C01EB017A014A
:102780008FB7F8940E94FC057894209721F0C80137
:10279000B701FE0109958FB7F8940E947C077894E1
:1027A00081E083BF8895FDCF04D06894B1118DC0BE
:1027B000089570D088F09F5790F0B92F9927B7519E
:1027C000A0F0D1F0660F771F881F991F1AF0BA95F5
:1027D000C9F712C0B13081F077D0B1E0089574C06C
:1027E000672F782F8827B85F39F0B93FCCF38695EB
:1027F00077956795B395D9F73EF490958095709548
:1028000061957F4F8F4F9F4F0895E89409C097FBC4
:102810003EF490958095709561957F4F8F4F9F4FB7
:102820009923A9F0F92F96E9BB279395F6958795FB
:1028300077956795B795F111F8CFFAF4BB0F11F4BE
:1028400060FF1BC06F5F7F4F8F4F9F4F16C0882365
:1028500011F096E911C0772321F09EE8872F762F9B
:1028600005C0662371F096E8862F70E060E02AF0DC
:102870009A95660F771F881FDAF7880F96958795C8
:1028800097F9089557FD9058440F551F59F05F3F31
:1028900071F04795880F97FB991F61F09F3F79F082
:1028A00087950895121613061406551FF2CF469504
:1028B000F1DF08C0161617061806991FF1CF869586
:1028C0007105610508940895E894BB27662777276A
:1028D000CB0197F9089511F40EF44DC03EC0DADF34
:1028E000D0F39923D9F3CEF39F57550B87FF46D0EA
:1028F0000024A0E640EA900180585695979528F468
:10290000805C660F771F881F20F02617370748075F
:1029100030F4621B730B840B202931294A2BA695B6
:1029200017940794202531254A2758F7660F771FFB
:10293000881F20F026173707480730F4620B730B07
:10294000840B200D311D411DA09581F7B901842F05
:102950009158880F9695879508959F3F31F0915033
:1029600020F4879577956795B795880F911D969573
:10297000879597F908959FEF80EC08959150504006
:10298000660F771F881FD2F70895629FD001739F4B
:10299000F001829FE00DF11D649FE00DF11D929FFB
:1029A000F00D839FF00D749FF00D659FF00D99273A
:1029B000729FB00DE11DF91F639FB00DE11DF91F5E
:1029C000BD01CF011124089597FB092E07260AD0D7
:1029D00077FD04D027D006D000201AF470956195B9
:1029E0007F4F0895F6F7909581959F4F089597FB37
:1029F000092E05260ED057FD04D028D00AD0001C81
:102A000038F450954095309521953F4F4F4F5F4F8B
:102A10000895F6F790958095709561957F4F8F4F4B
:102A20009F4F0895AA1BBB1B51E107C0AA1FBB1FE4
:102A3000A617B70710F0A61BB70B881F991F5A954A
:102A4000A9F780959095BC01CD010895A1E21A2EB9
:102A5000AA1BBB1BFD010DC0AA1FBB1FEE1FFF1F42
:102A6000A217B307E407F50720F0A21BB30BE40B92
:102A7000F50B661F771F881F991F1A9469F76095D9
:102A80007095809590959B01AC01BD01CF01089593
:102A9000DC012D923D924D925D926D927D928D92D0
:102AA0009D92AD92BD92CD92DD92ED92FD920D93ED
:102AB0001D93CD93DD93FF91EF918DB78D938EB7DD
:102AC0008D938FB78D93ED93FD9388279927099464
:102AD000DC01CB0181309105811D2D903D904D9001
:102AE0005D906D907D908D909D90AD90BD90CD90BE
:102AF000DD90ED90FD900D911D91CD91DD91ED91C9
:102B0000FD910D90F894FEBF0FBEEDBFED91FD91CC
:062B10000994F894FFCFC8
:102B16000000000024011A011001000000006A01F3
:102B2600000000006A010100E803000000006A01DD
:102B36000300F401000000006A010A0D54696E7971
:102B460054696D626572200076322E30312028324B
:102B56003031322D30312D323429000A0D00340245
:102B660034029C015102303132333435363738392C
:082B76004142434445460000C2
:00000001FF
