:100000000C942E000C944B000C944B000C944B0061
:100010000C944B000C944B000C944B000C944B0034
:100020000C944B000C944B000C944B000C944B0024
:100030000C944B000C944B000C944B000C944B0014
:100040000C944B000C944B000C944B000C944B0004
:100050000C944B000C944B000C944B0011241FBECD
:10006000CFEFD4E0DEBFCDBF11E0A0E0B1E0ECE126
:10007000F1E002C005900D92A030B107D9F711E070
:10008000A0E0B1E001C01D92A030B107E1F70E94ED
:1000900071000C948C000C94000080E88093E400C4
:1000A00087EB8093E500089581E08093EF00109244
:1000B000F90008951092EF0081E08093F90008950F
:1000C0002F9A1092EF0081E08093F9001F99FECFE4
:1000D0008093EF001092F9001F9BFECF1092EF006B
:1000E000F3CF80E880936100109261008093E40078
:1000F00087EB8093E5002F9A1092EF0081E08093C8
:10010000F9001F99FECF8093EF001092F9001F9B1A
:0C011000FECF1092EF00F3CFF894FFCF69
:00000001FF
