:100000000C942E000C941A0C0C94AD0B0C94400B19
:100010000C94D30A0C94660A0C944B000C94F803CD
:100020000C944B000C9454010C94F9090C948C0919
:100030000C941F090C94B2080C9445080C94D80732
:100040000C946B070C94FE060C9491060C942406F9
:100050000C94B7050C944A050C94DD0411241FBEC2
:10006000CFEFD4E0DEBFCDBF11E0A0E0B1E0E4E22D
:10007000F5E202C005900D92AA36B107D9F714E057
:10008000AAE6B1E001C01D92A23CB107E1F70E94CF
:100090004D000C9490120C94000087EB8093E500C7
:1000A00080E18093E6008FE08093E70080E8809312
:1000B000E40040E050E063EE71E180911601909120
:1000C00017010E94DB030895AF92BF92CF92DF9297
:1000D000EF92FF920F931F935C01FC010481158145
:1000E000CC24DD2499E9E92E91E1F92E20E030E0DD
:1000F00040E050E060E070E080E090E00E94730D2E
:10010000F5010681178182ECE82E81E1F82E20E0CE
:1001100030E040E050E060E070E080E090E00E947D
:10012000730D1F910F91FF90EF90DF90CF90BF90D4
:10013000AF900895FC0101C0319680818823E1F7DA
:10014000089524E0969587952A95E1F70097C9F7D9
:10015000089508950895CF92DF92EF92FF920F9342
:100160001F93CF93DF938C01DB01ED91FC91C0E0F5
:10017000D0E005C0EF01808191819C01F9013097A9
:1001800081F02681378140855185D8011696CD9022
:10019000DD90ED90FC901997C216D306E406F506A3
:1001A0004CF7D801ED93FC93209721F4FB011183C8
:1001B000008302C019830883DF91CF911F910F91B3
:1001C000FF90EF90DF90CF900895CF92DF92EF9263
:1001D000FF920F931F93CF93DF938C01DB01ED917F
:1001E000FC91C0E0D0E005C0EF01808191819C01CD
:1001F000F901309781F02281338144815581D80102
:100200001296CD90DD90ED90FC901597C216D30616
:10021000E406F5064CF7D801ED93FC93209721F402
:10022000FB011183008302C019830883DF91CF9102
:100230001F910F91FF90EF90DF90CF900895DC0118
:10024000ED91FC911197309731F0808191818D93E0
:100250009C93CF0108958FEF8093EC008093ED0085
:100260008093EE0081E083BF8895FDCFDC01FB0128
:100270008081918111969C938E93B183A083089580
:10028000DC01FB018081918111969C938E93B18357
:10029000A0830895FC01A081B1818D919C9111975B
:1002A00091838083CD0108951F920F920FB60F9214
:1002B00011242F933F934F935F936F937F938F936B
:1002C0009F93AF93BF93EF93FF93609176017091EB
:1002D00077016F5F7F4F7093770160937601E091B4
:1002E0007001F0917101309721F1228133814481B5
:1002F0005581CA01BB2797FDB095AB2F68177907C9
:10030000C1F4809184009091850080959095820F32
:10031000931F892B31F420918400309185002F5F49
:100320003F4F309389002093880080916F00826056
:1003300003C080916F008D7F80936F00FF91EF91DC
:10034000BF91AF919F918F917F916F915F914F91ED
:100350003F912F910F900FBE0F901F901895DC01C9
:100360006FB7F8942091700130917101E0E0F0E0F6
:1003700004C0F901808191819C012115310569F04A
:100380002A173B07B1F78D919C9111973097D9F4BB
:1003900090937101809370013AC020916E01309169
:1003A0006F01E0E0F0E004C0F901808191819C01DF
:1003B0002115310581F02A173B07B1F78D919C91EA
:1003C0001197309719F09183808321C090936F012A
:1003D00080936E011CC0E0915101F0915201409157
:1003E00053015091540122C0E417F507E1F08281D6
:1003F00093818A179B07B9F4248135811A968D91D0
:100400009C911B972817390771F4138212828091EF
:100410004D0190914E0111969C938E93B0934E0195
:10042000A0934D0105C00190F081E02D3097E1F6D9
:1004300067FF01C078940895CF93DF93EC010FB666
:1004400007FE0CC0E0915301F09154010280F3814A
:10045000E02D82819381A481B58108C080917201D1
:1004600090917301A0917401B09175018883998373
:10047000AA83BB83DF91CF910895DC010FB607FEFD
:100480000CC0E0915301F09154010280F381E02D02
:10049000228133814481558108C0209172013091BD
:1004A000730140917401509175018D919D910D9052
:1004B000BC91A02D281B390B4A0B5B0BB901CA015B
:1004C0000895EF92FF920F931F936FB7F8944091A6
:1004D0007601509177012091840030918500B09988
:1004E00010C0CA01AA2797FDA095BA2F8C01FF243E
:1004F000EE24C901A0E0B0E0E82AF92A0A2B1B2B60
:1005000014C020918400309185004F5F5F4FCA0175
:10051000AA2797FDA095BA2F8C01FF24EE2440E076
:1005200050E0E22AF32A042B152B67FF0DC07894C4
:10053000E0915301F09154010280F381E02D82811A
:100540009381A481B58108C080917201909173015B
:10055000A0917401B0917501A8019701281B390B76
:100560004A0B5B0BB901CA011F910F91FF90EF90ED
:100570000895CF93DF93EC014231B0F42FB7F89494
:10058000E42FF0E0EE0FFF1FDF01A858BE4FCD9320
:10059000DC93E05FFD4F7183608381E090E09B839B
:1005A0008A8327FF01C07894DF91CF910895DF936C
:1005B000CF9300D000D000D0CDB7DEB781E692E077
:1005C00021E433E0FC017097918380834096821789
:1005D0009307C1F7109232031092310389EB91E037
:1005E00090939D0180939C014D969093BA018093C6
:1005F000B901CA9723EF31E03093D7012093D60198
:100600001092F4011092F3012DE933E03C832B8327
:10061000AC014C5F5F4F5A8349831E821D82AD81BE
:10062000BE81EDE1F0E0AE9FC001AF9F900DBE9F97
:10063000900D1124069684569E4F0E9428122D81FB
:100640003E814DE150E0249FF001259FF00D349F45
:10065000F00D11243696E456FE4F8B819C81918BD0
:10066000808B938B828BAEEFBCE0B68BA58BE98140
:10067000FA81118210822F5F3F4F3E832D83805A73
:100680009F4F9C838B837D96FA83E98324303105C9
:1006900031F6109235021092340210923902109203
:1006A00038021092370210923602E8E1F1E001C000
:1006B000319680818823E1F7E6E2F1E001C03196CE
:1006C00080818823E1F7E9E3F1E001C03196808180
:1006D0008823E1F7E1E6F0E080E880831082109261
:1006E00085001092840084E08093810081E08093F3
:1006F0006F0026960FB6F894DEBF0FBECDBFCF9128
:10070000DF910895DF93CF9300D0CDB7DEB79A8302
:100710008983809153019091540106960E9428127A
:10072000892B59F489819A819093540180935301C4
:1007300061E070E006960E9448120F900F90CF91F2
:10074000DF910895CF93DF93609151017091520131
:10075000FB01C281D381A0916E01B0916F0110970E
:1007600039F1E0914F01F0915001309709F1209754
:1007700081F016968D919D910D90BC91A02D2E81AA
:100780003F8148855985821B930BA40BB50BB7FF9E
:100790000FC0808191819093500180934F017183AC
:1007A0006083F0935201E0935101CF010E948203D4
:1007B000DF91CF910895EF92FF920F931F93CF9304
:1007C000DF937C01EB018A018FB7F8940E94D70276
:1007D0007894209721F0B801C701FE0109958FB7E1
:1007E000F8940E94A203789481E083BF8895FDCF9E
:1007F0001F920F920FB60F9211248F929F92AF9279
:10080000BF92CF92DF92EF92FF920F931F932F939D
:100810003F934F935F936F937F938F939F93AF9388
:10082000BF93CF93DF93EF93FF93C0907601D09067
:1008300077012091840030918500B0990AC0C601EB
:10084000AA2797FDA095BA2F8C01FF24EE24C90199
:1008500012C080918400909185000894C11CD11C25
:100860009601442737FD4095542F0894C108D108BC
:100870008901FF24EE24A0E0B0E0E82AF92A0A2B3F
:100880001B2BB0906E01A0906F01C0917001D091B0
:1008900071012CC0988089808B2D9A2D9C01F901C3
:1008A00060E070E005C0BF01808191819C01F90189
:1008B000309769F026813781408551858E819F81EF
:1008C000A885B98582179307A407B50764F7F9834C
:1008D000E8836115710519F4BC2EAD2E03C0FB0130
:1008E000D183C083892D982D9C01E901209741F186
:1008F0002A813B814C815D81DA01C9018E199F09F2
:10090000A00BB10B181619061A061B061CF644C0DC
:10091000809184009091850080959095820F931F1F
:10092000892B31F420918400309185002F5F3F4F57
:10093000309389002093880080916F0082600BC003
:10094000B0926E01A0926F0110927101109270012D
:1009500080916F008D7F80936F000E94A203FF91B2
:10096000EF91DF91CF91BF91AF919F918F917F9147
:100970006F915F914F913F912F911F910F91FF9038
:10098000EF90DF90CF90BF90AF909F908F900F909F
:100990000FBE0F901F901895B0926E01A0926F013C
:1009A000D0937101C0937001CA01BB2797FDB09528
:1009B000AB2FC816D90661F6ABCF1F920F920FB6B8
:1009C0000F9211242F933F934F935F936F937F93D5
:1009D0008F939F93AF93BF93EF93FF9360917601B3
:1009E000709177012091840030918500CB01AA2776
:1009F00097FDA095BA2FDC019927882740E050E0A9
:100A0000822B932BA42BB52B8093720190937301AF
:100A1000A0937401B0937501B09B1CC02091840019
:100A2000309185006F5F7F4FCB01AA2797FDA0957E
:100A3000BA2FDC019927882740E050E0822B932BC6
:100A4000A42BB52B8093720190937301A093740132
:100A5000B0937501E0913202F0913302309739F092
:100A600061E170E080919A0190919B0109950E944B
:100A7000A203FF91EF91BF91AF919F918F917F91D1
:100A80006F915F914F913F912F910F900FBE0F90FB
:100A90001F9018951F920F920FB60F9211242F934B
:100AA0003F934F935F936F937F938F939F93AF93F6
:100AB000BF93EF93FF93609176017091770120913E
:100AC000840030918500CB01AA2797FDA095BA2F0D
:100AD000DC019927882740E050E0822B932BA42B40
:100AE000B52B8093720190937301A0937401B0931E
:100AF0007501B09B1CC020918400309185006F5F10
:100B00007F4FCB01AA2797FDA095BA2FDC0199272B
:100B1000882740E050E0822B932BA42BB52B8093A9
:100B2000720190937301A0937401B0937501E091E9
:100B30003002F0913102309739F060E170E080913D
:100B400098019091990109950E94A203FF91EF915C
:100B5000BF91AF919F918F917F916F915F914F91D5
:100B60003F912F910F900FBE0F901F9018951F92DD
:100B70000F920FB60F9211242F933F934F935F93D1
:100B80006F937F938F939F93AF93BF93EF93FF9355
:100B900060917601709177012091840030918500F9
:100BA000CB01AA2797FDA095BA2FDC0199278827AA
:100BB00040E050E0822B932BA42BB52B8093720145
:100BC00090937301A0937401B0937501B09B1CC006
:100BD00020918400309185006F5F7F4FCB01AA2761
:100BE00097FDA095BA2FDC019927882740E050E0B7
:100BF000822B932BA42BB52B8093720190937301BE
:100C0000A0937401B0937501E0912E02F0912F0230
:100C1000309739F06FE070E08091960190919701E4
:100C200009950E94A203FF91EF91BF91AF919F910F
:100C30008F917F916F915F914F913F912F910F9085
:100C40000FBE0F901F9018951F920F920FB60F9224
:100C500011242F933F934F935F936F937F938F93C1
:100C60009F93AF93BF93EF93FF9360917601709141
:100C700077012091840030918500CB01AA2797FD50
:100C8000A095BA2FDC019927882740E050E0822BFD
:100C9000932BA42BB52B8093720190937301A09397
:100CA0007401B0937501B09B1CC0209184003091F9
:100CB00085006F5F7F4FCB01AA2797FDA095BA2FC4
:100CC000DC019927882740E050E0822B932BA42B4E
:100CD000B52B8093720190937301A0937401B0932C
:100CE0007501E0912C02F0912D02309739F06EE001
:100CF00070E0809194019091950109950E94A20362
:100D0000FF91EF91BF91AF919F918F917F916F91E3
:100D10005F914F913F912F910F900FBE0F901F90B9
:100D200018951F920F920FB60F9211242F933F9395
:100D30004F935F936F937F938F939F93AF93BF93E3
:100D4000EF93FF9360917601709177012091840079
:100D500030918500CB01AA2797FDA095BA2FDC0121
:100D60009927882740E050E0822B932BA42BB52BAA
:100D70008093720190937301A0937401B0937501F5
:100D8000B09B1CC020918400309185006F5F7F4F25
:100D9000CB01AA2797FDA095BA2FDC0199278827B8
:100DA00040E050E0822B932BA42BB52B8093720153
:100DB00090937301A0937401B0937501E0912A029E
:100DC000F0912B02309739F06DE070E08091920144
:100DD0009091930109950E94A203FF91EF91BF9119
:100DE000AF919F918F917F916F915F914F913F91C3
:100DF0002F910F900FBE0F901F9018951F920F927A
:100E00000FB60F9211242F933F934F935F936F93DD
:100E10007F938F939F93AF93BF93EF93FF936091D3
:100E20007601709177012091840030918500CB018B
:100E3000AA2797FDA095BA2FDC019927882740E0C3
:100E400050E0822B932BA42BB52B809372019093AF
:100E50007301A0937401B0937501B09B1CC02091E5
:100E60008400309185006F5F7F4FCB01AA2797FDEB
:100E7000A095BA2FDC019927882740E050E0822B0B
:100E8000932BA42BB52B8093720190937301A093A5
:100E90007401B0937501E0912802F0912902309716
:100EA00039F06CE070E0809190019091910109958A
:100EB0000E94A203FF91EF91BF91AF919F918F91FB
:100EC0007F916F915F914F913F912F910F900FBE46
:100ED0000F901F9018951F920F920FB60F9211242A
:100EE0002F933F934F935F936F937F938F939F9332
:100EF000AF93BF93EF93FF93609176017091770169
:100F00002091840030918500CB01AA2797FDA09500
:100F1000BA2FDC019927882740E050E0822B932BE1
:100F2000A42BB52B8093720190937301A09374014D
:100F3000B0937501B09B1CC0209184003091850056
:100F40006F5F7F4FCB01AA2797FDA095BA2FDC01D9
:100F50009927882740E050E0822B932BA42BB52BB8
:100F60008093720190937301A0937401B093750103
:100F7000E0912602F0912702309739F06BE070E0A3
:100F800080918E0190918F0109950E94A203FF919B
:100F9000EF91BF91AF919F918F917F916F915F91F1
:100FA0004F913F912F910F900FBE0F901F9018956A
:100FB0001F920F920FB60F9211242F933F934F93CE
:100FC0005F936F937F938F939F93AF93BF93EF93B1
:100FD000FF936091760170917701209184003091A8
:100FE0008500CB01AA2797FDA095BA2FDC01992790
:100FF000882740E050E0822B932BA42BB52B8093C5
:10100000720190937301A0937401B0937501B09B2A
:101010001CC020918400309185006F5F7F4FCB0111
:10102000AA2797FDA095BA2FDC019927882740E0D1
:1010300050E0822B932BA42BB52B809372019093BD
:101040007301A0937401B0937501E0912402F091B3
:101050002502309739F06AE070E080918C01909120
:101060008D0109950E94A203FF91EF91BF91AF916D
:101070009F918F917F916F915F914F913F912F91B0
:101080000F900FBE0F901F9018951F920F920FB6E2
:101090000F9211242F933F934F935F936F937F93FE
:1010A0008F939F93AF93BF93EF93FF9360917601DC
:1010B000709177012091840030918500CB01AA279F
:1010C00097FDA095BA2FDC019927882740E050E0D2
:1010D000822B932BA42BB52B8093720190937301D9
:1010E000A0937401B0937501B09B1CC02091840043
:1010F000309185006F5F7F4FCB01AA2797FDA095A8
:10110000BA2FDC019927882740E050E0822B932BEF
:10111000A42BB52B8093720190937301A09374015B
:10112000B0937501E0912202F0912302309739F0DB
:1011300069E070E080918A0190918B0109950E948D
:10114000A203FF91EF91BF91AF919F918F917F91FA
:101150006F915F914F913F912F910F900FBE0F9024
:101160001F9018951F920F920FB60F9211242F9374
:101170003F934F935F936F937F938F939F93AF931F
:10118000BF93EF93FF936091760170917701209167
:10119000840030918500CB01AA2797FDA095BA2F36
:1011A000DC019927882740E050E0822B932BA42B69
:1011B000B52B8093720190937301A0937401B09347
:1011C0007501B09B1CC020918400309185006F5F39
:1011D0007F4FCB01AA2797FDA095BA2FDC01992755
:1011E000882740E050E0822B932BA42BB52B8093D3
:1011F000720190937301A0937401B0937501E09113
:101200002002F0912102309739F068E070E080917F
:1012100088019091890109950E94A203FF91EF91A5
:10122000BF91AF919F918F917F916F915F914F91FE
:101230003F912F910F900FBE0F901F9018951F9206
:101240000F920FB60F9211242F933F934F935F93FA
:101250006F937F938F939F93AF93BF93EF93FF937E
:101260006091760170917701209184003091850022
:10127000CB01AA2797FDA095BA2FDC0199278827D3
:1012800040E050E0822B932BA42BB52B809372016E
:1012900090937301A0937401B0937501B09B1CC02F
:1012A00020918400309185006F5F7F4FCB01AA278A
:1012B00097FDA095BA2FDC019927882740E050E0E0
:1012C000822B932BA42BB52B8093720190937301E7
:1012D000A0937401B0937501E0911E02F0911F027A
:1012E000309739F067E070E0809186019091870136
:1012F00009950E94A203FF91EF91BF91AF919F9139
:101300008F917F916F915F914F913F912F910F90AE
:101310000FBE0F901F9018951F920F920FB60F924D
:1013200011242F933F934F935F936F937F938F93EA
:101330009F93AF93BF93EF93FF936091760170916A
:1013400077012091840030918500CB01AA2797FD79
:10135000A095BA2FDC019927882740E050E0822B26
:10136000932BA42BB52B8093720190937301A093C0
:101370007401B0937501B09B1CC020918400309122
:1013800085006F5F7F4FCB01AA2797FDA095BA2FED
:10139000DC019927882740E050E0822B932BA42B77
:1013A000B52B8093720190937301A0937401B09355
:1013B0007501E0911C02F0911D02309739F066E052
:1013C00070E0809184019091850109950E94A203AB
:1013D000FF91EF91BF91AF919F918F917F916F910D
:1013E0005F914F913F912F910F900FBE0F901F90E3
:1013F00018951F920F920FB60F9211242F933F93BF
:101400004F935F936F937F938F939F93AF93BF930C
:10141000EF93FF93609176017091770120918400A2
:1014200030918500CB01AA2797FDA095BA2FDC014A
:101430009927882740E050E0822B932BA42BB52BD3
:101440008093720190937301A0937401B09375011E
:10145000B09B1CC020918400309185006F5F7F4F4E
:10146000CB01AA2797FDA095BA2FDC0199278827E1
:1014700040E050E0822B932BA42BB52B809372017C
:1014800090937301A0937401B0937501E0911A02D7
:10149000F0911B02309739F065E070E08091820195
:1014A0009091830109950E94A203FF91EF91BF9152
:1014B000AF919F918F917F916F915F914F913F91EC
:1014C0002F910F900FBE0F901F9018951F920F92A3
:1014D0000FB60F9211242F933F934F935F936F9307
:1014E0007F938F939F93AF93BF93EF93FF936091FD
:1014F0007601709177012091840030918500CB01B5
:10150000AA2797FDA095BA2FDC019927882740E0EC
:1015100050E0822B932BA42BB52B809372019093D8
:101520007301A0937401B0937501B09B1CC020910E
:101530008400309185006F5F7F4FCB01AA2797FD14
:10154000A095BA2FDC019927882740E050E0822B34
:10155000932BA42BB52B8093720190937301A093CE
:101560007401B0937501E0911802F091190230975F
:1015700039F064E070E080918001909181010995DB
:101580000E94A203FF91EF91BF91AF919F918F9124
:101590007F916F915F914F913F912F910F900FBE6F
:1015A0000F901F9018951F920F920FB60F92112453
:1015B0002F933F934F935F936F937F938F939F935B
:1015C000AF93BF93EF93FF93609176017091770192
:1015D0002091840030918500CB01AA2797FDA0952A
:1015E000BA2FDC019927882740E050E0822B932B0B
:1015F000A42BB52B8093720190937301A093740177
:10160000B0937501B09B1CC020918400309185007F
:101610006F5F7F4FCB01AA2797FDA095BA2FDC0102
:101620009927882740E050E0822B932BA42BB52BE1
:101630008093720190937301A0937401B09375012C
:10164000E0911602F0911702309739F063E070E0F4
:1016500080917E0190917F0109950E94A203FF91E4
:10166000EF91BF91AF919F918F917F916F915F911A
:101670004F913F912F910F900FBE0F901F90189593
:101680001F920F920FB60F9211242F933F934F93F7
:101690005F936F937F938F939F93AF93BF93EF93DA
:1016A000FF936091760170917701209184003091D1
:1016B0008500CB01AA2797FDA095BA2FDC019927B9
:1016C000882740E050E0822B932BA42BB52B8093EE
:1016D000720190937301A0937401B0937501B09B54
:1016E0001CC020918400309185006F5F7F4FCB013B
:1016F000AA2797FDA095BA2FDC019927882740E0FB
:1017000050E0822B932BA42BB52B809372019093E6
:101710007301A0937401B0937501E0911402F091EC
:101720001502309739F062E070E080917C01909171
:101730007D0109950E94A203FF91EF91BF91AF91A6
:101740009F918F917F916F915F914F913F912F91D9
:101750000F900FBE0F901F9018951F920F920FB60B
:101760000F9211242F933F934F935F936F937F9327
:101770008F939F93AF93BF93EF93FF936091760105
:10178000709177012091840030918500CB01AA27C8
:1017900097FDA095BA2FDC019927882740E050E0FB
:1017A000822B932BA42BB52B809372019093730102
:1017B000A0937401B0937501B09B1CC0209184006C
:1017C000309185006F5F7F4FCB01AA2797FDA095D1
:1017D000BA2FDC019927882740E050E0822B932B19
:1017E000A42BB52B8093720190937301A093740185
:1017F000B0937501E0911202F0911302309739F025
:1018000061E070E080917A0190917B0109950E94DE
:10181000A203FF91EF91BF91AF919F918F917F9123
:101820006F915F914F913F912F910F900FBE0F904D
:101830001F9018951F920F920FB60F9211242F939D
:101840003F934F935F936F937F938F939F93AF9348
:10185000BF93EF93FF936091760170917701209190
:10186000840030918500CB01AA2797FDA095BA2F5F
:10187000DC019927882740E050E0822B932BA42B92
:10188000B52B8093720190937301A0937401B09370
:101890007501B09B1CC020918400309185006F5F62
:1018A0007F4FCB01AA2797FDA095BA2FDC0199277E
:1018B000882740E050E0822B932BA42BB52B8093FC
:1018C000720190937301A0937401B0937501E0913C
:1018D0001002F0911102309739F060E070E08091D1
:1018E00078019091790109950E94A203FF91EF91EF
:1018F000BF91AF919F918F917F916F915F914F9128
:101900003F912F910F900FBE0F901F901895CF927F
:10191000DF92FF920F931F93CF93DF93EC016B0144
:101920008A01FFB680E8F822F894888199810097AF
:1019300019F433C080819181DC011496ED91FC9102
:1019400015973097B9F7A0915301B09154018A17B8
:101950009B0721F0FF2009F446C005C0FF2009F4D1
:1019600042C0789440C0EA81FB81309711F0158223
:101970001482BB83AA831596DC93CE9314970E949E
:101980008203E0915301F091540182819381892B6C
:1019900021F4789400E010E028C0809153019091E8
:1019A000540199838883FF2029F08A819B810197C4
:1019B00009F07894B801CE01F60109958C018FB732
:1019C000F89419821882EA81FB81E230F10538F03F
:1019D0001B821A8215821482CF010E948203FF208B
:1019E00021F0789402C00FEF1FEFC801DF91CF9173
:1019F0001F910F91FF90DF90CF900895CF93DF93C9
:101A0000E0915301F0915401C0916E01D0916F01AA
:101A1000209769F18881998190936F0180936E017D
:101A2000D383C28378944E855F856C857D858A8556
:101A30009B850E94870C8FB7F89480914D019091FF
:101A40004E0199838883D0934E01C0934D016091DC
:101A5000510170915201FB01C081D1812A813B81EA
:101A6000E0916E01F0916F01309761F422C08FEF29
:101A70008093EC008093ED008093EE0081E083BFC3
:101A80008895FDCF2115310509F4BACF868197815C
:101A9000A085B185F9012681378140855185821B5A
:101AA000930BA40BB50B181619061A061B060CF09F
:101AB000A7CFD0935201C093510180914F019091D3
:101AC0005001FB01918380837093500160934F011B
:101AD00002C0C081D181EC81FD813097D1F7CE0168
:101AE0000E9482038DCF3F924F925F926F927F92BE
:101AF0008F929F92AF92BF92CF92DF92EF92FF921E
:101B00000F931F93CF93DF932B013C0149015A019F
:101B100098018FB7F89400914D0110914E01011575
:101B20001105D1F070E8372E3822D8018D919C91A3
:101B3000119790934E0180934D011B963C932E93E9
:101B40001A971D96FC92EE921C971F96DC92CE92ED
:101B50001E97332061F417C08FEF8093EC008093C1
:101B6000ED008093EE0081E083BF8895FDCFE0918A
:101B70005301F09154010280F381E02D6281738161
:101B80008481958108C06091720170917301809188
:101B90007401909175019B01AC01240D351D461D0A
:101BA000571DF80122833383448355831814190485
:101BB0001A041B0444F06FEF862E6FEF962E6FEF22
:101BC000A62E6FE7B62E34014501620E731E841EE9
:101BD000951ED80116966D927D928D929C921997C2
:101BE000E0907601F0907701E0918400F09185001B
:101BF000B0990AC0C701AA2797FDA095BA2FAC01DA
:101C000033272227CF0112C0809184009091850054
:101C10000894E11CF11C9701442737FD4095542F8F
:101C20000894E108F108A90133272227A0E0B0E0D9
:101C3000282B392B4A2B5B2BF801A280B380C48060
:101C4000D580D601C501821B930BA40BB50B1816CA
:101C500019061A061B060CF056C0E0917001F091AF
:101C60007101C0E0D0E005C0EF01808191819C014D
:101C7000F901309749F082819381A481B581A8163A
:101C8000B906CA06DB0684F7D801ED93FC932097CA
:101C900029F4109371010093700102C01983088325
:101CA000E0917001F0917101309721F1228133812F
:101CB00044815581CA01BB2797FDB095AB2FE8162B
:101CC000F906C1F4809184009091850080959095EB
:101CD000820F931F892B31F420918400309185006D
:101CE0002F5F3F4F309389002093880080916F00D1
:101CF000826003C080916F008D7F80936F003320DE
:101D000009F057C057C0E0916E01F0916F01C0E03B
:101D1000D0E005C0EF01808191819C01F9013097ED
:101D200049F086819781A085B185681679068A0673
:101D30009B0684F7D801ED93FC93209729F4109328
:101D40006F0100936E0102C019830883332091F163
:101D5000C0914F01D0915001209759F160915101EC
:101D600070915201E0916E01F0916F01DB011296CA
:101D70002D913C91139786819781A085B185F901BA
:101D80002681378140855185821B930BA40BB50BAF
:101D9000B7FF0FC0888199819093500180934F01C4
:101DA00079836883D0935201C0935101CE010E9480
:101DB00082037894C801DF91CF911F910F91FF901A
:101DC000EF90DF90CF90BF90AF909F908F907F90DB
:101DD0006F905F904F903F900895FB01CB016AE0B8
:101DE00070E00E9469128230910509F482C083304C
:101DF000910534F4009781F0019709F053C141C077
:101E00008430910509F4E2C0843091050CF4A6C039
:101E1000059709F047C10FC14091EC00CF016AE07E
:101E200070E00E946912FB01EE0FFF1FEB5AFE4F9C
:101E300020813181832F82958F70407F482B409382
:101E4000EC004091F100832F992787FD9A958F70C0
:101E5000407F842B8093F1004091F600C901E4E0BB
:101E600095958795EA95E1F78F70407F842B809355
:101E7000F6008091FB002F70807F282B2093FB00C1
:101E800008952091EC00CF016AE070E00E94691291
:101E9000FB01EE0FFF1FEB5AFE4F40815181852F52
:101EA000992787FD9A95807F2F70822B8093EC0075
:101EB0002091F100CA0134E0959587953A95E1F7B4
:101EC000807F2F70822B8093F1008091F600942FF9
:101ED000907F8F70982B9093F6008091FB00B4E078
:101EE000440F551FBA95E1F78F70842B8093FB0048
:101EF00008954091ED00CF016AE070E00E94691200
:101F0000FB01EE0FFF1FEB5AFE4F20813181832F23
:101F100082958F70407F482B4093ED004091F200F6
:101F2000832F992787FD9A958F70407F842B80930C
:101F3000F2004091F700C901E4E095958795EA9594
:101F4000E1F78F70407F842B8093F7008091FC0035
:101F50002F70807F282B2093FC0008952091ED00A6
:101F6000CF016AE070E00E946912FB01EE0FFF1FD3
:101F7000EB5AFE4F40815181852F992787FD9A9515
:101F8000807F2F70822B8093ED002091F200CA0198
:101F900034E0959587953A95E1F7807F2F70822BF5
:101FA0008093F2008091F700942F907F8F70982B90
:101FB0009093F7008091FC00B4E0440F551FBA9550
:101FC000E1F78F70842B8093FC0008954091EE0020
:101FD000CF016AE070E00E946912FB01EE0FFF1F63
:101FE000EB5AFE4F20813181832F82958F70407F85
:101FF000482B4093EE004091F300832F992787FDF3
:102000009A958F70407F842B8093F3004091F80065
:10201000C901E4E095958795EA95E1F78F70407FD7
:10202000842B8093F8008091FD002F70807F282BF7
:102030002093FD0008952091EE00CF016AE070E04A
:102040000E946912FB01EE0FFF1FEB5AFE4F408109
:102050005181852F992787FD9A95807F2F70822B3C
:102060008093EE002091F300CA0134E095958795A6
:102070003A95E1F7807F2F70822B8093F300809157
:10208000F800942F907F8F70982B9093F800809198
:10209000FD0094E0440F551F9A95E1F78F70842B53
:1020A0008093FD000895AF92BF92DF92EF92FF926E
:1020B0000F931F93DF93CF9300D000D000D0CDB704
:1020C000DEB75C01162F472F8091EC008676809357
:1020D000EC008091ED0086768093ED008091EE001B
:1020E00086768093EE001092F1001092F20010922A
:1020F000F3001092F6001092F7001092F800109280
:10210000FB001092FC001092FD00262F372FC90112
:1021100001E001C00F5F6AE070E00E946912CB012C
:1021200061157105B9F7073008F006E0302F25E09A
:102130007E010894E11CF11C14C0F701E20FF11DAF
:10214000812F942F6AE070E00E9469128083812FB2
:10215000942F6AE070E00E946912162F472F2150D9
:102160003150332351F715E07E010894E11CF11C36
:10217000BAE0DB2E10C0812F90E0F701E80FF91FC5
:1021800060816D9DB0011124680F791FC5010E9407
:10219000ED0E11500150002371F726960FB6F894FA
:1021A000DEBF0FBECDBFCF91DF911F910F91FF908A
:1021B000EF90DF90BF90AF90089565307105C1F149
:1021C0006630710594F46230710521F16330710558
:1021D0002CF46130710509F040C018C063307105FE
:1021E000F9F064307105C9F51FC06830710531F12F
:1021F0006930710524F46730710579F51FC06930C5
:10220000710501F16A30710541F522C08091EC0041
:10221000846003C08091EC0080648093EC0008959A
:1022200081E08093EF0008958091ED00826003C00B
:102230008091ED0080628093ED00089581E08093AD
:10224000FE0008958091EE0084608093EE00089572
:102250008091EE0080648093EE00089565307105F2
:10226000B1F1663071058CF46230710519F163309B
:10227000710524F461307105F1F518C06330710502
:10228000F9F064307105B9F51EC06830710529F1A7
:102290006930710524F46730710569F51EC0693035
:1022A0007105F1F06A30710531F520C08091EC00C4
:1022B0008B7F03C08091EC008F7B8093EC000895AE
:1022C0001092EF0008958091ED008D7F03C0809102
:1022D000ED008F7D8093ED0008951092FE0008952B
:1022E0008091EE008B7F8093EE0008958091EE0048
:1022F0008F7B8093EE000895FC018230910590F071
:102300008230910591F022E030E008C0CF01B901A0
:102310000E946912892B31F02F5F3F4F2E173F0724
:10232000ACF303C020E030E002C021E030E0C9019E
:1023300008950F931F93CF93DF938C01EB0108C097
:102340008FE7CF3FD80719F4C0E0D0E001C0219655
:10235000CE010E947C11892B99F3AE0163E570E1F7
:10236000F801848195810E94870CF1CF1092C104FD
:102370000895FC018085918562E070E00E946912F9
:10238000CB010895CF92DF92EF92FF920F931F93AC
:1023900021E02093C104CC24DD2423EEE22E21E1B0
:1023A000F22E8C0120E030E040E050E060E070E090
:1023B00080E090E00E94730D1F910F91FF90EF90CD
:1023C000DF90CF9008958F929F92AF92BF92CF925D
:1023D000DF92EF92FF920F931F935C014B0181E01C
:1023E00090E0861B970B6C0153EEE52E51E1F52E24
:1023F000850120E030E040E050E062E17AE780E0F3
:1024000090E00E94730DF501C680D780048115818C
:10241000892829F04EE2E42E41E1F42E04C03DED7E
:10242000E32E30E1F32E20E030E040E050E060E0C9
:1024300070E080E090E00E94730D1F910F91FF907B
:10244000EF90DF90CF90BF90AF909F908F900895C6
:10245000DC012D923D924D925D926D927D928D9216
:102460009D92AD92BD92CD92DD92ED92FD920D9333
:102470001D93CD93DD93FF91EF918DB78D938EB723
:102480008D938FB78D93ED93FD93882799270994AA
:10249000DC01CB0181309105811D2D903D904D9047
:1024A0005D906D907D908D909D90AD90BD90CD9004
:1024B000DD90ED90FD900D911D91CD91DD91ED910F
:1024C000FD910D90F894FEBF0FBEEDBFED91FD9113
:1024D000099497FB092E07260AD077FD04D00CD06B
:1024E00006D000201AF4709561957F4F0895F6F795
:1024F000909581959F4F0895AA1BBB1B51E107C082
:10250000AA1FBB1FA617B70710F0A61BB70B881F83
:10251000991F5A95A9F780959095BC01CD01089512
:04252000F894FFCF5D
:10252400000000006A01000000006A010700F401D5
:1025340000000000000106010A0D54696E79546917
:102544006D626572200076322E30312028323031AF
:10255400322D30312D323429000A0D00303132331E
:102564003435363738394142434445460051029C9C
:10257400013402340251151081E111B111B005B1D9
:0A25840014F1141011F115B1150047
:00000001FF
