:100000000C942E000C94E20B0C94750B0C94080BC2
:100010000C949B0A0C942E0A0C944B000C94C00375
:100020000C944B000C941C010C94C1090C945409C1
:100030000C94E7080C947A080C940D080C94A00713
:100040000C9433070C94C6060C9459060C94EC05DA
:100050000C947F050C9412050C94A50411241FBE6A
:10006000CFEFD4E0DEBFCDBF11E0A0E0B1E0ECE522
:10007000F3E202C005900D92A235B107D9F714E062
:10008000A2E5B1E001C01D92A93AB107E1F70E94D3
:100090004D000C94AC110C94000087EB8093E500AC
:1000A00080E18093E6008FE08093E70080E8809312
:1000B000E40049E350E36BE170E182E591E00E94E6
:1000C000A3030895FC0101C0319680818823E1F7E4
:1000D000089524E0969587952A95E1F70097C9F74A
:1000E000089508950895CF92DF92EF92FF920F93B3
:1000F0001F93CF93DF938C01DB01ED91FC91C0E066
:10010000D0E005C0EF01808191819C01F901309719
:1001100081F02681378140855185D8011696CD9092
:10012000DD90ED90FC901997C216D306E406F50613
:100130004CF7D801ED93FC93209721F4FB01118338
:10014000008302C019830883DF91CF911F910F9123
:10015000FF90EF90DF90CF900895CF92DF92EF92D3
:10016000FF920F931F93CF93DF938C01DB01ED91EF
:10017000FC91C0E0D0E005C0EF01808191819C013D
:10018000F901309781F02281338144815581D80172
:100190001296CD90DD90ED90FC901597C216D30687
:1001A000E406F5064CF7D801ED93FC93209721F473
:1001B000FB011183008302C019830883DF91CF9173
:1001C0001F910F91FF90EF90DF90CF900895DC0189
:1001D000ED91FC911197309731F0808191818D9351
:1001E0009C93CF0108958FEF8093EC008093ED00F6
:1001F0008093EE0081E083BF8895FDCFDC01FB0199
:100200008081918111969C938E93B183A0830895F0
:10021000DC01FB018081918111969C938E93B183C7
:10022000A0830895FC01A081B1818D919C911197CB
:1002300091838083CD0108951F920F920FB60F9284
:1002400011242F933F934F935F936F937F938F93DB
:100250009F93AF93BF93EF93FF9360915E01709173
:100260005F016F5F7F4F70935F0160935E01E0916C
:100270005801F0915901309721F122813381448155
:100280005581CA01BB2797FDB095AB2F6817790739
:10029000C1F4809184009091850080959095820FA3
:1002A000931F892B31F420918400309185002F5FBA
:1002B0003F4F309389002093880080916F008260C7
:1002C00003C080916F008D7F80936F00FF91EF914D
:1002D000BF91AF919F918F917F916F915F914F915E
:1002E0003F912F910F900FBE0F901F901895DC013A
:1002F0006FB7F8942091580130915901E0E0F0E097
:1003000004C0F901808191819C012115310569F0BA
:100310002A173B07B1F78D919C9111973097D9F42B
:1003200090935901809358013AC020915601309121
:100330005701E0E0F0E004C0F901808191819C0167
:100340002115310581F02A173B07B1F78D919C915A
:100350001197309719F09183808321C090935701B2
:10036000809356011CC0E0913901F0913A0140910F
:100370003B0150913C0122C0E417F507E1F0828176
:1003800093818A179B07B9F4248135811A968D9140
:100390009C911B972817390771F413821282809160
:1003A00035019091360111969C938E93B09336014E
:1003B000A093350105C00190F081E02D3097E1F662
:1003C00067FF01C078940895CF93DF93EC010FB6D7
:1003D00007FE0CC0E0913B01F0913C010280F381EB
:1003E000E02D82819381A481B58108C080915A015A
:1003F00090915B01A0915C01B0915D01888399832C
:10040000AA83BB83DF91CF910895DC010FB607FE6D
:100410000CC0E0913B01F0913C010280F381E02DA2
:10042000228133814481558108C020915A01309145
:100430005B0140915C0150915D018D919D910D900A
:10044000BC91A02D281B390B4A0B5B0BB901CA01CB
:100450000895EF92FF920F931F936FB7F894409116
:100460005E0150915F012091840030918500B09928
:1004700010C0CA01AA2797FDA095BA2F8C01FF24AE
:10048000EE24C901A0E0B0E0E82AF92A0A2B1B2BD0
:1004900014C020918400309185004F5F5F4FCA01E6
:1004A000AA2797FDA095BA2F8C01FF24EE2440E0E7
:1004B00050E0E22AF32A042B152B67FF0DC0789435
:1004C000E0913B01F0913C010280F381E02D8281BB
:1004D0009381A481B58108C080915A0190915B01FC
:1004E000A0915C01B0915D01A8019701281B390B17
:1004F0004A0B5B0BB901CA011F910F91FF90EF905E
:100500000895CF93DF93EC014231B0F42FB7F89404
:10051000E42FF0E0EE0FFF1FDF01A05ABE4FCD9396
:10052000DC93E850FE4F7183608381E090E09B8311
:100530008A8327FF01C07894DF91CF910895DF93DC
:10054000CF9300D000D000D0CDB7DEB789E492E0E1
:1005500029E233E0FC0170979183808340968217F3
:100560009307C1F710921A031092190381EA91E0E0
:1005700090938501809384014D969093A20180937E
:10058000A101CA972BED31E03093BF012093BE014A
:100590001092DC011092DB0125E833E03C832B83D1
:1005A000AC014C5F5F4F5A8349831E821D82AD812F
:1005B000BE81EDE1F0E0AE9FC001AF9F900DBE9F08
:1005C000900D112406968C579E4F0E9444112D8148
:1005D0003E814DE150E0249FF001259FF00D349FB6
:1005E000F00D11243696EC57FE4F8B819C81918B38
:1005F000808B938B828BA6ECBCE0B68BA58BE981BC
:10060000FA81118210822F5F3F4F3E832D83805AE3
:100610009F4F9C838B837D96FA83E9832430310539
:1006200031F610921D0210921C02109221021092BB
:10063000200210921F0210921E02E0E0F1E001C0C1
:10064000319680818823E1F7EEE0F1E001C0319638
:1006500080818823E1F7E1E2F1E001C031968081F9
:100660008823E1F7E1E6F0E080E8808310821092D1
:1006700085001092840084E08093810081E0809363
:100680006F0026960FB6F894DEBF0FBECDBFCF9198
:10069000DF910895DF93CF9300D0CDB7DEB79A8373
:1006A000898380913B0190913C0106960E94441100
:1006B000892B59F489819A8190933C0180933B0165
:1006C00061E070E006960E9464110F900F90CF9148
:1006D000DF910895CF93DF936091390170913A01D2
:1006E000FB01C281D381A0915601B09157011097AF
:1006F00039F1E0913701F0913801309709F12097F5
:1007000081F016968D919D910D90BC91A02D2E811A
:100710003F8148855985821B930BA40BB50BB7FF0E
:100720000FC080819181909338018093370171834C
:100730006083F0933A01E0933901CF010E944A03AC
:10074000DF91CF910895EF92FF920F931F93CF9374
:10075000DF937C01EB018A018FB7F8940E949F021E
:100760007894209721F0B801C701FE0109958FB751
:10077000F8940E946A03789481E083BF8895FDCF46
:100780001F920F920FB60F9211248F929F92AF92E9
:10079000BF92CF92DF92EF92FF920F931F932F930E
:1007A0003F934F935F936F937F938F939F93AF93F9
:1007B000BF93CF93DF93EF93FF93C0905E01D090F0
:1007C0005F012091840030918500B0990AC0C60174
:1007D000AA2797FDA095BA2F8C01FF24EE24C9010A
:1007E00012C080918400909185000894C11CD11C96
:1007F0009601442737FD4095542F0894C108D1082D
:100800008901FF24EE24A0E0B0E0E82AF92A0A2BAF
:100810001B2BB0905601A0905701C0915801D09168
:1008200059012CC0988089808B2D9A2D9C01F9014B
:1008300060E070E005C0BF01808191819C01F901F9
:10084000309769F026813781408551858E819F815F
:10085000A885B98582179307A407B50764F7F983BC
:10086000E8836115710519F4BC2EAD2E03C0FB01A0
:10087000D183C083892D982D9C01E901209741F1F6
:100880002A813B814C815D81DA01C9018E199F0962
:10089000A00BB10B181619061A061B061CF644C04D
:1008A000809184009091850080959095820F931F90
:1008B000892B31F420918400309185002F5F3F4FC8
:1008C000309389002093880080916F0082600BC074
:1008D000B0925601A09257011092590110925801FE
:1008E00080916F008D7F80936F000E946A03FF915B
:1008F000EF91DF91CF91BF91AF919F918F917F91B8
:100900006F915F914F913F912F911F910F91FF90A8
:10091000EF90DF90CF90BF90AF909F908F900F900F
:100920000FBE0F901F901895B0925601A0925701DC
:10093000D0935901C0935801CA01BB2797FDB095C8
:10094000AB2FC816D90661F6ABCF1F920F920FB628
:100950000F9211242F933F934F935F936F937F9345
:100960008F939F93AF93BF93EF93FF9360915E013B
:1009700070915F012091840030918500CB01AA27FE
:1009800097FDA095BA2FDC019927882740E050E019
:10099000822B932BA42BB52B80935A0190935B0150
:1009A000A0935C01B0935D01B09B1CC020918400BA
:1009B000309185006F5F7F4FCB01AA2797FDA095EF
:1009C000BA2FDC019927882740E050E0822B932B37
:1009D000A42BB52B80935A0190935B01A0935C01EB
:1009E000B0935D01E0911A02F0911B02309739F04B
:1009F00061E170E0809182019091830109950E94EC
:100A00006A03FF91EF91BF91AF919F918F917F9179
:100A10006F915F914F913F912F910F900FBE0F906B
:100A20001F9018951F920F920FB60F9211242F93BB
:100A30003F934F935F936F937F938F939F93AF9366
:100A4000BF93EF93FF9360915E0170915F012091DE
:100A5000840030918500CB01AA2797FDA095BA2F7D
:100A6000DC019927882740E050E0822B932BA42BB0
:100A7000B52B80935A0190935B01A0935C01B093D6
:100A80005D01B09B1CC020918400309185006F5F98
:100A90007F4FCB01AA2797FDA095BA2FDC0199279C
:100AA000882740E050E0822B932BA42BB52B80931A
:100AB0005A0190935B01A0935C01B0935D01E091BA
:100AC0001802F0911902309739F060E170E08091DE
:100AD00080019091810109950E946A03FF91EF9135
:100AE000BF91AF919F918F917F916F915F914F9146
:100AF0003F912F910F900FBE0F901F9018951F924E
:100B00000F920FB60F9211242F933F934F935F9341
:100B10006F937F938F939F93AF93BF93EF93FF93C5
:100B200060915E0170915F01209184003091850099
:100B3000CB01AA2797FDA095BA2FDC01992788271A
:100B400040E050E0822B932BA42BB52B80935A01CD
:100B500090935B01A0935C01B0935D01B09B1CC0BE
:100B600020918400309185006F5F7F4FCB01AA27D1
:100B700097FDA095BA2FDC019927882740E050E027
:100B8000822B932BA42BB52B80935A0190935B015E
:100B9000A0935C01B0935D01E0911602F091170201
:100BA000309739F06FE070E080917E0190917F0185
:100BB00009950E946A03FF91EF91BF91AF919F91B8
:100BC0008F917F916F915F914F913F912F910F90F6
:100BD0000FBE0F901F9018951F920F920FB60F9295
:100BE00011242F933F934F935F936F937F938F9332
:100BF0009F93AF93BF93EF93FF9360915E017091CA
:100C00005F012091840030918500CB01AA2797FDD8
:100C1000A095BA2FDC019927882740E050E0822B6D
:100C2000932BA42BB52B80935A0190935B01A09337
:100C30005C01B0935D01B09B1CC020918400309199
:100C400085006F5F7F4FCB01AA2797FDA095BA2F34
:100C5000DC019927882740E050E0822B932BA42BBE
:100C6000B52B80935A0190935B01A0935C01B093E4
:100C70005D01E0911402F0911502309739F06EE0B9
:100C800070E080917C0190917D0109950E946A033A
:100C9000FF91EF91BF91AF919F918F917F916F9154
:100CA0005F914F913F912F910F900FBE0F901F902A
:100CB00018951F920F920FB60F9211242F933F9306
:100CC0004F935F936F937F938F939F93AF93BF9354
:100CD000EF93FF9360915E0170915F01209184001A
:100CE00030918500CB01AA2797FDA095BA2FDC0192
:100CF0009927882740E050E0822B932BA42BB52B1B
:100D000080935A0190935B01A0935C01B0935D01C5
:100D1000B09B1CC020918400309185006F5F7F4F95
:100D2000CB01AA2797FDA095BA2FDC019927882728
:100D300040E050E0822B932BA42BB52B80935A01DB
:100D400090935B01A0935C01B0935D01E09112026E
:100D5000F0911302309739F06DE070E080917A01E4
:100D600090917B0109950E946A03FF91EF91BF91D9
:100D7000AF919F918F917F916F915F914F913F9133
:100D80002F910F900FBE0F901F9018951F920F92EA
:100D90000FB60F9211242F933F934F935F936F934E
:100DA0007F938F939F93AF93BF93EF93FF93609144
:100DB0005E0170915F012091840030918500CB012C
:100DC000AA2797FDA095BA2FDC019927882740E034
:100DD00050E0822B932BA42BB52B80935A01909338
:100DE0005B01A0935C01B0935D01B09B1CC020919E
:100DF0008400309185006F5F7F4FCB01AA2797FD5C
:100E0000A095BA2FDC019927882740E050E0822B7B
:100E1000932BA42BB52B80935A0190935B01A09345
:100E20005C01B0935D01E0911002F09111023097E6
:100E300039F06CE070E0809178019091790109952A
:100E40000E946A03FF91EF91BF91AF919F918F91A3
:100E50007F916F915F914F913F912F910F900FBEB6
:100E60000F901F9018951F920F920FB60F9211249A
:100E70002F933F934F935F936F937F938F939F93A2
:100E8000AF93BF93EF93FF9360915E0170915F0109
:100E90002091840030918500CB01AA2797FDA09571
:100EA000BA2FDC019927882740E050E0822B932B52
:100EB000A42BB52B80935A0190935B01A0935C0106
:100EC000B0935D01B09B1CC02091840030918500DF
:100ED0006F5F7F4FCB01AA2797FDA095BA2FDC014A
:100EE0009927882740E050E0822B932BA42BB52B29
:100EF00080935A0190935B01A0935C01B0935D01D4
:100F0000E0910E02F0910F02309739F06BE070E043
:100F1000809176019091770109950E946A03FF9173
:100F2000EF91BF91AF919F918F917F916F915F9161
:100F30004F913F912F910F900FBE0F901F901895DA
:100F40001F920F920FB60F9211242F933F934F933E
:100F50005F936F937F938F939F93AF93BF93EF9321
:100F6000FF9360915E0170915F0120918400309148
:100F70008500CB01AA2797FDA095BA2FDC01992700
:100F8000882740E050E0822B932BA42BB52B809335
:100F90005A0190935B01A0935C01B0935D01B09BFB
:100FA0001CC020918400309185006F5F7F4FCB0182
:100FB000AA2797FDA095BA2FDC019927882740E042
:100FC00050E0822B932BA42BB52B80935A01909346
:100FD0005B01A0935C01B0935D01E0910C02F09184
:100FE0000D02309739F06AE070E0809174019091C1
:100FF000750109950E946A03FF91EF91BF91AF912E
:101000009F918F917F916F915F914F913F912F9120
:101010000F900FBE0F901F9018951F920F920FB652
:101020000F9211242F933F934F935F936F937F936E
:101030008F939F93AF93BF93EF93FF9360915E0164
:1010400070915F012091840030918500CB01AA2727
:1010500097FDA095BA2FDC019927882740E050E042
:10106000822B932BA42BB52B80935A0190935B0179
:10107000A0935C01B0935D01B09B1CC020918400E3
:10108000309185006F5F7F4FCB01AA2797FDA09518
:10109000BA2FDC019927882740E050E0822B932B60
:1010A000A42BB52B80935A0190935B01A0935C0114
:1010B000B0935D01E0910A02F0910B02309739F094
:1010C00069E070E0809172019091730109950E942E
:1010D0006A03FF91EF91BF91AF919F918F917F91A3
:1010E0006F915F914F913F912F910F900FBE0F9095
:1010F0001F9018951F920F920FB60F9211242F93E5
:101100003F934F935F936F937F938F939F93AF938F
:10111000BF93EF93FF9360915E0170915F01209107
:10112000840030918500CB01AA2797FDA095BA2FA6
:10113000DC019927882740E050E0822B932BA42BD9
:10114000B52B80935A0190935B01A0935C01B093FF
:101150005D01B09B1CC020918400309185006F5FC1
:101160007F4FCB01AA2797FDA095BA2FDC019927C5
:10117000882740E050E0822B932BA42BB52B809343
:101180005A0190935B01A0935C01B0935D01E091E3
:101190000802F0910902309739F068E070E0809120
:1011A00070019091710109950E946A03FF91EF917E
:1011B000BF91AF919F918F917F916F915F914F916F
:1011C0003F912F910F900FBE0F901F9018951F9277
:1011D0000F920FB60F9211242F933F934F935F936B
:1011E0006F937F938F939F93AF93BF93EF93FF93EF
:1011F00060915E0170915F012091840030918500C3
:10120000CB01AA2797FDA095BA2FDC019927882743
:1012100040E050E0822B932BA42BB52B80935A01F6
:1012200090935B01A0935C01B0935D01B09B1CC0E7
:1012300020918400309185006F5F7F4FCB01AA27FA
:1012400097FDA095BA2FDC019927882740E050E050
:10125000822B932BA42BB52B80935A0190935B0187
:10126000A0935C01B0935D01E0910602F09107024A
:10127000309739F067E070E080916E0190916F01D6
:1012800009950E946A03FF91EF91BF91AF919F91E1
:101290008F917F916F915F914F913F912F910F901F
:1012A0000FBE0F901F9018951F920F920FB60F92BE
:1012B00011242F933F934F935F936F937F938F935B
:1012C0009F93AF93BF93EF93FF9360915E017091F3
:1012D0005F012091840030918500CB01AA2797FD02
:1012E000A095BA2FDC019927882740E050E0822B97
:1012F000932BA42BB52B80935A0190935B01A09361
:101300005C01B0935D01B09B1CC0209184003091C2
:1013100085006F5F7F4FCB01AA2797FDA095BA2F5D
:10132000DC019927882740E050E0822B932BA42BE7
:10133000B52B80935A0190935B01A0935C01B0930D
:101340005D01E0910402F0910502309739F066E00A
:1013500070E080916C0190916D0109950E946A0383
:10136000FF91EF91BF91AF919F918F917F916F917D
:101370005F914F913F912F910F900FBE0F901F9053
:1013800018951F920F920FB60F9211242F933F932F
:101390004F935F936F937F938F939F93AF93BF937D
:1013A000EF93FF9360915E0170915F012091840043
:1013B00030918500CB01AA2797FDA095BA2FDC01BB
:1013C0009927882740E050E0822B932BA42BB52B44
:1013D00080935A0190935B01A0935C01B0935D01EF
:1013E000B09B1CC020918400309185006F5F7F4FBF
:1013F000CB01AA2797FDA095BA2FDC019927882752
:1014000040E050E0822B932BA42BB52B80935A0104
:1014100090935B01A0935C01B0935D01E0910202A7
:10142000F0910302309739F065E070E080916A0135
:1014300090916B0109950E946A03FF91EF91BF9112
:10144000AF919F918F917F916F915F914F913F915C
:101450002F910F900FBE0F901F9018951F920F9213
:101460000FB60F9211242F933F934F935F936F9377
:101470007F938F939F93AF93BF93EF93FF9360916D
:101480005E0170915F012091840030918500CB0155
:10149000AA2797FDA095BA2FDC019927882740E05D
:1014A00050E0822B932BA42BB52B80935A01909361
:1014B0005B01A0935C01B0935D01B09B1CC02091C7
:1014C0008400309185006F5F7F4FCB01AA2797FD85
:1014D000A095BA2FDC019927882740E050E0822BA5
:1014E000932BA42BB52B80935A0190935B01A0936F
:1014F0005C01B0935D01E0910002F0910102309730
:1015000039F064E070E0809168019091690109957B
:101510000E946A03FF91EF91BF91AF919F918F91CC
:101520007F916F915F914F913F912F910F900FBEDF
:101530000F901F9018951F920F920FB60F921124C3
:101540002F933F934F935F936F937F938F939F93CB
:10155000AF93BF93EF93FF9360915E0170915F0132
:101560002091840030918500CB01AA2797FDA0959A
:10157000BA2FDC019927882740E050E0822B932B7B
:10158000A42BB52B80935A0190935B01A0935C012F
:10159000B0935D01B09B1CC0209184003091850008
:1015A0006F5F7F4FCB01AA2797FDA095BA2FDC0173
:1015B0009927882740E050E0822B932BA42BB52B52
:1015C00080935A0190935B01A0935C01B0935D01FD
:1015D000E091FE01F091FF01309739F063E070E097
:1015E000809166019091670109950E946A03FF91BD
:1015F000EF91BF91AF919F918F917F916F915F918B
:101600004F913F912F910F900FBE0F901F90189503
:101610001F920F920FB60F9211242F933F934F9367
:101620005F936F937F938F939F93AF93BF93EF934A
:10163000FF9360915E0170915F0120918400309171
:101640008500CB01AA2797FDA095BA2FDC01992729
:10165000882740E050E0822B932BA42BB52B80935E
:101660005A0190935B01A0935C01B0935D01B09B24
:101670001CC020918400309185006F5F7F4FCB01AB
:10168000AA2797FDA095BA2FDC019927882740E06B
:1016900050E0822B932BA42BB52B80935A0190936F
:1016A0005B01A0935C01B0935D01E091FC01F091BE
:1016B000FD01309739F062E070E080916401909113
:1016C000650109950E946A03FF91EF91BF91AF9167
:1016D0009F918F917F916F915F914F913F912F914A
:1016E0000F900FBE0F901F9018951F920F920FB67C
:1016F0000F9211242F933F934F935F936F937F9398
:101700008F939F93AF93BF93EF93FF9360915E018D
:1017100070915F012091840030918500CB01AA2750
:1017200097FDA095BA2FDC019927882740E050E06B
:10173000822B932BA42BB52B80935A0190935B01A2
:10174000A0935C01B0935D01B09B1CC0209184000C
:10175000309185006F5F7F4FCB01AA2797FDA09541
:10176000BA2FDC019927882740E050E0822B932B89
:10177000A42BB52B80935A0190935B01A0935C013D
:10178000B0935D01E091FA01F091FB01309739F0DF
:1017900061E070E0809162019091630109950E947F
:1017A0006A03FF91EF91BF91AF919F918F917F91CC
:1017B0006F915F914F913F912F910F900FBE0F90BE
:1017C0001F9018951F920F920FB60F9211242F930E
:1017D0003F934F935F936F937F938F939F93AF93B9
:1017E000BF93EF93FF9360915E0170915F01209131
:1017F000840030918500CB01AA2797FDA095BA2FD0
:10180000DC019927882740E050E0822B932BA42B02
:10181000B52B80935A0190935B01A0935C01B09328
:101820005D01B09B1CC020918400309185006F5FEA
:101830007F4FCB01AA2797FDA095BA2FDC019927EE
:10184000882740E050E0822B932BA42BB52B80936C
:101850005A0190935B01A0935C01B0935D01E0910C
:10186000F801F091F901309739F060E070E0809173
:1018700060019091610109950E946A03FF91EF91C7
:10188000BF91AF919F918F917F916F915F914F9198
:101890003F912F910F900FBE0F901F901895CF92F0
:1018A000DF92FF920F931F93CF93DF93EC016B01B5
:1018B0008A01FFB680E8F822F89488819981009720
:1018C00019F433C080819181DC011496ED91FC9173
:1018D00015973097B9F7A0913B01B0913C018A1759
:1018E0009B0721F0FF2009F446C005C0FF2009F442
:1018F00042C0789440C0EA81FB81309711F0158294
:101900001482BB83AA831596DC93CE9314970E940E
:101910004A03E0913B01F0913C0182819381892B44
:1019200021F4789400E010E028C080913B01909170
:101930003C0199838883FF2029F08A819B8101974C
:1019400009F07894B801CE01F60109958C018FB7A2
:10195000F89419821882EA81FB81E230F10538F0AF
:101960001B821A8215821482CF010E944A03FF2033
:1019700021F0789402C00FEF1FEFC801DF91CF91E3
:101980001F910F91FF90DF90CF900895CF93DF9339
:10199000E0913B01F0913C01C0915601D09157017B
:1019A000209769F18881998190935701809356011E
:1019B000D383C28378944E855F856C857D858A85C7
:1019C0009B850E944F0C8FB7F894809135019091C0
:1019D000360199838883D0933601C0933501609195
:1019E000390170913A01FB01C081D1812A813B818B
:1019F000E0915601F0915701309761F422C08FEFCA
:101A00008093EC008093ED008093EE0081E083BF33
:101A10008895FDCF2115310509F4BACF86819781CC
:101A2000A085B185F9012681378140855185821BCA
:101A3000930BA40BB50B181619061A061B060CF00F
:101A4000A7CFD0933A01C09339018091370190918B
:101A50003801FB01918380837093380160933701D3
:101A600002C0C081D181EC81FD813097D1F7CE01D8
:101A70000E944A038DCF3F924F925F926F927F9266
:101A80008F929F92AF92BF92CF92DF92EF92FF928E
:101A90000F931F93CF93DF932B013C0149015A0110
:101AA00098018FB7F8940091350110913601011516
:101AB0001105D1F070E8372E3822D8018D919C9114
:101AC000119790933601809335011B963C932E938A
:101AD0001A971D96FC92EE921C971F96DC92CE925E
:101AE0001E97332061F417C08FEF8093EC00809332
:101AF000ED008093EE0081E083BF8895FDCFE091FB
:101B00003B01F0913C010280F381E02D6281738101
:101B10008481958108C060915A0170915B01809128
:101B20005C0190915D019B01AC01240D351D461DAA
:101B3000571DF801228333834483558318141904F5
:101B40001A041B0444F06FEF862E6FEF962E6FEF92
:101B5000A62E6FE7B62E34014501620E731E841E59
:101B6000951ED80116966D927D928D929C92199732
:101B7000E0905E01F0905F01E0918400F0918500BB
:101B8000B0990AC0C701AA2797FDA095BA2FAC014A
:101B900033272227CF0112C08091840090918500C5
:101BA0000894E11CF11C9701442737FD4095542F00
:101BB0000894E108F108A90133272227A0E0B0E04A
:101BC000282B392B4A2B5B2BF801A280B380C480D1
:101BD000D580D601C501821B930BA40BB50B18163B
:101BE00019061A061B060CF056C0E0915801F09138
:101BF0005901C0E0D0E005C0EF01808191819C01D6
:101C0000F901309749F082819381A481B581A816AA
:101C1000B906CA06DB0684F7D801ED93FC9320973A
:101C200029F4109359010093580102C019830883C5
:101C3000E0915801F0915901309721F122813381CF
:101C400044815581CA01BB2797FDB095AB2FE8169B
:101C5000F906C1F48091840090918500809590955B
:101C6000820F931F892B31F42091840030918500DD
:101C70002F5F3F4F309389002093880080916F0041
:101C8000826003C080916F008D7F80936F0033204E
:101C900009F057C057C0E0915601F0915701C0E0DC
:101CA000D0E005C0EF01808191819C01F90130975E
:101CB00049F086819781A085B185681679068A06E4
:101CC0009B0684F7D801ED93FC93209729F4109399
:101CD00057010093560102C019830883332091F104
:101CE000C0913701D0913801209759F160913901A5
:101CF00070913A01E0915601F0915701DB01129683
:101D00002D913C91139786819781A085B185F9012A
:101D10002681378140855185821B930BA40BB50B1F
:101D2000B7FF0FC088819981909338018093370164
:101D300079836883D0933A01C0933901CE010E9420
:101D40004A037894C801DF91CF911F910F91FF90C2
:101D5000EF90DF90CF90BF90AF909F908F907F904B
:101D60006F905F904F903F900895FB01CB016AE028
:101D700070E00E9485118230910509F482C08330A1
:101D8000910534F4009781F0019709F053C141C0E7
:101D90008430910509F4E2C0843091050CF4A6C0AA
:101DA000059709F047C10FC14091EC00CF016AE0EF
:101DB00070E00E948511FB01EE0FFF1FE35CFE4FF8
:101DC00020813181832F82958F70407F482B4093F3
:101DD000EC004091F100832F992787FD9A958F7031
:101DE000407F842B8093F1004091F600C901E4E02C
:101DF00095958795EA95E1F78F70407F842B8093C6
:101E0000F6008091FB002F70807F282B2093FB0031
:101E100008952091EC00CF016AE070E00E948511E6
:101E2000FB01EE0FFF1FE35CFE4F40815181852FC8
:101E3000992787FD9A95807F2F70822B8093EC00E5
:101E40002091F100CA0134E0959587953A95E1F724
:101E5000807F2F70822B8093F1008091F600942F69
:101E6000907F8F70982B9093F6008091FB00B4E0E8
:101E7000440F551FBA95E1F78F70842B8093FB00B8
:101E800008954091ED00CF016AE070E00E94851155
:101E9000FB01EE0FFF1FE35CFE4F20813181832F9A
:101EA00082958F70407F482B4093ED004091F20067
:101EB000832F992787FD9A958F70407F842B80937D
:101EC000F2004091F700C901E4E095958795EA9505
:101ED000E1F78F70407F842B8093F7008091FC00A6
:101EE0002F70807F282B2093FC0008952091ED0017
:101EF000CF016AE070E00E948511FB01EE0FFF1F29
:101F0000E35CFE4F40815181852F992787FD9A958B
:101F1000807F2F70822B8093ED002091F200CA0108
:101F200034E0959587953A95E1F7807F2F70822B65
:101F30008093F2008091F700942F907F8F70982B00
:101F40009093F7008091FC00B4E0440F551FBA95C0
:101F5000E1F78F70842B8093FC0008954091EE0090
:101F6000CF016AE070E00E948511FB01EE0FFF1FB8
:101F7000E35CFE4F20813181832F82958F70407FFB
:101F8000482B4093EE004091F300832F992787FD63
:101F90009A958F70407F842B8093F3004091F800D6
:101FA000C901E4E095958795EA95E1F78F70407F48
:101FB000842B8093F8008091FD002F70807F282B68
:101FC0002093FD0008952091EE00CF016AE070E0BB
:101FD0000E948511FB01EE0FFF1FE35CFE4F408165
:101FE0005181852F992787FD9A95807F2F70822BAD
:101FF0008093EE002091F300CA0134E09595879517
:102000003A95E1F7807F2F70822B8093F3008091C7
:10201000F800942F907F8F70982B9093F800809108
:10202000FD0094E0440F551F9A95E1F78F70842BC3
:102030008093FD000895AF92BF92DF92EF92FF92DE
:102040000F931F93DF93CF9300D000D000D0CDB774
:10205000DEB75C01162F472F8091EC0086768093C7
:10206000EC008091ED0086768093ED008091EE008B
:1020700086768093EE001092F1001092F20010929A
:10208000F3001092F6001092F7001092F8001092F0
:10209000FB001092FC001092FD00262F372FC90183
:1020A00001E001C00F5F6AE070E00E948511CB0182
:1020B00061157105B9F7073008F006E0302F25E00B
:1020C0007E010894E11CF11C14C0F701E20FF11D20
:1020D000812F942F6AE070E00E9485118083812F08
:1020E000942F6AE070E00E948511162F472F21502F
:1020F0003150332351F715E07E010894E11CF11CA7
:10210000BAE0DB2E10C0812F90E0F701E80FF91F35
:1021100060816D9DB0011124680F791FC5010E9477
:10212000B50E11500150002371F726960FB6F894A2
:10213000DEBF0FBECDBFCF91DF911F910F91FF90FA
:10214000EF90DF90BF90AF90089565307105C1F1B9
:102150006630710594F46230710521F163307105C8
:102160002CF46130710509F040C018C0633071056E
:10217000F9F064307105C9F51FC06830710531F19F
:102180006930710524F46730710579F51FC0693035
:10219000710501F16A30710541F522C08091EC00B2
:1021A000846003C08091EC0080648093EC0008950B
:1021B00081E08093EF0008958091ED00826003C07C
:1021C0008091ED0080628093ED00089581E080931E
:1021D000FE0008958091EE0084608093EE000895E3
:1021E0008091EE0080648093EE0008956530710563
:1021F000B1F1663071058CF46230710519F163300C
:10220000710524F461307105F1F518C06330710572
:10221000F9F064307105B9F51EC06830710529F117
:102220006930710524F46730710569F51EC06930A5
:102230007105F1F06A30710531F520C08091EC0034
:102240008B7F03C08091EC008F7B8093EC0008951E
:102250001092EF0008958091ED008D7F03C0809172
:10226000ED008F7D8093ED0008951092FE0008959B
:102270008091EE008B7F8093EE0008958091EE00B8
:102280008F7B8093EE000895DC012D923D924D925C
:102290005D926D927D928D929D92AD92BD92CD9206
:1022A000DD92ED92FD920D931D93CD93DD93FF9101
:1022B000EF918DB78D938EB78D938FB78D93ED93EF
:1022C000FD93882799270994DC01CB018130910582
:1022D000811D2D903D904D905D906D907D908D90E5
:1022E0009D90AD90BD90CD90DD90ED90FD900D91C5
:1022F0001D91CD91DD91ED91FD910D90F894FEBF72
:102300000FBEEDBFED91FD91099497FB092E0726B5
:102310000AD077FD04D00CD006D000201AF47095B6
:1023200061957F4F0895F6F7909581959F4F089599
:10233000AA1BBB1B51E107C0AA1FBB1FA617B707EB
:1023400010F0A61BB70B881F991F5A95A9F7809507
:0C2350009095BC01CD010895F894FFCFDA
:10235C000A0D54696E7954696D626572200076328B
:10236C002E30312028323031322D30312D3234297B
:10237C00000A0D00303132333435363738394142AA
:10238C004344454600390284011C021C02511510BD
:10239C0081E111B111B005B114F1141011F115B1A5
:0223AC0015001A
:00000001FF
