:100000000C942E000C94DD0B0C94700B0C94030BD1
:100010000C94960A0C94290A0C944B000C94FC0343
:100020000C944B000C9458010C94BC090C944F098F
:100030000C94E2080C9475080C9408080C949B0727
:100040000C942E070C94C1060C9454060C94E705EE
:100050000C947A050C940D050C94A00411241FBE79
:10006000CFEFD4E0DEBFCDBF11E0A0E0B1E0E6E924
:10007000FDE202C005900D92AE38B107D9F714E049
:10008000AEE8B1E001C01D92A73EB107E1F70E94C2
:100090006A000C94C9160C940000E2E1F1E002C081
:1000A0006F5F7F4F81919191892BD1F7E2E1F1E070
:1000B00041E050E00BC08281938120813181820F29
:1000C000931F938382834F5F5F4F32964617570784
:1000D00094F30895259A80910001909101019093E5
:1000E0002B0180932A010E944D0086E391E06EE788
:1000F00070E040E050E00E94DF030895CF92DF926D
:10010000EF92FF920F931F93FC010481158160E031
:1001100070E080E090E020E030E040E050E0E2EE8F
:10012000EE2EE3E1FE2ECC24DD240E94290D1F914A
:100130000F91FF90EF90DF90CF900895FC0101C0E8
:10014000319680818823E1F7089524E0969587957C
:100150002A95E1F70097C9F7089508950895CF9279
:10016000DF92EF92FF920F931F93CF93DF938C0157
:10017000DB01ED91FC91C0E0D0E005C0EF01808192
:1001800091819C01F901309781F02681378140856A
:100190005185D8011696CD90DD90ED90FC90199781
:1001A000C216D306E406F5064CF7D801ED93FC938E
:1001B000209721F4FB011183008302C01983088377
:1001C000DF91CF911F910F91FF90EF90DF90CF9033
:1001D0000895CF92DF92EF92FF920F931F93CF93E8
:1001E000DF938C01DB01ED91FC91C0E0D0E005C014
:1001F000EF01808191819C01F901309781F022818A
:10020000338144815581D8011296CD90DD90ED90D7
:10021000FC901597C216D306E406F5064CF7D801F4
:10022000ED93FC93209721F4FB011183008302C01E
:1002300019830883DF91CF911F910F91FF90EF9069
:10024000DF90CF900895DC01ED91FC9111973097EC
:1002500031F0808191818D939C93CF0108958FEF30
:100260008093EC008093ED008093EE0081E083BFEB
:100270008895FDCFDC01FB018081918111969C93D3
:100280008E93B183A0830895DC01FB01808191816D
:1002900011969C938E93B183A0830895FC01A08155
:1002A000B1818D919C91119791838083CD010895A7
:1002B0001F920F920FB60F9211242F933F934F93DB
:1002C0005F936F937F938F939F93AF93BF93EF93BE
:1002D000FF9360919A0170919B016F5F7F4F7093C4
:1002E0009B0160939A01E0919401F0919501309700
:1002F00021F12281338144815581CA01BB2797FDB9
:10030000B095AB2F68177907C1F480918400909164
:10031000850080959095820F931F892B31F4209151
:100320008400309185002F5F3F4F309389002093E8
:10033000880080916F00826003C080916F008D7F84
:1003400080936F00FF91EF91BF91AF919F918F913B
:100350007F916F915F914F913F912F910F900FBEC1
:100360000F901F901895DC016FB7F89420919401BD
:1003700030919501E0E0F0E004C0F90180819181C5
:100380009C012115310569F02A173B07B1F78D91C2
:100390009C9111973097D9F4909395018093940193
:1003A0003AC02091920130919301E0E0F0E004C066
:1003B000F901808191819C012115310581F02A1775
:1003C0003B07B1F78D919C911197309719F091836C
:1003D000808321C090939301809392011CC0E0918F
:1003E0007501F0917601409177015091780122C01A
:1003F000E417F507E1F0828193818A179B07B9F42E
:10040000248135811A968D919C911B972817390765
:1004100071F4138212828091710190917201119690
:100420009C938E93B0937201A093710105C00190CB
:10043000F081E02D3097E1F667FF01C078940895D0
:10044000CF93DF93EC010FB607FE0CC0E09177016C
:10045000F09178010280F381E02D82819381A48163
:10046000B58108C08091960190919701A091980163
:10047000B091990188839983AA83BB83DF91CF913F
:100480000895DC010FB607FE0CC0E0917701F091F2
:1004900078010280F381E02D2281338144815581EE
:1004A00008C0209196013091970140919801509198
:1004B00099018D919D910D90BC91A02D281B390B18
:1004C0004A0B5B0BB901CA010895EF92FF920F939B
:1004D0001F936FB7F89440919A0150919B0120911E
:1004E000840030918500B09910C0CA01AA2797FDF9
:1004F000A095BA2F8C01FF24EE24C901A0E0B0E042
:10050000E82AF92A0A2B1B2B14C020918400309171
:1005100085004F5F5F4FCA01AA2797FDA095BA2FAC
:100520008C01FF24EE2440E050E0E22AF32A042B61
:10053000152B67FF0DC07894E0917701F091780159
:100540000280F381E02D82819381A481B58108C06E
:100550008091960190919701A0919801B091990195
:10056000A8019701281B390B4A0B5B0BB901CA0183
:100570001F910F91FF90EF900895CF93DF93EC01BF
:100580004231B0F42FB7F894E42FF0E0EE0FFF1FE4
:10059000DF01A456BE4FCD93DC93EC5CFD4F71831D
:1005A000608381E090E09B838A8327FF01C0789479
:1005B000DF91CF910895DF93CF9300D000D000D08A
:1005C000CDB7DEB785E892E025E633E0FC01709711
:1005D00091838083409682179307C1F71092560348
:1005E000109255038DED91E09093C1018093C0016D
:1005F0004D969093DE018093DD01CA9727E132E0AA
:100600003093FB012093FA01109218021092170206
:1006100021EC33E03C832B83AC014C5F5F4F5A836A
:1006200049831E821D82AD81BE81EDE1F0E0AE9F67
:10063000C001AF9F900DBE9F900D1124069680546F
:100640009E4F0E9488162D813E814DE150E0249FEF
:10065000F001259FF00D349FF00D11243696E054E3
:10066000FE4F8B819C81918B808B938B828BA1EC35
:10067000BCE0B68BA58BE981FA81118210822F5FD5
:100680003F4F3E832D83805A9F4F9C838B837D9663
:10069000FA83E9832430310531F610925902109221
:1006A000580210925D0210925C0210925B0210924E
:1006B0005A02ECE3F1E001C0319680818823E1F732
:1006C000EAE4F1E001C0319680818823E1F7EDE5AD
:1006D000F1E001C0319680818823E1F7E1E6F0E0A6
:1006E00080E880831082109285001092840084E05C
:1006F0008093810081E080936F0026960FB6F89476
:10070000DEBF0FBECDBFCF91DF910895DF93CF93B2
:1007100000D0CDB7DEB79A8389838091770190911D
:10072000780106960E948816892B59F489819A814E
:100730009093780180937701069661E070E00E94C3
:10074000A8160F900F90CF91DF910895CF93DF936C
:100750006091750170917601FB01C281D381A091F6
:100760009201B0919301109739F1E0917301F091EA
:100770007401309709F1209781F016968D919D9123
:100780000D90BC91A02D2E813F8148855985821BFB
:10079000930BA40BB50BB7FF0FC080819181909391
:1007A00074018093730171836083F0937601E09309
:1007B0007501CF010E948603DF91CF910895EF92DA
:1007C000FF920F931F93CF93DF937C01EB018A017C
:1007D0008FB7F8940E94DB027894209721F0C7012C
:1007E000B801FE0109958FB7F8940E94A60378948A
:1007F00081E083BF8895FDCF1F920F920FB60F92B5
:100800001124EF92FF920F931F932F933F934F93D7
:100810005F936F937F938F939F93AF93BF93EF9368
:10082000FF9340919A0150919B0120918400309157
:100830008500B09910C0CA01AA2797FDA095BA2FCC
:100840008C01FF24EE24C901A0E0B0E0E82AF92AD7
:100850000A2B1B2B1DC020918400309185004F5F17
:100860005F4FCA01AA2797FDA095BA2F8C01FF24DC
:10087000EE2440E050E0E22AF32A042B152B08C0B6
:1008800084E991E00E94230162E971E00E94AF00D7
:10089000E0919401F0919501309749F142815381A3
:1008A00064817581DB01CA018E199F09A00BB10B10
:1008B000181619061A061B061CF735C09A018091F6
:1008C00084009091850080959095840F951F892BC9
:1008D00031F420918400309185002F5F3F4F309399
:1008E00089002093880080916F00826003C080910E
:1008F0006F008D7F80936F000E94A603FF91EF91A0
:10090000BF91AF919F918F917F916F915F914F9127
:100910003F912F911F910F91FF90EF900F900FBE7D
:100920000F901F901895CB01BB2797FDB095AB2F6B
:1009300020919A0130919B0128173907C1F6BECF4B
:100940001F920F920FB60F9211242F933F934F9344
:100950005F936F937F938F939F93AF93BF93EF9327
:10096000FF9360919A0170919B01209184003091D6
:100970008500CB01AA2797FDA095BA2FDC01992706
:10098000882740E050E0822B932BA42BB52B80933B
:10099000960190939701A0939801B0939901B09B11
:1009A0001CC020918400309185006F5F7F4FCB0188
:1009B000AA2797FDA095BA2FDC019927882740E048
:1009C00050E0822B932BA42BB52B80939601909310
:1009D0009701A0939801B0939901E0915602F0918C
:1009E0005702309739F08091BE019091BF0161E1CB
:1009F00070E009950E94A603FF91EF91BF91AF911E
:100A00009F918F917F916F915F914F913F912F9126
:100A10000F900FBE0F901F9018951F920F920FB658
:100A20000F9211242F933F934F935F936F937F9374
:100A30008F939F93AF93BF93EF93FF9360919A012E
:100A400070919B012091840030918500CB01AA27F1
:100A500097FDA095BA2FDC019927882740E050E048
:100A6000822B932BA42BB52B809396019093970107
:100A7000A0939801B0939901B09B1CC02091840071
:100A8000309185006F5F7F4FCB01AA2797FDA0951E
:100A9000BA2FDC019927882740E050E0822B932B66
:100AA000A42BB52B8093960190939701A093980166
:100AB000B0939901E0915402F0915502309739F0CA
:100AC0008091BC019091BD0160E170E009950E94A8
:100AD000A603FF91EF91BF91AF919F918F917F916D
:100AE0006F915F914F913F912F910F900FBE0F909B
:100AF0001F9018951F920F920FB60F9211242F93EB
:100B00003F934F935F936F937F938F939F93AF9395
:100B1000BF93EF93FF9360919A0170919B01209195
:100B2000840030918500CB01AA2797FDA095BA2FAC
:100B3000DC019927882740E050E0822B932BA42BDF
:100B4000B52B8093960190939701A0939801B09351
:100B50009901B09B1CC020918400309185006F5F8B
:100B60007F4FCB01AA2797FDA095BA2FDC019927CB
:100B7000882740E050E0822B932BA42BB52B809349
:100B8000960190939701A0939801B0939901E091F9
:100B90005202F0915302309739F08091BA0190914E
:100BA000BB016FE070E009950E94A603FF91EF91F1
:100BB000BF91AF919F918F917F916F915F914F9175
:100BC0003F912F910F900FBE0F901F9018951F927D
:100BD0000F920FB60F9211242F933F934F935F9371
:100BE0006F937F938F939F93AF93BF93EF93FF93F5
:100BF00060919A0170919B01209184003091850051
:100C0000CB01AA2797FDA095BA2FDC019927882749
:100C100040E050E0822B932BA42BB52B80939601C0
:100C200090939701A0939801B0939901B09B1CC039
:100C300020918400309185006F5F7F4FCB01AA2700
:100C400097FDA095BA2FDC019927882740E050E056
:100C5000822B932BA42BB52B809396019093970115
:100C6000A0939801B0939901E0915002F091510244
:100C7000309739F08091B8019091B9016EE070E041
:100C800009950E94A603FF91EF91BF91AF919F91AB
:100C90008F917F916F915F914F913F912F910F9025
:100CA0000FBE0F901F9018951F920F920FB60F92C4
:100CB00011242F933F934F935F936F937F938F9361
:100CC0009F93AF93BF93EF93FF9360919A017091BD
:100CD0009B012091840030918500CB01AA2797FDCC
:100CE000A095BA2FDC019927882740E050E0822B9D
:100CF000932BA42BB52B8093960190939701A093EF
:100D00009801B0939901B09B1CC020918400309150
:100D100085006F5F7F4FCB01AA2797FDA095BA2F63
:100D2000DC019927882740E050E0822B932BA42BED
:100D3000B52B8093960190939701A0939801B0935F
:100D40009901E0914E02F0914F02309739F0809175
:100D5000B6019091B7016DE070E009950E94A6037D
:100D6000FF91EF91BF91AF919F918F917F916F9183
:100D70005F914F913F912F910F900FBE0F901F9059
:100D800018951F920F920FB60F9211242F933F9335
:100D90004F935F936F937F938F939F93AF93BF9383
:100DA000EF93FF9360919A0170919B0120918400D1
:100DB00030918500CB01AA2797FDA095BA2FDC01C1
:100DC0009927882740E050E0822B932BA42BB52B4A
:100DD0008093960190939701A0939801B093990105
:100DE000B09B1CC020918400309185006F5F7F4FC5
:100DF000CB01AA2797FDA095BA2FDC019927882758
:100E000040E050E0822B932BA42BB52B80939601CE
:100E100090939701A0939801B0939901E0914C02AF
:100E2000F0914D02309739F08091B4019091B50165
:100E30006CE070E009950E94A603FF91EF91BF91CD
:100E4000AF919F918F917F916F915F914F913F9162
:100E50002F910F900FBE0F901F9018951F920F9219
:100E60000FB60F9211242F933F934F935F936F937D
:100E70007F938F939F93AF93BF93EF93FF93609173
:100E80009A0170919B012091840030918500CB01E3
:100E9000AA2797FDA095BA2FDC019927882740E063
:100EA00050E0822B932BA42BB52B8093960190932B
:100EB0009701A0939801B0939901B09B1CC0209119
:100EC0008400309185006F5F7F4FCB01AA2797FD8B
:100ED000A095BA2FDC019927882740E050E0822BAB
:100EE000932BA42BB52B8093960190939701A093FD
:100EF0009801B0939901E0914A02F0914B0230972A
:100F000039F08091B2019091B3016BE070E00995E6
:100F10000E94A603FF91EF91BF91AF919F918F9196
:100F20007F916F915F914F913F912F910F900FBEE5
:100F30000F901F9018951F920F920FB60F921124C9
:100F40002F933F934F935F936F937F938F939F93D1
:100F5000AF93BF93EF93FF9360919A0170919B01C0
:100F60002091840030918500CB01AA2797FDA095A0
:100F7000BA2FDC019927882740E050E0822B932B81
:100F8000A42BB52B8093960190939701A093980181
:100F9000B0939901B09B1CC02091840030918500D2
:100FA0006F5F7F4FCB01AA2797FDA095BA2FDC0179
:100FB0009927882740E050E0822B932BA42BB52B58
:100FC0008093960190939701A0939801B093990113
:100FD000E0914802F0914902309739F08091B001D8
:100FE0009091B1016AE070E009950E94A603FF911B
:100FF000EF91BF91AF919F918F917F916F915F9191
:101000004F913F912F910F900FBE0F901F90189509
:101010001F920F920FB60F9211242F933F934F936D
:101020005F936F937F938F939F93AF93BF93EF9350
:10103000FF9360919A0170919B01209184003091FF
:101040008500CB01AA2797FDA095BA2FDC0199272F
:10105000882740E050E0822B932BA42BB52B809364
:10106000960190939701A0939801B0939901B09B3A
:101070001CC020918400309185006F5F7F4FCB01B1
:10108000AA2797FDA095BA2FDC019927882740E071
:1010900050E0822B932BA42BB52B80939601909339
:1010A0009701A0939801B0939901E0914602F091C5
:1010B0004702309739F08091AE019091AF0169E01D
:1010C00070E009950E94A603FF91EF91BF91AF9147
:1010D0009F918F917F916F915F914F913F912F9150
:1010E0000F900FBE0F901F9018951F920F920FB682
:1010F0000F9211242F933F934F935F936F937F939E
:101100008F939F93AF93BF93EF93FF9360919A0157
:1011100070919B012091840030918500CB01AA271A
:1011200097FDA095BA2FDC019927882740E050E071
:10113000822B932BA42BB52B809396019093970130
:10114000A0939801B0939901B09B1CC0209184009A
:10115000309185006F5F7F4FCB01AA2797FDA09547
:10116000BA2FDC019927882740E050E0822B932B8F
:10117000A42BB52B8093960190939701A09398018F
:10118000B0939901E0914402F0914502309739F013
:101190008091AC019091AD0168E070E009950E94EA
:1011A000A603FF91EF91BF91AF919F918F917F9196
:1011B0006F915F914F913F912F910F900FBE0F90C4
:1011C0001F9018951F920F920FB60F9211242F9314
:1011D0003F934F935F936F937F938F939F93AF93BF
:1011E000BF93EF93FF9360919A0170919B012091BF
:1011F000840030918500CB01AA2797FDA095BA2FD6
:10120000DC019927882740E050E0822B932BA42B08
:10121000B52B8093960190939701A0939801B0937A
:101220009901B09B1CC020918400309185006F5FB4
:101230007F4FCB01AA2797FDA095BA2FDC019927F4
:10124000882740E050E0822B932BA42BB52B809372
:10125000960190939701A0939801B0939901E09122
:101260004202F0914302309739F08091AA019091A7
:10127000AB0167E070E009950E94A603FF91EF9132
:10128000BF91AF919F918F917F916F915F914F919E
:101290003F912F910F900FBE0F901F9018951F92A6
:1012A0000F920FB60F9211242F933F934F935F939A
:1012B0006F937F938F939F93AF93BF93EF93FF931E
:1012C00060919A0170919B0120918400309185007A
:1012D000CB01AA2797FDA095BA2FDC019927882773
:1012E00040E050E0822B932BA42BB52B80939601EA
:1012F00090939701A0939801B0939901B09B1CC063
:1013000020918400309185006F5F7F4FCB01AA2729
:1013100097FDA095BA2FDC019927882740E050E07F
:10132000822B932BA42BB52B80939601909397013E
:10133000A0939801B0939901E0914002F09141028D
:10134000309739F08091A8019091A90166E070E092
:1013500009950E94A603FF91EF91BF91AF919F91D4
:101360008F917F916F915F914F913F912F910F904E
:101370000FBE0F901F9018951F920F920FB60F92ED
:1013800011242F933F934F935F936F937F938F938A
:101390009F93AF93BF93EF93FF9360919A017091E6
:1013A0009B012091840030918500CB01AA2797FDF5
:1013B000A095BA2FDC019927882740E050E0822BC6
:1013C000932BA42BB52B8093960190939701A09318
:1013D0009801B0939901B09B1CC02091840030917A
:1013E00085006F5F7F4FCB01AA2797FDA095BA2F8D
:1013F000DC019927882740E050E0822B932BA42B17
:10140000B52B8093960190939701A0939801B09388
:101410009901E0913E02F0913F02309739F08091BE
:10142000A6019091A70165E070E009950E94A603CE
:10143000FF91EF91BF91AF919F918F917F916F91AC
:101440005F914F913F912F910F900FBE0F901F9082
:1014500018951F920F920FB60F9211242F933F935E
:101460004F935F936F937F938F939F93AF93BF93AC
:10147000EF93FF9360919A0170919B0120918400FA
:1014800030918500CB01AA2797FDA095BA2FDC01EA
:101490009927882740E050E0822B932BA42BB52B73
:1014A0008093960190939701A0939801B09399012E
:1014B000B09B1CC020918400309185006F5F7F4FEE
:1014C000CB01AA2797FDA095BA2FDC019927882781
:1014D00040E050E0822B932BA42BB52B80939601F8
:1014E00090939701A0939801B0939901E0913C02E9
:1014F000F0913D02309739F08091A4019091A501BF
:1015000064E070E009950E94A603FF91EF91BF91FE
:10151000AF919F918F917F916F915F914F913F918B
:101520002F910F900FBE0F901F9018951F920F9242
:101530000FB60F9211242F933F934F935F936F93A6
:101540007F938F939F93AF93BF93EF93FF9360919C
:101550009A0170919B012091840030918500CB010C
:10156000AA2797FDA095BA2FDC019927882740E08C
:1015700050E0822B932BA42BB52B80939601909354
:101580009701A0939801B0939901B09B1CC0209142
:101590008400309185006F5F7F4FCB01AA2797FDB4
:1015A000A095BA2FDC019927882740E050E0822BD4
:1015B000932BA42BB52B8093960190939701A09326
:1015C0009801B0939901E0913A02F0913B02309773
:1015D00039F08091A2019091A30163E070E0099538
:1015E0000E94A603FF91EF91BF91AF919F918F91C0
:1015F0007F916F915F914F913F912F910F900FBE0F
:101600000F901F9018951F920F920FB60F921124F2
:101610002F933F934F935F936F937F938F939F93FA
:10162000AF93BF93EF93FF9360919A0170919B01E9
:101630002091840030918500CB01AA2797FDA095C9
:10164000BA2FDC019927882740E050E0822B932BAA
:10165000A42BB52B8093960190939701A0939801AA
:10166000B0939901B09B1CC02091840030918500FB
:101670006F5F7F4FCB01AA2797FDA095BA2FDC01A2
:101680009927882740E050E0822B932BA42BB52B81
:101690008093960190939701A0939801B09399013C
:1016A000E0913802F0913902309739F08091A00131
:1016B0009091A10162E070E009950E94A603FF915C
:1016C000EF91BF91AF919F918F917F916F915F91BA
:1016D0004F913F912F910F900FBE0F901F90189533
:1016E0001F920F920FB60F9211242F933F934F9397
:1016F0005F936F937F938F939F93AF93BF93EF937A
:10170000FF9360919A0170919B0120918400309128
:101710008500CB01AA2797FDA095BA2FDC01992758
:10172000882740E050E0822B932BA42BB52B80938D
:10173000960190939701A0939801B0939901B09B63
:101740001CC020918400309185006F5F7F4FCB01DA
:10175000AA2797FDA095BA2FDC019927882740E09A
:1017600050E0822B932BA42BB52B80939601909362
:101770009701A0939801B0939901E0913602F091FE
:101780003702309739F080919E0190919F0161E07E
:1017900070E009950E94A603FF91EF91BF91AF9170
:1017A0009F918F917F916F915F914F913F912F9179
:1017B0000F900FBE0F901F9018951F920F920FB6AB
:1017C0000F9211242F933F934F935F936F937F93C7
:1017D0008F939F93AF93BF93EF93FF9360919A0181
:1017E00070919B012091840030918500CB01AA2744
:1017F00097FDA095BA2FDC019927882740E050E09B
:10180000822B932BA42BB52B809396019093970159
:10181000A0939801B0939901B09B1CC020918400C3
:10182000309185006F5F7F4FCB01AA2797FDA09570
:10183000BA2FDC019927882740E050E0822B932BB8
:10184000A42BB52B8093960190939701A0939801B8
:10185000B0939901E0913402F0913502309739F05C
:1018600080919C0190919D0160E070E009950E943B
:10187000A603FF91EF91BF91AF919F918F917F91BF
:101880006F915F914F913F912F910F900FBE0F90ED
:101890001F901895CF92DF92FF920F931F93CF93D3
:1018A000DF93EC016B018A01FFB680E8F822F8941F
:1018B00088819981009719F433C080819181DC017E
:1018C0001496ED91FC9115973097B9F7A091770197
:1018D000B09178018A179B0721F0FF2009F446C0D8
:1018E00005C0FF2009F442C0789440C0EA81FB8122
:1018F000309711F015821482BB83AA831596DC936E
:10190000CE9314970E948603E0917701F0917801BD
:1019100082819381892B21F4789400E010E028C023
:10192000809177019091780199838883FF2029F035
:101930008A819B81019709F07894CE01B801F60164
:1019400009958C018FB7F89419821882EA81FB817E
:10195000E230F10538F01B821A8215821482CF0121
:101960000E948603FF2021F0789402C00FEF1FEF42
:10197000C801DF91CF911F910F91FF90DF90CF9021
:101980000895EF92FF920F931F93CF93DF93E09010
:101990007701F090780182E991E00E9423018C01A7
:1019A000F701938382837894FC016485758546856D
:1019B0005785828593850E944A0C8FB7F894809151
:1019C000710190917201F8019183808310937201EB
:1019D000009371016091750170917601FB01C081E6
:1019E000D1812A813B81E0919201F091930130975E
:1019F000B1F02115310559F286819781A085B18515
:101A0000F9012681378140855185821B930BA40BF8
:101A1000B50B181619061A061B060CF0B8CFD09392
:101A20007601C09375018091730190917401FB015F
:101A300091838083709374016093730102C0C081AD
:101A4000D181EC81FD813097D1F7CE010E948603D0
:101A50009ECF2F923F924F925F926F927F928F9282
:101A60009F92AF92BF92CF92DF92EF92FF920F932D
:101A70001F93DF93CF930F92CDB7DEB71B012C01DD
:101A800049015A018FB780788983F89481E791E002
:101A90000E9423013C01DC011B961C930E931A97B4
:101AA0001D96FC92EE921C971F96DC92CE921E978A
:101AB000B981BB2361F0E0917701F0917801028058
:101AC000F381E02D628173818481958108C06091EA
:101AD0009601709197018091980190919901620D02
:101AE000731D841D951DF301628373838483958325
:101AF000181419041A041B0444F00FEF802E0FEF82
:101B0000902E0FEFA02E0FE7B02E680D791D8A1DC5
:101B10009B1DD30116966D937D938D939C9319977E
:101B200040919A0150919B01209184003091850051
:101B3000B09910C0CA01AA2797FDA095BA2F8C01B1
:101B4000FF24EE24C901A0E0B0E0E82AF92A0A2B1C
:101B50001B2B14C020918400309185004F5F5F4F94
:101B6000CA01AA2797FDA095BA2F8C01FF24EE2465
:101B700040E050E0E22AF32A042B152BF301828186
:101B80009381A481B5818E199F09A00BB10B181602
:101B900019061A061B06ECF5C30164E971E00E9400
:101BA000E900E0919401F0919501309749F142816B
:101BB000538164817581CB01BB2797FDB095AB2F15
:101BC00020919A0130919B0128173907C9F49A0195
:101BD000809184009091850080959095840F951F49
:101BE000892B31F420918400309185002F5F3F4F85
:101BF000309389002093880080916F00826003C039
:101C000080916F008D7F80936F00B981BB23E9F5D0
:101C10003DC0C30162E971E00E94AF00F981FF237A
:101C2000A9F100917301109174010115110569F179
:101C30006091750170917601E0919201F0919301AC
:101C4000DB0112962D913C91139786819781A08597
:101C5000B185F9012681378140855185821B930B1F
:101C6000A40BB50BB7FF11C0D8018D919C911197B2
:101C700090937401809373016D937C93109376011C
:101C800000937501C8010E9486037894C3010F90E8
:101C9000CF91DF911F910F91FF90EF90DF90CF9048
:101CA000BF90AF909F908F907F906F905F904F907C
:101CB0003F902F900895FB01CB016AE070E00E94F5
:101CC00024168230910509F482C08330910534F4E2
:101CD000009781F0019709F053C141C0843091050C
:101CE00009F4E2C0843091050CF4A6C0059709F010
:101CF00047C10FC14091EC00CF016AE070E00E9443
:101D00002416FB01EE0FFF1FE758FE4F20813181A3
:101D1000832F82958F70407F482B4093EC00409139
:101D2000F100832F992787FD9A958F70407F842B30
:101D30008093F1004091F600C901E4E09595879504
:101D4000EA95E1F78F70407F842B8093F6008091B5
:101D5000FB002F70807F282B2093FB00089520919B
:101D6000EC00CF016AE070E00E942416FB01EE0F48
:101D7000FF1FE758FE4F40815181852F992787FD2E
:101D80009A95807F2F70822B8093EC002091F10038
:101D9000CA0134E0959587953A95E1F7807F2F70D9
:101DA000822B8093F1008091F600942F907F8F70AA
:101DB000982B9093F6008091FB00B4E0440F551FE0
:101DC000BA95E1F78F70842B8093FB0008954091C2
:101DD000ED00CF016AE070E00E942416FB01EE0FD7
:101DE000FF1FE758FE4F20813181832F82958F702E
:101DF000407F482B4093ED004091F200832F9927BC
:101E000087FD9A958F70407F842B8093F2004091DC
:101E1000F700C901E4E095958795EA95E1F78F70A1
:101E2000407F842B8093F7008091FC002F70807F8F
:101E3000282B2093FC0008952091ED00CF016AE04B
:101E400070E00E942416FB01EE0FFF1FE758FE4FC3
:101E500040815181852F992787FD9A95807F2F702A
:101E6000822B8093ED002091F200CA0134E0959519
:101E700087953A95E1F7807F2F70822B8093F2004F
:101E80008091F700942F907F8F70982B9093F7009C
:101E90008091FC00B4E0440F551FBA95E1F78F70B4
:101EA000842B8093FC0008954091EE00CF016AE0FE
:101EB00070E00E942416FB01EE0FFF1FE758FE4F53
:101EC00020813181832F82958F70407F482B4093F2
:101ED000EE004091F300832F992787FD9A958F702C
:101EE000407F842B8093F3004091F800C901E4E027
:101EF00095958795EA95E1F78F70407F842B8093C5
:101F0000F8008091FD002F70807F282B2093FD002A
:101F100008952091EE00CF016AE070E00E9424163F
:101F2000FB01EE0FFF1FE758FE4F40815181852FC7
:101F3000992787FD9A95807F2F70822B8093EE00E2
:101F40002091F300CA0134E0959587953A95E1F721
:101F5000807F2F70822B8093F3008091F800942F64
:101F6000907F8F70982B9093F8008091FD0094E003
:101F7000440F551F9A95E1F78F70842B8093FD00D5
:101F800008956F927F929F92AF92BF92CF92DF920D
:101F9000EF92FF920F931F93DF93CF9300D000D067
:101FA00000D0CDB7DEB7162F472F8091EC00867694
:101FB0008093EC008091ED0086768093ED00809117
:101FC000EE0086768093EE001092F1001092F200FF
:101FD0001092F3001092F6001092F7001092F800A1
:101FE0001092FB001092FC001092FD00262F372F5C
:101FF000C9019924939401C093946AE070E00E940F
:102000002416CB0161157105B9F786E0891510F426
:1020100066E0962E392D25E07E010894E11CF11C26
:1020200014C0F701E20FF11D812F942F6AE070E0D8
:102030000E9424168083812F942F6AE070E00E9412
:102040002416162F472F21503150332351F7898101
:10205000A82EBB248A81C82EDD248B81E82EFF2484
:102060008C81082F10E08D81A82FB0E08E81682E22
:10207000772465E0EE0CFF1CE9E7F1E0EE0EFF1EB1
:10208000AA0FBB1FAE0FBF1F000F111F0E0F1F1F88
:10209000660C771C6E0E7F1EAA0CBB1CAE0EBF1EFC
:1020A000CC0CDD1CCE0EDF1E27C1623009F46DC0E2
:1020B000633030F4662371F0613009F01BC136C023
:1020C000643009F4BDC0643008F48BC0653009F099
:1020D00011C1E2C08091EC00F50120813181932F84
:1020E00092959F70807F892B8093EC004091F10046
:1020F000832F992787FD9A958F70407F842B80933B
:10210000F1004091F600C901E4E095958795EA95C4
:10211000E1F78F70407F842B8093F6008091FB0065
:102120002F70807F282B2093FB00E4C02091EC00CF
:10213000F60140815181852F992787FD9A95807FEF
:102140002F70822B8093EC002091F100CA0134E0C3
:10215000959587953A95E1F7807F2F70822B809334
:10216000F1008091F600942F907F8F70982B9093C0
:10217000F6008091FB0094E0440F551F9A95E1F71B
:102180008F70842B8093FB00B5C08091ED00F70128
:1021900020813181932F92959F70807F892B80932E
:1021A000ED004091F200832F992787FD9A958F705B
:1021B000407F842B8093F2004091F700C901E4E056
:1021C00095958795EA95E1F78F70407F842B8093F2
:1021D000F7008091FC002F70807F282B2093FC005B
:1021E00089C02091ED00F80140815181852F992708
:1021F00087FD9A95807F2F70822B8093ED00209130
:10220000F200CA0134E0959587953A95E1F7807F11
:102210002F70822B8093F2008091F700942F907F93
:102220008F70982B9093F7008091FC0094E0440FFE
:10223000551F9A95E1F78F70842B8093FC005AC04C
:102240008091EE002D913C911197932F92959F7064
:10225000807F892B8093EE004091F300832F992794
:1022600087FD9A958F70407F842B8093F300409177
:10227000F800C901E4E095958795EA95E1F78F703C
:10228000407F842B8093F8008091FD002F70807F29
:10229000282B2093FD002EC02091EE00F3014081F9
:1022A0005181852F992787FD9A95807F2F70822BEA
:1022B0008093EE002091F300CA0134E09595879554
:1022C0003A95E1F7807F2F70822B8093F300809105
:1022D000F800942F907F8F70982B9093F800809146
:1022E000FD0094E0440F551F9A95E1F78F70842B01
:1022F0008093FD0061509A94992009F0D6CE2696DD
:102300000FB6F894DEBF0FBECDBFCF91DF911F9106
:102310000F91FF90EF90DF90CF90BF90AF909F9084
:102320007F906F90089565307105C1F16630710539
:1023300094F46230710521F1633071052CF4613041
:10234000710509F040C018C063307105F9F06430C0
:102350007105C9F51FC06830710531F1693071052B
:1023600024F46730710579F51FC06930710501F1FA
:102370006A30710541F522C08091EC00846003C091
:102380008091EC0080648093EC00089581E080935C
:10239000EF0008958091ED00826003C08091ED0010
:1023A00080628093ED00089581E08093FE0008959F
:1023B0008091EE0084608093EE0008958091EE009D
:1023C00080648093EE00089565307105B1F1663048
:1023D00071058CF46230710519F16330710524F4D4
:1023E00061307105F1F518C063307105F9F06430A2
:1023F0007105B9F51EC06830710529F169307105A4
:1024000024F46730710569F51EC069307105F1F07B
:102410006A30710531F520C08091EC008B7F03C0DC
:102420008091EC008F7B8093EC0008951092EF0078
:1024300008958091ED008D7F03C08091ED008F7D28
:102440008093ED0008951092FE0008958091EE00B3
:102450008B7F8093EE0008958091EE008F7B8093B8
:10246000EE000895CF93DF93EC018230910520F1C7
:102470008230910521F1BE01882777FD8095982F44
:102480000E9422150E94B21520E030E040E85FE390
:102490000E948B140E94EF14FB0122E030E008C080
:1024A000CE01B9010E942416892B31F02F5F3F4FD6
:1024B0002E173F07ACF303C020E030E002C021E05C
:1024C00030E0C901DF91CF910895CF92DF92EF9272
:1024D000FF920F931F93CF93DF938C01EB0108C002
:1024E0008FE7CF3FD80719F4C0E0D0E001C02196B4
:1024F000CE010E943212892B99F3F80184819581D3
:1025000061EC7FE0AE010E944A0C219665E37CE01D
:1025100080E090E020E030E040E050E0E5E6EE2EA4
:10252000E2E1FE2E6E010E94290DDF91CF911F91F5
:102530000F91FF90EF90DF90CF900895FC01808580
:10254000918562E070E00E942416CB010895CF923D
:10255000DF92EF92FF920F931F938C011092E5048C
:1025600060E070E080E090E020E030E040E050E0AB
:10257000E8EEEE2EE2E1FE2ECC24DD240E94290DB1
:102580001F910F91FF90EF90DF90CF900895CF9221
:10259000DF92EF92FF920F931F938C0181E0809363
:1025A000E50460E070E080E090E020E030E040E0B2
:1025B00050E0F8EEEF2EF2E1FF2ECC24DD240E9455
:1025C000290D1F910F91FF90EF90DF90CF9008950C
:1025D000AF92BF92CF92DF92EF92FF920F931F9331
:1025E000CF93DF93EC015B018091E504882309F42C
:1025F0004AC0CE0160E070E00E949E12AA2797FDBB
:10260000A095BA2FBC01CD012DE730E040E050E0AD
:102610000E94051624E030E040E050E00E943716AA
:10262000E1E0F0E0EA19FB09CA01B90120E030E07D
:1026300040E050E08E01A8EEEA2EA2E1FA2E6F01F2
:102640000E94290D0C811D81CE80DF80AB2869F0AE
:1026500060E070E080E090E020E030E040E050E0BA
:10266000B4EEEB2EB1E1FB2E0CC060E070E080E038
:1026700090E020E030E040E050E0A3E9EA2EA1E164
:10268000FA2E0E94290DDF91CF911F910F91FF909B
:10269000EF90DF90CF90BF90AF9008952D98089560
:1026A0002D9A08951F9B06C081E08093EF00109241
:1026B000FE0008951092EF0081E08093FE000895DF
:1026C0001092E6040895FC01778366830895CF9203
:1026D000DF92EF92FF920F931F938C0181E0809322
:1026E000E60460E070E080E090E020E030E040E070
:1026F00050E0E8E8EE2EE3E1FE2ECC24DD240E943B
:10270000290D1F910F91FF90EF90DF90CF900895CA
:10271000AF92BF92CF92DF92EF92FF920F931F93EF
:10272000CF93DF93EC015B018091E6048823F1F104
:102730006E817F8161157105C9F189E09DE30E9479
:102740002416882777FD8095982FE1E0F0E0EA19BC
:10275000FB0920E030E040E050E08E01B8E8EB2ECD
:10276000B3E1FB2E6F010E94290D0C811D81AB2866
:1027700069F060E070E080E090E020E030E040E070
:1027800050E0A0E5EA2EA3E1FA2E0CC060E070E074
:1027900080E090E020E030E040E050E0FEE4EF2E0A
:1027A000F3E1FF2ECC24DD240E94290DDF91CF918F
:1027B0001F910F91FF90EF90DF90CF90BF90AF905F
:1027C000089508956F927F928F929F92AF92BF92D9
:1027D000CF92DF92EF92FF920F931F93CF93DF93ED
:1027E000EC01E885F98581919191892BE1F70C81C4
:1027F0001D8160E070E080E090E020E030E040E0AB
:1028000050E0E7E6EE2EE3E1FE2ECC24DD240E942C
:10281000290D66247724A884B98482E090E0A80E6C
:10282000B91EB986A886F501729162915F01660DA5
:10283000771D80E090E02DE730E040E050E00E941E
:10284000051612E095958795779567951A95D1F7B6
:102850000C811D8120E030E040E050E0B0E6EB2E3E
:10286000B3E1FB2ECC24DD240E94290DF50160810B
:102870007181665F7F4F660D771D80E090E02DE7E8
:1028800030E040E050E00E9405164B015C01A2E000
:10289000B594A79497948794AA95D1F70C811D813C
:1028A000C501B40120E030E040E050E0F7E6EF2E53
:1028B000F3E1FF2E0E94290D0C811D81EE81FF8125
:1028C0003296FF83EE833297C280D380C501B40174
:1028D00020E030E040E050E0E3E6EE2EE3E1FE2EC3
:1028E0000E94290D8AE090E0680E791E90E5691635
:1028F000710409F090CFDF91CF911F910F91FF905C
:10290000EF90DF90CF90BF90AF909F908F907F908F
:102910006F9008955058BB27AA270ED0E5C0D6D097
:1029200030F0DBD020F031F49F3F11F41EF4CBC027
:102930000EF4E095E7FBC1C0E92FE7D080F3BA17AA
:10294000620773078407950718F071F49EF5FFC0BE
:102950000EF4E0950B2EBA2FA02D0B01B9019001BA
:102960000C01CA01A0011124FF27591B99F0593FFE
:1029700050F4503E68F11A16F040A22F232F342F46
:102980004427585FF3CF469537952795A795F04094
:102990005395C9F77EF41F16BA0B620B730B840BA9
:1029A000BAF09150A1F0FF0FBB1F661F771F881F61
:1029B000C2F70EC0BA0F621F731F841F48F48795B9
:1029C00077956795B795F7959E3F08F0B3CF9395A8
:1029D000880F08F09927EE0F97958795089504D0F2
:1029E0006894B111B5C0089598D088F09F5790F0C1
:1029F000B92F9927B751A0F0D1F0660F771F881F24
:102A0000991F1AF0BA95C9F712C0B13081F09FD062
:102A1000B1E008959CC0672F782F8827B85F39F000
:102A2000B93FCCF3869577956795B395D9F73EF482
:102A300090958095709561957F4F8F4F9F4F08952A
:102A4000E89409C097FB3EF4909580957095619548
:102A50007F4F8F4F9F4F9923A9F0F92F96E9BB27FE
:102A60009395F695879577956795B795F111F8CF7A
:102A7000FAF4BB0F11F460FF1BC06F5F7F4F8F4FE5
:102A80009F4F16C0882311F096E911C0772321F0DB
:102A90009EE8872F762F05C0662371F096E8862F73
:102AA00070E060E02AF09A95660F771F881FDAF7CA
:102AB000880F9695879597F9089597F99F6780E80D
:102AC00070E060E008959FEF80EC089500240A9480
:102AD0001616170618060906089500240A941216F9
:102AE0001306140605060895092E0394000C11F42C
:102AF000882352F0BB0F40F4BF2B11F460FF04C0D9
:102B00006F5F7F4F8F4F9F4F089557FD9058440F31
:102B1000551F59F05F3F71F04795880F97FB991F3C
:102B200061F09F3F79F087950895121613061406F9
:102B3000551FF2CF4695F1DF08C016161706180686
:102B4000991FF1CF86957105610508940895E89461
:102B5000BB2766277727CB0197F9089511F40EF468
:102B6000B2CF3EC0DADFD0F39923D9F3CEF39F572B
:102B7000550B87FF43D00024A0E640EA900180581F
:102B80005695979528F4805C660F771F881F20F074
:102B900026173707480730F4621B730B840B202974
:102BA00031294A2BA69517940794202531254A27C9
:102BB00058F7660F771F881F20F02617370748073A
:102BC00030F4620B730B840B200D311D411DA09559
:102BD00081F7B901842F9158880F969587950895AC
:102BE0009F3F31F0915020F4879577956795B79581
:102BF000880F911D9695879597F9089591505040AB
:102C0000660F771F881FD2F70895629FD001739FC8
:102C1000F001829FE00DF11D649FE00DF11D929F78
:102C2000F00D839FF00D749FF00D659FF00D9927B7
:102C3000729FB00DE11DF91F639FB00DE11DF91FDB
:102C4000BD01CF011124089597FB092E07260AD054
:102C500077FD04D027D006D000201AF47095619536
:102C60007F4F0895F6F7909581959F4F089597FBB4
:102C7000092E05260ED057FD04D028D00AD0001CFE
:102C800038F450954095309521953F4F4F4F5F4F09
:102C90000895F6F790958095709561957F4F8F4FC9
:102CA0009F4F0895AA1BBB1B51E107C0AA1FBB1F62
:102CB000A617B70710F0A61BB70B881F991F5A95C8
:102CC000A9F780959095BC01CD010895A1E21A2E37
:102CD000AA1BBB1BFD010DC0AA1FBB1FEE1FFF1FC0
:102CE000A217B307E407F50720F0A21BB30BE40B10
:102CF000F50B661F771F881F991F1A9469F7609557
:102D00007095809590959B01AC01BD01CF01089510
:102D1000DC012D923D924D925D926D927D928D924D
:102D20009D92AD92BD92CD92DD92ED92FD920D936A
:102D30001D93CD93DD93FF91EF918DB78D938EB75A
:102D40008D938FB78D93ED93FD93882799270994E1
:102D5000DC01CB0181309105811D2D903D904D907E
:102D60005D906D907D908D909D90AD90BD90CD903B
:102D7000DD90ED90FD900D911D91CD91DD91ED9146
:102D8000FD910D90F894FEBF0FBEEDBFED91FD914A
:062D90000994F894FFCF46
:102D96000B024B029302BA0210037003DC03170402
:102DA6000000640064006400640064006400640061
:102DB60064000000000000008E010000000000001A
:102DC600240100011201000000002C010A0D5469C3
:102DD6006E7954696D626572200076322E3031202C
:102DE60028323031322D30312D323429000A0D008F
:102DF600303132333435363738394142434445462B
:102E0600007502C0015802580251151081E111B136
:0E2E160011B005B114F1141011F115B1150031
:00000001FF
