:100000000C942E000C94850C0C94180C0C94AB0BD7
:100010000C943E0B0C94D10A0C944B000C9463048A
:100020000C944B000C94BF010C94640A0C94F709D7
:100030000C948A090C941D090C94B0080C94430884
:100040000C94D6070C9469070C94FC060C948F064C
:100050000C9422060C94B5050C94480511241FBE7F
:10006000CFEFD4E0DEBFCDBF11E0A0E0B1E0EAE326
:10007000FEE202C005900D92A036B107D9F714E058
:10008000A0E6B1E001C01D92A93BB107E1F70E94D3
:100090004D000C941B170C940000259A40E050E092
:1000A00067E570E088E091E00E94460408958F9231
:1000B0009F92AF92BF92CF92DF92EF92FF920F93F7
:1000C0001F934C01FC0104811581CC24DD24E6E55D
:1000D000EE2EE4E1FE2E20E030E040E050E068EA61
:1000E00071E680E090E00E94DE0D79E5A72E74E1D4
:1000F000B72EF4010481158167E1C62E64E0D62E87
:10010000750120E030E040E050E063E775E580E015
:1001100090E00E94DE0DF401048115815CEDC52E96
:1001200053E0D52E20E030E040E050E06EE379E48B
:1001300080E090E00E94DE0DF4010481158140E72B
:10014000C42E43E0D42E20E030E040E050E069E0EF
:100150007DE380E090E00E94DE0DF40104811581D2
:1001600030E1C32E33E0D32E20E030E040E050E019
:1001700064ED70E380E090E00E94DE0DF401048104
:1001800015812AEBC22E22E0D22E20E030E040E0A2
:1001900050E06FE974E280E090E00E94DE0DF4012F
:1001A0000481158193E9C92E92E0D92E20E030E038
:1001B00040E050E06AE678E180E090E00E94DE0DE9
:1001C000F401048115818BE4C82E82E0D82E20E052
:1001D00030E040E050E065E37CE080E090E00E94A9
:1001E000DE0D40E050E06DE574E1F401848195811D
:1001F0000E94F20C1F910F91FF90EF90DF90CF9033
:10020000BF90AF909F908F900895FC0101C03196F0
:1002100080818823E1F7089524E0969587952A95B3
:10022000E1F70097C9F7089508950895CF92DF92F6
:10023000EF92FF920F931F93CF93DF938C01DB011B
:10024000ED91FC91C0E0D0E005C0EF01808191818B
:100250009C01F901309781F02681378140855185D5
:10026000D8011696CD90DD90ED90FC901997C216AE
:10027000D306E406F5064CF7D801ED93FC932097DE
:1002800021F4FB011183008302C019830883DF91ED
:10029000CF911F910F91FF90EF90DF90CF90089535
:1002A000CF92DF92EF92FF920F931F93CF93DF9342
:1002B0008C01DB01ED91FC91C0E0D0E005C0EF01C5
:1002C000808191819C01F901309781F022813381F5
:1002D00044815581D8011296CD90DD90ED90FC902F
:1002E0001597C216D306E406F5064CF7D801ED9330
:1002F000FC93209721F4FB011183008302C0198332
:100300000883DF91CF911F910F91FF90EF90DF90C5
:10031000CF900895DC01ED91FC911197309731F069
:10032000808191818D939C93CF0108958FEF80936D
:10033000EC008093ED008093EE0081E083BF889510
:10034000FDCFDC01FB018081918111969C938E93FE
:10035000B183A0830895DC01FB0180819181119616
:100360009C938E93B183A0830895FC01A081B181F9
:100370008D919C91119791838083CD0108951F9257
:100380000F920FB60F9211242F933F934F935F93C9
:100390006F937F938F939F93AF93BF93EF93FF934D
:1003A00060916C0170916D016F5F7F4F70936D0173
:1003B00060936C01E0916601F0916701309721F143
:1003C0002281338144815581CA01BB2797FDB095B5
:1003D000AB2F68177907C1F4809184009091850054
:1003E00080959095820F931F892B31F42091840082
:1003F000309185002F5F3F4F309389002093880014
:1004000080916F00826003C080916F008D7F809328
:100410006F00FF91EF91BF91AF919F918F917F916D
:100420006F915F914F913F912F910F900FBE0F9061
:100430001F901895DC016FB7F894209166013091F8
:100440006701E0E0F0E004C0F901808191819C0146
:100450002115310569F02A173B07B1F78D919C9161
:1004600011973097D9F490936701809366013AC051
:100470002091640130916501E0E0F0E004C0F901F1
:10048000808191819C012115310581F02A173B075C
:10049000B1F78D919C911197309719F091838083DA
:1004A00021C090936501809364011CC0E0914701D5
:1004B000F09148014091490150914A0122C0E4174E
:1004C000F507E1F0828193818A179B07B9F42481B3
:1004D00035811A968D919C911B972817390771F4D5
:1004E00013821282809143019091440111969C9352
:1004F0008E93B0934401A093430105C00190F08115
:10050000E02D3097E1F667FF01C078940895CF930E
:10051000DF93EC010FB607FE0CC0E0914901F091AA
:100520004A010280F381E02D82819381A481B5810B
:1005300008C08091680190916901A0916A01B09111
:100540006B0188839983AA83BB83DF91CF91089540
:10055000DC010FB607FE0CC0E0914901F0914A01A1
:100560000280F381E02D228133814481558108C0CE
:10057000209168013091690140916A0150916B01AD
:100580008D919D910D90BC91A02D281B390B4A0B8C
:100590005B0BB901CA010895EF92FF920F931F936D
:1005A0006FB7F89440916C0150916D0120918400D7
:1005B00030918500B09910C0CA01AA2797FDA09577
:1005C000BA2F8C01FF24EE24C901A0E0B0E0E82A94
:1005D000F92A0A2B1B2B14C020918400309185002E
:1005E0004F5F5F4FCA01AA2797FDA095BA2F8C01D4
:1005F000FF24EE2440E050E0E22AF32A042B152BDE
:1006000067FF0DC07894E0914901F0914A010280A2
:10061000F381E02D82819381A481B58108C080910E
:10062000680190916901A0916A01B0916B01A801E4
:100630009701281B390B4A0B5B0BB901CA011F91AB
:100640000F91FF90EF900895CF93DF93EC0142312B
:10065000B0F42FB7F894E42FF0E0EE0FFF1FDF01A6
:10066000A259BE4FCD93DC93EA5FFD4F7183608347
:1006700081E090E09B838A8327FF01C07894DF911B
:10068000CF910895DF93CF9300D000D000D0CDB7A5
:10069000DEB787E592E027E333E0FC0170979183B2
:1006A0008083409682179307C1F710922803109217
:1006B00027038FEA91E090939301809392014D96E6
:1006C0009093B0018093AF01CA9729EE31E0309347
:1006D000CD012093CC011092EA011092E90123E9A7
:1006E00033E03C832B83AC014C5F5F4F5A834983DB
:1006F0001E821D82AD81BE81EDE1F0E0AE9FC001A2
:10070000AF9F900DBE9F900D112406968E569E4F62
:100710000E94CE142D813E814DE150E0249FF001D6
:10072000259FF00D349FF00D11243696EE56FE4FA6
:100730008B819C81918B808B938B828BA9E6BDE012
:10074000B68BA58BE981FA81118210822F5F3F4F12
:100750003E832D83805A9F4F9C838B837D96FA83A3
:10076000E9832430310531F610922B0210922A02CF
:1007700010922F0210922E0210922D0210922C0233
:10078000EEE0F1E001C0319680818823E1F7ECE1F1
:10079000F1E001C0319680818823E1F7EFE2F1E0DA
:1007A00001C0319680818823E1F7E1E6F0E080E83E
:1007B00080831082109285001092840084E08093E0
:1007C000810081E080936F0026960FB6F894DEBF1B
:1007D0000FBECDBFCF91DF910895DF93CF9300D0AF
:1007E000CDB7DEB79A8389838091490190914A0100
:1007F00006960E94CE14892B59F489819A81909390
:100800004A018093490161E070E006960E94EE146F
:100810000F900F90CF91DF910895CF93DF93609168
:10082000470170914801FB01C281D381A09164010D
:10083000B0916501109739F1E0914501F0914601C1
:10084000309709F1209781F016968D919D910D902A
:10085000BC91A02D2E813F8148855985821B930B29
:10086000A40BB50BB7FF0FC0808191819093460117
:100870008093450171836083F0934801E0934701C1
:10088000CF010E94ED03DF91CF910895EF92FF9287
:100890000F931F93CF93DF937C01EB018A018FB7F6
:1008A000F8940E9442037894209721F0B801C70180
:1008B000FE0109958FB7F8940E940D04789481E0A9
:1008C00083BF8895FDCF1F920F920FB60F92112410
:1008D0008F929F92AF92BF92CF92DF92EF92FF9250
:1008E0000F931F932F933F934F935F936F937F9338
:1008F0008F939F93AF93BF93CF93DF93EF93FF9328
:10090000C0906C01D0906D012091840030918500E1
:10091000B0990AC0C601AA2797FDA095BA2F8C01ED
:10092000FF24EE24C90112C08091840090918500BB
:100930000894C11CD11C9601442737FD4095542FC3
:100940000894C108D1088901FF24EE24A0E0B0E09A
:10095000E82AF92A0A2B1B2BB0906401A0906501AC
:10096000C0916601D09167012CC0988089808B2D41
:100970009A2D9C01F90160E070E005C0BF01808103
:1009800091819C01F901309769F02681378140857A
:1009900051858E819F81A885B98582179307A40709
:1009A000B50764F7F983E8836115710519F4BC2E66
:1009B000AD2E03C0FB01D183C083892D982D9C01EE
:1009C000E901209741F12A813B814C815D81DA0167
:1009D000C9018E199F09A00BB10B181619061A062A
:1009E0001B061CF644C08091840090918500809580
:1009F0009095820F931F892B31F4209184003091C0
:100A000085002F5F3F4F30938900209388008091AD
:100A10006F0082600BC0B0926401A09265011092D9
:100A200067011092660180916F008D7F80936F0047
:100A30000E940D04FF91EF91DF91CF91BF91AF9193
:100A40009F918F917F916F915F914F913F912F91E6
:100A50001F910F91FF90EF90DF90CF90BF90AF90DC
:100A60009F908F900F900FBE0F901F901895B0928F
:100A70006401A0926501D0936701C0936601CA0129
:100A8000BB2797FDB095AB2FC816D90661F6ABCF43
:100A90001F920F920FB60F9211242F933F934F93F3
:100AA0005F936F937F938F939F93AF93BF93EF93D6
:100AB000FF9360916C0170916D01209184003091E1
:100AC0008500CB01AA2797FDA095BA2FDC019927B5
:100AD000882740E050E0822B932BA42BB52B8093EA
:100AE000680190936901A0936A01B0936B01B09B78
:100AF0001CC020918400309185006F5F7F4FCB0137
:100B0000AA2797FDA095BA2FDC019927882740E0F6
:100B100050E0822B932BA42BB52B809368019093EC
:100B20006901A0936A01B0936B01E0912802F091F2
:100B30002902309739F061E170E080919001909145
:100B4000910109950E940D04FF91EF91BF91AF9122
:100B50009F918F917F916F915F914F913F912F91D5
:100B60000F900FBE0F901F9018951F920F920FB607
:100B70000F9211242F933F934F935F936F937F9323
:100B80008F939F93AF93BF93EF93FF9360916C010B
:100B900070916D012091840030918500CB01AA27CE
:100BA00097FDA095BA2FDC019927882740E050E0F7
:100BB000822B932BA42BB52B809368019093690112
:100BC000A0936A01B0936B01B09B1CC0209184007C
:100BD000309185006F5F7F4FCB01AA2797FDA095CD
:100BE000BA2FDC019927882740E050E0822B932B15
:100BF000A42BB52B8093680190936901A0936A019F
:100C0000B0936B01E0912602F0912702309739F002
:100C100060E170E080918E0190918F0109950E94B2
:100C20000D04FF91EF91BF91AF919F918F917F91B3
:100C30006F915F914F913F912F910F900FBE0F9049
:100C40001F9018951F920F920FB60F9211242F9399
:100C50003F934F935F936F937F938F939F93AF9344
:100C6000BF93EF93FF9360916C0170916D012091A0
:100C7000840030918500CB01AA2797FDA095BA2F5B
:100C8000DC019927882740E050E0822B932BA42B8E
:100C9000B52B8093680190936901A0936A01B0938A
:100CA0006B01B09B1CC020918400309185006F5F68
:100CB0007F4FCB01AA2797FDA095BA2FDC0199277A
:100CC000882740E050E0822B932BA42BB52B8093F8
:100CD000680190936901A0936A01B0936B01E09160
:100CE0002402F0912502309739F06FE070E0809196
:100CF0008C0190918D0109950E940D04FF91EF9157
:100D0000BF91AF919F918F917F916F915F914F9123
:100D10003F912F910F900FBE0F901F9018951F922B
:100D20000F920FB60F9211242F933F934F935F931F
:100D30006F937F938F939F93AF93BF93EF93FF93A3
:100D400060916C0170916D0120918400309185005B
:100D5000CB01AA2797FDA095BA2FDC0199278827F8
:100D600040E050E0822B932BA42BB52B809368019D
:100D700090936901A0936A01B0936B01B09B1CC072
:100D800020918400309185006F5F7F4FCB01AA27AF
:100D900097FDA095BA2FDC019927882740E050E005
:100DA000822B932BA42BB52B809368019093690120
:100DB000A0936A01B0936B01E0912202F0912302AB
:100DC000309739F06EE070E080918A0190918B014C
:100DD00009950E940D04FF91EF91BF91AF919F91F2
:100DE0008F917F916F915F914F913F912F910F90D4
:100DF0000FBE0F901F9018951F920F920FB60F9273
:100E000011242F933F934F935F936F937F938F930F
:100E10009F93AF93BF93EF93FF9360916C01709199
:100E20006D012091840030918500CB01AA2797FDA8
:100E3000A095BA2FDC019927882740E050E0822B4B
:100E4000932BA42BB52B8093680190936901A093F9
:100E50006A01B0936B01B09B1CC02091840030915B
:100E600085006F5F7F4FCB01AA2797FDA095BA2F12
:100E7000DC019927882740E050E0822B932BA42B9C
:100E8000B52B8093680190936901A0936A01B09398
:100E90006B01E0912002F0912102309739F06DE072
:100EA00070E0809188019091890109950E940D045C
:100EB000FF91EF91BF91AF919F918F917F916F9132
:100EC0005F914F913F912F910F900FBE0F901F9008
:100ED00018951F920F920FB60F9211242F933F93E4
:100EE0004F935F936F937F938F939F93AF93BF9332
:100EF000EF93FF9360916C0170916D0120918400DC
:100F000030918500CB01AA2797FDA095BA2FDC016F
:100F10009927882740E050E0822B932BA42BB52BF8
:100F20008093680190936901A0936A01B0936B016B
:100F3000B09B1CC020918400309185006F5F7F4F73
:100F4000CB01AA2797FDA095BA2FDC019927882706
:100F500040E050E0822B932BA42BB52B80936801AB
:100F600090936901A0936A01B0936B01E0911E0216
:100F7000F0911F02309739F06CE070E080918601AB
:100F80009091870109950E940D04FF91EF91BF9107
:100F9000AF919F918F917F916F915F914F913F9111
:100FA0002F910F900FBE0F901F9018951F920F92C8
:100FB0000FB60F9211242F933F934F935F936F932C
:100FC0007F938F939F93AF93BF93EF93FF93609122
:100FD0006C0170916D012091840030918500CB01EE
:100FE000AA2797FDA095BA2FDC019927882740E012
:100FF00050E0822B932BA42BB52B80936801909308
:101000006901A0936A01B0936B01B09B1CC0209151
:101010008400309185006F5F7F4FCB01AA2797FD39
:10102000A095BA2FDC019927882740E050E0822B59
:10103000932BA42BB52B8093680190936901A09307
:101040006A01B0936B01E0911C02F0911D02309790
:1010500039F06BE070E080918401909185010995F1
:101060000E940D04FF91EF91BF91AF919F918F91DD
:101070007F916F915F914F913F912F910F900FBE94
:101080000F901F9018951F920F920FB60F92112478
:101090002F933F934F935F936F937F938F939F9380
:1010A000AF93BF93EF93FF9360916C0170916D01CB
:1010B0002091840030918500CB01AA2797FDA0954F
:1010C000BA2FDC019927882740E050E0822B932B30
:1010D000A42BB52B8093680190936901A0936A01BA
:1010E000B0936B01B09B1CC02091840030918500AF
:1010F0006F5F7F4FCB01AA2797FDA095BA2FDC0128
:101100009927882740E050E0822B932BA42BB52B06
:101110008093680190936901A0936A01B0936B0179
:10112000E0911A02F0911B02309739F06AE070E00A
:10113000809182019091830109950E940D04FF9195
:10114000EF91BF91AF919F918F917F916F915F913F
:101150004F913F912F910F900FBE0F901F901895B8
:101160001F920F920FB60F9211242F933F934F931C
:101170005F936F937F938F939F93AF93BF93EF93FF
:10118000FF9360916C0170916D012091840030910A
:101190008500CB01AA2797FDA095BA2FDC019927DE
:1011A000882740E050E0822B932BA42BB52B809313
:1011B000680190936901A0936A01B0936B01B09BA1
:1011C0001CC020918400309185006F5F7F4FCB0160
:1011D000AA2797FDA095BA2FDC019927882740E020
:1011E00050E0822B932BA42BB52B80936801909316
:1011F0006901A0936A01B0936B01E0911802F0912C
:101200001902309739F069E070E080918001909187
:10121000810109950E940D04FF91EF91BF91AF915B
:101220009F918F917F916F915F914F913F912F91FE
:101230000F900FBE0F901F9018951F920F920FB630
:101240000F9211242F933F934F935F936F937F934C
:101250008F939F93AF93BF93EF93FF9360916C0134
:1012600070916D012091840030918500CB01AA27F7
:1012700097FDA095BA2FDC019927882740E050E020
:10128000822B932BA42BB52B80936801909369013B
:10129000A0936A01B0936B01B09B1CC020918400A5
:1012A000309185006F5F7F4FCB01AA2797FDA095F6
:1012B000BA2FDC019927882740E050E0822B932B3E
:1012C000A42BB52B8093680190936901A0936A01C8
:1012D000B0936B01E0911602F0911702309739F04C
:1012E00068E070E080917E0190917F0109950E94F5
:1012F0000D04FF91EF91BF91AF919F918F917F91DD
:101300006F915F914F913F912F910F900FBE0F9072
:101310001F9018951F920F920FB60F9211242F93C2
:101320003F934F935F936F937F938F939F93AF936D
:10133000BF93EF93FF9360916C0170916D012091C9
:10134000840030918500CB01AA2797FDA095BA2F84
:10135000DC019927882740E050E0822B932BA42BB7
:10136000B52B8093680190936901A0936A01B093B3
:101370006B01B09B1CC020918400309185006F5F91
:101380007F4FCB01AA2797FDA095BA2FDC019927A3
:10139000882740E050E0822B932BA42BB52B809321
:1013A000680190936901A0936A01B0936B01E09189
:1013B0001402F0911502309739F067E070E08091E7
:1013C0007C0190917D0109950E940D04FF91EF91A0
:1013D000BF91AF919F918F917F916F915F914F914D
:1013E0003F912F910F900FBE0F901F9018951F9255
:1013F0000F920FB60F9211242F933F934F935F9349
:101400006F937F938F939F93AF93BF93EF93FF93CC
:1014100060916C0170916D01209184003091850084
:10142000CB01AA2797FDA095BA2FDC019927882721
:1014300040E050E0822B932BA42BB52B80936801C6
:1014400090936901A0936A01B0936B01B09B1CC09B
:1014500020918400309185006F5F7F4FCB01AA27D8
:1014600097FDA095BA2FDC019927882740E050E02E
:10147000822B932BA42BB52B809368019093690149
:10148000A0936A01B0936B01E0911202F0911302F4
:10149000309739F066E070E080917A0190917B019D
:1014A00009950E940D04FF91EF91BF91AF919F911B
:1014B0008F917F916F915F914F913F912F910F90FD
:1014C0000FBE0F901F9018951F920F920FB60F929C
:1014D00011242F933F934F935F936F937F938F9339
:1014E0009F93AF93BF93EF93FF9360916C017091C3
:1014F0006D012091840030918500CB01AA2797FDD2
:10150000A095BA2FDC019927882740E050E0822B74
:10151000932BA42BB52B8093680190936901A09322
:101520006A01B0936B01B09B1CC020918400309184
:1015300085006F5F7F4FCB01AA2797FDA095BA2F3B
:10154000DC019927882740E050E0822B932BA42BC5
:10155000B52B8093680190936901A0936A01B093C1
:101560006B01E0911002F0911102309739F065E0C3
:1015700070E0809178019091790109950E940D04A5
:10158000FF91EF91BF91AF919F918F917F916F915B
:101590005F914F913F912F910F900FBE0F901F9031
:1015A00018951F920F920FB60F9211242F933F930D
:1015B0004F935F936F937F938F939F93AF93BF935B
:1015C000EF93FF9360916C0170916D012091840005
:1015D00030918500CB01AA2797FDA095BA2FDC0199
:1015E0009927882740E050E0822B932BA42BB52B22
:1015F0008093680190936901A0936A01B0936B0195
:10160000B09B1CC020918400309185006F5F7F4F9C
:10161000CB01AA2797FDA095BA2FDC01992788272F
:1016200040E050E0822B932BA42BB52B80936801D4
:1016300090936901A0936A01B0936B01E0910E024F
:10164000F0910F02309739F064E070E080917601FC
:101650009091770109950E940D04FF91EF91BF9140
:10166000AF919F918F917F916F915F914F913F913A
:101670002F910F900FBE0F901F9018951F920F92F1
:101680000FB60F9211242F933F934F935F936F9355
:101690007F938F939F93AF93BF93EF93FF9360914B
:1016A0006C0170916D012091840030918500CB0117
:1016B000AA2797FDA095BA2FDC019927882740E03B
:1016C00050E0822B932BA42BB52B80936801909331
:1016D0006901A0936A01B0936B01B09B1CC020917B
:1016E0008400309185006F5F7F4FCB01AA2797FD63
:1016F000A095BA2FDC019927882740E050E0822B83
:10170000932BA42BB52B8093680190936901A09330
:101710006A01B0936B01E0910C02F0910D023097D9
:1017200039F063E070E08091740190917501099542
:101730000E940D04FF91EF91BF91AF919F918F9106
:101740007F916F915F914F913F912F910F900FBEBD
:101750000F901F9018951F920F920FB60F921124A1
:101760002F933F934F935F936F937F938F939F93A9
:10177000AF93BF93EF93FF9360916C0170916D01F4
:101780002091840030918500CB01AA2797FDA09578
:10179000BA2FDC019927882740E050E0822B932B59
:1017A000A42BB52B8093680190936901A0936A01E3
:1017B000B0936B01B09B1CC02091840030918500D8
:1017C0006F5F7F4FCB01AA2797FDA095BA2FDC0151
:1017D0009927882740E050E0822B932BA42BB52B30
:1017E0008093680190936901A0936A01B0936B01A3
:1017F000E0910A02F0910B02309739F062E070E05C
:10180000809172019091730109950E940D04FF91DE
:10181000EF91BF91AF919F918F917F916F915F9168
:101820004F913F912F910F900FBE0F901F901895E1
:101830001F920F920FB60F9211242F933F934F9345
:101840005F936F937F938F939F93AF93BF93EF9328
:10185000FF9360916C0170916D0120918400309133
:101860008500CB01AA2797FDA095BA2FDC01992707
:10187000882740E050E0822B932BA42BB52B80933C
:10188000680190936901A0936A01B0936B01B09BCA
:101890001CC020918400309185006F5F7F4FCB0189
:1018A000AA2797FDA095BA2FDC019927882740E049
:1018B00050E0822B932BA42BB52B8093680190933F
:1018C0006901A0936A01B0936B01E0910802F09165
:1018D0000902309739F061E070E0809170019091D9
:1018E000710109950E940D04FF91EF91BF91AF9195
:1018F0009F918F917F916F915F914F913F912F9128
:101900000F900FBE0F901F9018951F920F920FB659
:101910000F9211242F933F934F935F936F937F9375
:101920008F939F93AF93BF93EF93FF9360916C015D
:1019300070916D012091840030918500CB01AA2720
:1019400097FDA095BA2FDC019927882740E050E049
:10195000822B932BA42BB52B809368019093690164
:10196000A0936A01B0936B01B09B1CC020918400CE
:10197000309185006F5F7F4FCB01AA2797FDA0951F
:10198000BA2FDC019927882740E050E0822B932B67
:10199000A42BB52B8093680190936901A0936A01F1
:1019A000B0936B01E0910602F0910702309739F095
:1019B00060E070E080916E0190916F0109950E9446
:1019C0000D04FF91EF91BF91AF919F918F917F9106
:1019D0006F915F914F913F912F910F900FBE0F909C
:1019E0001F901895CF92DF92FF920F931F93CF9382
:1019F000DF93EC016B018A01FFB680E8F822F894CE
:101A000088819981009719F433C080819181DC012C
:101A10001496ED91FC9115973097B9F7A091490173
:101A2000B0914A018A179B0721F0FF2009F446C0B4
:101A300005C0FF2009F442C0789440C0EA81FB81D0
:101A4000309711F015821482BB83AA831596DC931C
:101A5000CE9314970E94ED03E0914901F0914A0161
:101A600082819381892B21F4789400E010E028C0D2
:101A70008091490190914A0199838883FF2029F040
:101A80008A819B81019709F07894B801CE01F60113
:101A900009958C018FB7F89419821882EA81FB812D
:101AA000E230F10538F01B821A8215821482CF01D0
:101AB0000E94ED03FF2021F0789402C00FEF1FEF8A
:101AC000C801DF91CF911F910F91FF90DF90CF90D0
:101AD0000895CF93DF93E0914901F0914A01C091BD
:101AE0006401D0916501209769F188819981909373
:101AF000650180936401D383C28378944E855F85AA
:101B00006C857D858A859B850E94F20C8FB7F89441
:101B1000809143019091440199838883D09344013B
:101B2000C09343016091470170914801FB01C0815E
:101B3000D1812A813B81E0916401F0916501309768
:101B400061F422C08FEF8093EC008093ED008093CE
:101B5000EE0081E083BF8895FDCF2115310509F4A2
:101B6000BACF86819781A085B185F9012681378119
:101B700040855185821B930BA40BB50B18161906D3
:101B80001A061B060CF0A7CFD0934801C09347015B
:101B90008091450190914601FB0191838083709370
:101BA00046016093450102C0C081D181EC81FD8175
:101BB0003097D1F7CE010E94ED038DCF3F924F9227
:101BC0005F926F927F928F929F92AF92BF92CF92CD
:101BD000DF92EF92FF920F931F93CF93DF932B012E
:101BE0003C0149015A0198018FB7F89400914301D3
:101BF0001091440101151105D1F070E8372E3822FB
:101C0000D8018D919C911197909344018093430149
:101C10001B963C932E931A971D96FC92EE921C975E
:101C20001F96DC92CE921E97332061F417C08FEF7F
:101C30008093EC008093ED008093EE0081E083BF01
:101C40008895FDCFE0914901F0914A010280F3812E
:101C5000E02D628173818481958108C06091680163
:101C60007091690180916A0190916B019B01AC01B7
:101C7000240D351D461D571DF801228333834483EF
:101C80005583181419041A041B0444F06FEF862EB0
:101C90006FEF962E6FEFA62E6FE7B62E340145013B
:101CA000620E731E841E951ED80116966D927D924B
:101CB0008D929C921997E0906C01F0906D01E091EB
:101CC0008400F0918500B0990AC0C701AA2797FD4A
:101CD000A095BA2FAC0133272227CF0112C08091E3
:101CE0008400909185000894E11CF11C9701442721
:101CF00037FD4095542F0894E108F108A9013327D6
:101D00002227A0E0B0E0282B392B4A2B5B2BF801CF
:101D1000A280B380C480D580D601C501821B930BFD
:101D2000A40BB50B181619061A061B060CF056C0A4
:101D3000E0916601F0916701C0E0D0E005C0EF01DD
:101D4000808191819C01F901309749F082819381D2
:101D5000A481B581A816B906CA06DB0684F7D801A6
:101D6000ED93FC93209729F410936701009366018B
:101D700002C019830883E0916601F09167013097F2
:101D800021F12281338144815581CA01BB2797FD0E
:101D9000B095AB2FE816F906C1F4809184009091BC
:101DA000850080959095820F931F892B31F42091A7
:101DB0008400309185002F5F3F4F3093890020933E
:101DC000880080916F00826003C080916F008D7FDA
:101DD00080936F00332009F057C057C0E091640131
:101DE000F0916501C0E0D0E005C0EF0180819181F4
:101DF0009C01F901309749F086819781A085B185D2
:101E0000681679068A069B0684F7D801ED93FC9341
:101E1000209729F4109365010093640102C019838F
:101E20000883332091F1C0914501D091460120975C
:101E300059F16091470170914801E0916401F0917E
:101E40006501DB0112962D913C9113978681978154
:101E5000A085B185F9012681378140855185821B96
:101E6000930BA40BB50BB7FF0FC08881998190939A
:101E700046018093450179836883D0934801C093DC
:101E80004701CE010E94ED037894C801DF91CF9104
:101E90001F910F91FF90EF90DF90CF90BF90AF9088
:101EA0009F908F907F906F905F904F903F9008959C
:101EB000FB01CB016AE070E00E94B7168230910509
:101EC00009F482C08330910534F4009781F00197C2
:101ED00009F053C141C08430910509F4E2C0843057
:101EE00091050CF4A6C0059709F047C10FC14091B8
:101EF000EC00CF016AE070E00E94B716FB01EE0F24
:101F0000FF1FE55BFE4F20813181832F82958F700B
:101F1000407F482B4093EC004091F100832F99279C
:101F200087FD9A958F70407F842B8093F1004091BC
:101F3000F600C901E4E095958795EA95E1F78F7081
:101F4000407F842B8093F6008091FB002F70807F70
:101F5000282B2093FB0008952091EC00CF016AE02C
:101F600070E00E94B716FB01EE0FFF1FE55BFE4F0E
:101F700040815181852F992787FD9A95807F2F7009
:101F8000822B8093EC002091F100CA0134E09595FA
:101F900087953A95E1F7807F2F70822B8093F1002F
:101FA0008091F600942F907F8F70982B9093F6007D
:101FB0008091FB00B4E0440F551FBA95E1F78F7094
:101FC000842B8093FB0008954091ED00CF016AE0DF
:101FD00070E00E94B716FB01EE0FFF1FE55BFE4F9E
:101FE00020813181832F82958F70407F482B4093D1
:101FF000ED004091F200832F992787FD9A958F700D
:10200000407F842B8093F2004091F700C901E4E007
:1020100095958795EA95E1F78F70407F842B8093A3
:10202000F7008091FC002F70807F282B2093FC000C
:1020300008952091ED00CF016AE070E00E94B7168C
:10204000FB01EE0FFF1FE55BFE4F40815181852FA5
:10205000992787FD9A95807F2F70822B8093ED00C2
:102060002091F200CA0134E0959587953A95E1F701
:10207000807F2F70822B8093F2008091F700942F45
:10208000907F8F70982B9093F7008091FC00B4E0C4
:10209000440F551FBA95E1F78F70842B8093FC0095
:1020A00008954091EE00CF016AE070E00E94B716FB
:1020B000FB01EE0FFF1FE55BFE4F20813181832F77
:1020C00082958F70407F482B4093EE004091F30043
:1020D000832F992787FD9A958F70407F842B80935B
:1020E000F3004091F800C901E4E095958795EA95E1
:1020F000E1F78F70407F842B8093F8008091FD0082
:102100002F70807F282B2093FD0008952091EE00F2
:10211000CF016AE070E00E94B716FB01EE0FFF1FCF
:10212000E55BFE4F40815181852F992787FD9A9568
:10213000807F2F70822B8093EE002091F300CA01E4
:1021400034E0959587953A95E1F7807F2F70822B43
:102150008093F3008091F800942F907F8F70982BDC
:102160009093F8008091FD0094E0440F551F9A95DC
:10217000E1F78F70842B8093FD0008956F927F921A
:102180009F92AF92BF92CF92DF92EF92FF920F9306
:102190001F93DF93CF9300D000D000D0CDB7DEB730
:1021A000162F472F8091EC0086768093EC0080916B
:1021B000ED0086768093ED008091EE008676809328
:1021C000EE001092F1001092F2001092F3001092C3
:1021D000F6001092F7001092F8001092FB00109297
:1021E000FC001092FD00262F372FC90199249394EB
:1021F00001C093946AE070E00E94B716CB016115AC
:102200007105B9F786E0891510F466E0962E392D30
:1022100025E07E010894E11CF11C14C0F701E20FD7
:10222000F11D812F942F6AE070E00E94B716808321
:10223000812F942F6AE070E00E94B716162F472F67
:1022400021503150332351F78981A82EBB248A8134
:10225000C82EDD248B81E82EFF248C81082F10E00E
:102260008D81A82FB0E08E81682E772465E0EE0C7A
:10227000FF1CEBE4F1E0EE0EFF1EAA0FBB1FAE0F3A
:10228000BF1F000F111F0E0F1F1F660C771C6E0E55
:102290007F1EAA0CBB1CAE0EBF1ECC0CDD1CCE0ECE
:1022A000DF1E27C1623009F46DC0633030F466234D
:1022B00071F0613009F01BC136C0643009F4BDC053
:1022C000643008F48BC0653009F011C1E2C0809120
:1022D000EC00F50120813181932F92959F70807FD2
:1022E000892B8093EC004091F100832F992787FD83
:1022F0009A958F70407F842B8093F1004091F60077
:10230000C901E4E095958795EA95E1F78F70407FE4
:10231000842B8093F6008091FB002F70807F282B08
:102320002093FB00E4C02091EC00F6014081518134
:10233000852F992787FD9A95807F2F70822B809318
:10234000EC002091F100CA0134E0959587953A950B
:10235000E1F7807F2F70822B8093F1008091F6004F
:10236000942F907F8F70982B9093F6008091FB00B4
:1023700094E0440F551F9A95E1F78F70842B80935A
:10238000FB00B5C08091ED00F70120813181932FD2
:1023900092959F70807F892B8093ED004091F20091
:1023A000832F992787FD9A958F70407F842B809388
:1023B000F2004091F700C901E4E095958795EA9510
:1023C000E1F78F70407F842B8093F7008091FC00B1
:1023D0002F70807F282B2093FC0089C02091ED0076
:1023E000F80140815181852F992787FD9A95807F3B
:1023F0002F70822B8093ED002091F200CA0134E00F
:10240000959587953A95E1F7807F2F70822B809381
:10241000F2008091F700942F907F8F70982B90930B
:10242000F7008091FC0094E0440F551F9A95E1F766
:102430008F70842B8093FC005AC08091EE002D9108
:102440003C911197932F92959F70807F892B809359
:10245000EE004091F300832F992787FD9A958F70A6
:10246000407F842B8093F3004091F800C901E4E0A1
:1024700095958795EA95E1F78F70407F842B80933F
:10248000F8008091FD002F70807F282B2093FD00A5
:102490002EC02091EE00F30140815181852F9927B4
:1024A00087FD9A95807F2F70822B8093EE0020917C
:1024B000F300CA0134E0959587953A95E1F7807F5E
:1024C0002F70822B8093F3008091F800942F907FDF
:1024D0008F70982B9093F8008091FD0094E0440F4A
:1024E000551F9A95E1F78F70842B8093FD00615002
:1024F0009A94992009F0D6CE26960FB6F894DEBFAE
:102500000FBECDBFCF91DF911F910F91FF90EF9044
:10251000DF90CF90BF90AF909F907F906F90089585
:1025200065307105C1F16630710594F46230710552
:1025300021F1633071052CF46130710509F040C060
:1025400018C063307105F9F064307105C9F51FC01A
:102550006830710531F16930710524F46730710517
:1025600079F51FC06930710501F16A30710541F5D7
:1025700022C08091EC00846003C08091EC008064F4
:102580008093EC00089581E08093EF00089580919E
:10259000ED00826003C08091ED0080628093ED00C9
:1025A000089581E08093FE0008958091EE0084609C
:1025B0008093EE0008958091EE0080648093EE0099
:1025C000089565307105B1F1663071058CF46230A3
:1025D000710519F16330710524F461307105F1F56D
:1025E00018C063307105F9F064307105B9F51EC08B
:1025F0006830710529F16930710524F4673071057F
:1026000069F51EC069307105F1F06A30710531F568
:1026100020C08091EC008B7F03C08091EC008F7B09
:102620008093EC0008951092EF0008958091ED00E2
:102630008D7F03C08091ED008F7D8093ED00089524
:102640001092FE0008958091EE008B7F8093EE0043
:1026500008958091EE008F7B8093EE000895CF93D4
:10266000DF93EC018230910520F18230910521F158
:10267000BE01882777FD8095982F0E94A7150E949C
:10268000371620E030E040E85FE30E9410150E941A
:102690007415FB0122E030E008C0CE01B9010E94B0
:1026A000B716892B31F02F5F3F4F2E173F07ACF342
:1026B00003C020E030E002C021E030E0C901DF913A
:1026C000CF910895CF92DF92EF92FF920F931F93D5
:1026D000CF93DF93EC018B0109C08FE70F3F180701
:1026E00019F400E010E002C00F5F1F4FC8010E9404
:1026F0002F13892B91F3A8016EEB70E18C819D81E2
:102700000E94F20C0F5F1F4F680182E6E82E83E102
:10271000F82E8E0120E030E040E050E065E37CE000
:1027200080E090E00E94DE0DDF91CF911F910F912C
:10273000FF90EF90DF90CF900895FC018085918508
:1027400062E070E00E94B716CB010895CF92DF924D
:10275000EF92FF920F931F931092B704CC24DD24C5
:1027600027EEE22E23E1F22E8C0120E030E040E063
:1027700050E060E070E080E090E00E94DE0D1F918C
:102780000F91FF90EF90DF90CF900895CF92DF925E
:10279000EF92FF920F931F9321E02093B704CC2474
:1027A000DD2437EEE32E33E1F32E8C0120E030E020
:1027B00040E050E060E070E080E090E00E94DE0DDC
:1027C0001F910F91FF90EF90DF90CF900895AF92FF
:1027D000BF92CF92DF92EF92FF920F931F93CF930E
:1027E000DF93EC015B018091B704882309F441C0B9
:1027F00001E010E0061B170B8885998562E070E008
:102800000E94B716882777FD8095982F2DE730E036
:1028100040E050E00E94981624E030E040E050E0B4
:102820000E94CA16CA01B9016801E7EEEE2EE3E183
:10283000FE2E8E0120E030E040E050E00E94DE0DF0
:10284000CE80DF800C811D81AB2829F051EEE52E72
:1028500052E1F52E04C040E9E42E42E1F42E20E0DE
:1028600030E040E050E060E070E080E090E00E9406
:10287000DE0DDF91CF911F910F91FF90EF90DF90D0
:10288000CF90BF90AF9008952D9808952D9A0895F8
:102890001F9B06C081E08093EF001092FE00089518
:1028A0001092EF0081E08093FE0008951092B8042A
:1028B0000895FC01778366830895CF92DF92EF92AB
:1028C000FF920F931F9321E02093B804CC24DD24C2
:1028D0002EE7E22E24E1F22E8C0120E030E040E0F1
:1028E00050E060E070E080E090E00E94DE0D1F911B
:1028F0000F91FF90EF90DF90CF900895AF92BF922D
:10290000CF92DF92EF92FF920F931F93CF93DF93BB
:10291000EC015B018091B8048823A9F121E030E04B
:10292000261B370B6E817F8189E09DE30E94B716DD
:10293000882777FD8095982F69015EE7E52E54E1A1
:10294000F52E8E0120E030E040E050E00E94DE0DE8
:102950000C811D81AB2839F0CC24DD2446E4E42E23
:1029600044E1F42E06C0CC24DD2434E4E32E34E12B
:10297000F32E20E030E040E050E060E070E080E0E6
:1029800090E00E94DE0DDF91CF911F910F91FF909B
:10299000EF90DF90CF90BF90AF900895DC012D9223
:1029A0003D924D925D926D927D928D929D92AD92EF
:1029B000BD92CD92DD92ED92FD920D931D93CD933C
:1029C000DD93FF91EF918DB78D938EB78D938FB778
:1029D0008D93ED93FD93882799270994DC01CB0112
:1029E00081309105811D2D903D904D905D906D90B1
:1029F0007D908D909D90AD90BD90CD90DD90ED90AF
:102A0000FD900D911D91CD91DD91ED91FD910D9078
:102A1000F894FEBF0FBEEDBFED91FD9109945058A3
:102A2000BB27AA270ED0E5C0D6D030F0DBD020F0EF
:102A300031F49F3F11F41EF4CBC00EF4E095E7FB98
:102A4000C1C0E92FE7D080F3BA1762077307840784
:102A5000950718F071F49EF5FFC00EF4E0950B2E6B
:102A6000BA2FA02D0B01B90190010C01CA01A001E0
:102A70001124FF27591B99F0593F50F4503E68F13B
:102A80001A16F040A22F232F342F4427585FF3CF7C
:102A9000469537952795A795F0405395C9F77EF44D
:102AA0001F16BA0B620B730B840BBAF09150A1F096
:102AB000FF0FBB1F661F771F881FC2F70EC0BA0F1C
:102AC000621F731F841F48F4879577956795B795A4
:102AD000F7959E3F08F0B3CF9395880F08F099279C
:102AE000EE0F97958795089504D06894B111B5C0FD
:102AF000089598D088F09F5790F0B92F9927B75133
:102B0000A0F0D1F0660F771F881F991F1AF0BA95B1
:102B1000C9F712C0B13081F09FD0B1E008959CC0D8
:102B2000672F782F8827B85F39F0B93FCCF38695A7
:102B300077956795B395D9F73EF490958095709504
:102B400061957F4F8F4F9F4F0895E89409C097FB81
:102B50003EF490958095709561957F4F8F4F9F4F74
:102B60009923A9F0F92F96E9BB279395F6958795B8
:102B700077956795B795F111F8CFFAF4BB0F11F47B
:102B800060FF1BC06F5F7F4F8F4F9F4F16C0882322
:102B900011F096E911C0772321F09EE8872F762F58
:102BA00005C0662371F096E8862F70E060E02AF099
:102BB0009A95660F771F881FDAF7880F9695879585
:102BC00097F9089597F99F6780E870E060E00895AD
:102BD0009FEF80EC089500240A9416161706180635
:102BE0000906089500240A94121613061406050611
:102BF0000895092E0394000C11F4882352F0BB0FA2
:102C000040F4BF2B11F460FF04C06F5F7F4F8F4F04
:102C10009F4F089557FD9058440F551F59F05F3F3F
:102C200071F04795880F97FB991F61F09F3F79F0EE
:102C300087950895121613061406551FF2CF469570
:102C4000F1DF08C0161617061806991FF1CF8695F2
:102C50007105610508940895E894BB2766277727D6
:102C6000CB0197F9089511F40EF4B2CF4AC0DADF20
:102C7000D0F39923D9F3CEF39F57550B87FF51D04B
:102C800056959795B0E020F4660F771F881FBB1FFD
:102C90001F930F9300249001A0018001F001A0E890
:102CA0000E0F1F1F0A1E511D601B710B8009B50BF3
:102CB00048F4600F711F801DB51F0E1B1F0B0A0A01
:102CC000510907C02E0F3F1F4A1F0E0F1F1F0A1E5C
:102CD000511D660F771F881FBB1FA695F795E795B7
:102CE000F8F60617170708065B07211D311D411D61
:102CF0000F911F91B901842F9158880F9695879550
:102D000008959F3F49F0915028F4869577956795EF
:102D1000B7959F5F80389F4F880F9695879597F955
:102D2000089591505040660F771F881FD2F708957D
:102D3000629FD001739FF001829FE00DF11D649F9F
:102D4000E00DF11D929FF00D839FF00D749FF00D2B
:102D5000659FF00D9927729FB00DE11DF91F639FCC
:102D6000B00DE11DF91FBD01CF011124089597FB9E
:102D7000092E07260AD077FD04D027D006D00020E0
:102D80001AF4709561957F4F0895F6F790958195A7
:102D90009F4F089597FB092E05260ED057FD04D0AE
:102DA00028D00AD0001C38F45095409530952195D4
:102DB0003F4F4F4F5F4F0895F6F790958095709570
:102DC00061957F4F8F4F9F4F0895AA1BBB1B51E109
:102DD00007C0AA1FBB1FA617B70710F0A61BB70B8B
:102DE000881F991F5A95A9F780959095BC01CD0130
:102DF0000895A1E21A2EAA1BBB1BFD010DC0AA1F3C
:102E0000BB1FEE1FFF1FA217B307E407F50720F053
:102E1000A21BB30BE40BF50B661F771F881F991FCE
:102E20001A9469F760957095809590959B01AC0117
:0A2E3000BD01CF010895F894FFCF13
:102E3A000000000060010B020000000000010A0D02
:102E4A0054696E7954696D626572200076322E304B
:102E5A00312028323031322D30312D323429000AD6
:102E6A000D00303132333435363738394142434434
:102E7A00454600470292012A022A0251151081E1B1
:102E8A0011B111B005B114F1141011F115B11500F9
:00000001FF
