:100000000C942E000C944B000C944B000C944B0061
:100010000C944B000C944B000C944B000C944B0034
:100020000C944B000C944B000C944B000C944B0024
:100030000C944B000C944B000C944B000C944B0014
:100040000C944B000C944B000C944B000C944B0004
:100050000C944B000C944B000C944B0011241FBECD
:10006000CFEFD4E0DEBFCDBF11E0A0E0B1E0E8E12A
:10007000FFE002C005900D92A430B107D9F713E05C
:10008000A4E0B1E001C01D92AF32B107E1F70E94D8
:1000900010050C948A070C94000016BC82E084BD05
:1000A00086B5803BE9F714BC0895CF93259AC2E347
:1000B0002D9A0E944D002D980E944D00C150C1F70D
:1000C0002598CF910895AF92BF92CF92DF92EF9291
:1000D000FF920F931F93CF93DF93843309F446C0AD
:1000E000853370F48133F1F0823320F4803309F0EA
:1000F00093C086C0823301F1833309F08DC029C0DB
:10010000873309F459C0883330F48533D9F1863305
:1001100009F082C044C0883309F458C0893309F01B
:100120007BC061C0CC24DD24EE24FF24E39401E0F5
:1001300010E048E050E070C0CC24DD24C3940F2EC2
:10014000FEE0EF2EFF24F02D01E010E041E050E052
:1001500063C0CC24DD24C3940F2EFBE0EF2EFF24DC
:10016000F02D01E010E041E050E056C0CC24DD2449
:100170000F2EFBE0EF2EFF24F02D05E010E040E015
:1001800050E04AC0CC24DD24C3940F2EFBE0EF2EB8
:10019000FF24F02D04E010E041E050E03DC0CC240D
:1001A000DD24C3940F2EFFE0EF2EFF24F02D04E09A
:1001B00010E041E050E030C0CC24DD24EE24FF24E8
:1001C000E39401E010E041E050E026C0CC24DD24BF
:1001D000C3940F2EFFE0EF2EFF24F02D05E010E07A
:1001E00041E050E019C0CC24DD24C3940F2EFBE085
:1001F000EF2EFF24F02D05E010E041E050E00CC0B0
:10020000CC24DD24C3940F2EF5E0EF2EFF24F02D37
:1002100005E010E041E050E06230710509F482C071
:100220006330710544F46115710591F06130710519
:1002300009F04BC132C06430710509F4DDC064308F
:1002400071050CF494C06530710509F03EC1F9C028
:100250006CEE70E0FB018081807F8083A1EFB0E0D5
:100260008C91807F8C93C6EFD0E08881807F8883DB
:100270002BEF30E0F9018081807F8083FB0180815A
:10028000482B40838C91082B0C938881E82AE882C4
:10029000F9018081C82AC08218C10F2EFCEEAF2E52
:1002A000BB24F02DF50180818F708083A1EFB0E039
:1002B0008C918F708C93C6EFD0E088818F7088838B
:1002C0002BEF30E0F90180818F708083F501608130
:1002D000CA0182959295907F9827807F9827862BD8
:1002E00080834C91C80182959295907F9827807F5A
:1002F0009827842B8C934881C70182959295907F93
:100300009827807F9827842B8883F9018081CC0CE3
:10031000DD1CCC0CDD1CCC0CDD1CCC0CDD1CC82A7F
:10032000C082D3C06DEE70E0FB018081807F80834E
:10033000A2EFB0E08C91807F8C93C7EFD0E08881F2
:10034000807F88832CEF30E0F9018081807F80837B
:10035000FB018081482B40838C91082B0C93888172
:10036000E82AE882F9018081C82AC082AEC00F2E37
:10037000FDEEAF2EBB24F02DF50180818F708083C0
:10038000A2EFB0E08C918F708C93C7EFD0E08881A2
:100390008F7088832CEF30E0F90180818F7080832B
:1003A000F5016081CA0182959295907F9827807FA0
:1003B0009827862B80834C91C80182959295907FD7
:1003C0009827807F9827842B8C934881C70182953A
:1003D0009295907F9827807F9827842B8883F901B6
:1003E0008081CC0CDD1CCC0CDD1CCC0CDD1CCC0CC1
:1003F000DD1CC82AC08269C06EEE70E0FB018081FE
:10040000807F8083A3EFB0E08C91807F8C93C8EFD6
:10041000D0E08881807F88832DEF30E0F9018081F2
:10042000807F8083FB018081482B40838C91082B47
:100430000C938881E82AE882F9018081C82AC08269
:1004400044C00F2EFEEEAF2EBB24F02DF5018081AF
:100450008F708083A3EFB0E08C918F708C93C8EF86
:10046000D0E088818F7088832DEF30E0F9018081A2
:100470008F708083F5016081CA0182959295907F8B
:100480009827807F9827862B80834C91C80182957E
:100490009295907F9827807F9827842B8C93488112
:1004A000C70182959295907F9827807F9827842B0B
:1004B0008883F9018081CC0CDD1CCC0CDD1CCC0CBC
:1004C000DD1CCC0CDD1CC82AC082DF91CF911F91AE
:1004D0000F91FF90EF90DF90CF90BF90AF90089575
:1004E000CF92DF92EF92FF926B017C012AE030E025
:1004F00040E050E00E940C07DC01CB018C159D050B
:10050000AE05BF0509F43FC0C701B60124E630E0DF
:1005100040E050E00E940C07DC01CB018C159D05EA
:10052000AE05BF0599F1C701B60128EE33E040E002
:1005300050E00E940C07DC01CB018C159D05AE0537
:10054000BF0539F1C701B60120E137E240E050E0D4
:100550000E940C07DC01CB018C159D05AE05BF0583
:10056000D9F0C701B60120EA36E841E050E00E9428
:100570000C07DC01CB018C159D05AE05BF0579F498
:1005800085E090E00EC081E090E00BC082E090E05A
:1005900008C083E090E005C084E090E002C086E0FF
:1005A00090E0FF90EF90DF90CF9008952F923F92D0
:1005B0004F925F926F927F928F929F92AF92BF9273
:1005C000CF92DF92EF92FF920F931F93CF93DF931F
:1005D000CDB7DEB727970FB6F894DEBF0FBECDBFFD
:1005E0006B017C010E9470021C01181619060CF0A8
:1005F0002EC10F2EF0EA8F2EF6E89F2EF1E0AF2EDF
:10060000F0E0BF2EF02DC701B601A50194010E94B4
:100610000C0769837A838B839C83C701B60120E42E
:1006200032E44FE050E00E940C0729813A814B816F
:100630005C81621B730B840B950BA50194010E94D6
:100640000C072D830F2EF0E18F2EF7E29F2EF0E0A6
:10065000AF2EF0E0BF2EF02DC701B601A501940129
:100660000E940C072B013C0169817A818B819C815E
:100670006419750986099709A50194010E940C0760
:100680002E830F2EF8EE8F2EF3E09F2EF0E0AF2E8C
:10069000F0E0BF2EF02DC701B601A50194010E9424
:1006A0000C0769837A838B839C83C301B201298100
:1006B0003A814B815C81621B730B840B950BA50106
:1006C00094010E940C072F830F2EF4E68F2EF0E08A
:1006D0009F2EF0E0AF2EF0E0BF2EF02DC701B60147
:1006E000A50194010E940C072B013C0169817A81CC
:1006F0008B819C816419750986099709A50194016C
:100700000E940C07022F0F2EFAE08F2EF0E09F2E92
:10071000F0E0AF2EF0E0BF2EF02DC701B601A5012D
:1007200094010E940C0769837A838B839C83C301A5
:10073000B20129813A814B815C81621B730B840B6E
:10074000950BA50194010E940C0710E34424552445
:10075000005DCE80C10E8F80810E0F2EF0E3FF2E44
:10076000F02D3D81F30EE98040E3E40E0F2EF0E31F
:10077000DF2EF02DD20E52E04516510409F445C08B
:1007800083E04816510444F44114510481F1E1E03E
:100790004E16510479F432C0F4E04F16510409F4B6
:1007A00042C024E042165104BCF135E04316510426
:1007B00009F440C042E04416510441F153E04516AB
:1007C000510444F44114510499F081E04816510455
:1007D000B9F515C0E4E04E16510431F1F4E04F16BE
:1007E0005104DCF025E04216510451F524C01E2DC1
:1007F000812F65E070E00E94630022C01D2D812FD3
:1008000064E070E00E9463001BC0102F812F63E042
:1008100070E00E94630014C0182D812F62E070E028
:100820000E9463000DC01C2D812F61E070E00E94CA
:10083000630006C01F2D812F60E070E00E946300FE
:100840000894411C511C4214530409F094CF27967C
:100850000FB6F894DEBF0FBECDBFDF91CF911F91D1
:100860000F91FF90EF90DF90CF90BF90AF909F904F
:100870008F907F906F905F904F903F902F90089552
:10088000AF92BF92CF92DF92EF92FF920F931F939E
:10089000CF93DF936B017C010E944E060E94B60647
:1008A0000E941B068B019C010F5F1F4F0230110538
:1008B000DCF0AA24BB24C2E0D0E09E01442737FD2F
:1008C0004095542FC701B6010E940C07DC01CB01F3
:1008D0000097A105B10519F40894A11CB11C21963B
:1008E0000C171D0754F702C0AA24BB2481E090E036
:1008F000A114B10411F080E090E0DF91CF911F913D
:100900000F91FF90EF90DF90CF90BF90AF90089540
:10091000CF92DF92EF92FF92CC24DD24760168948F
:10092000C1F8C701B6010E9440048130910521F44D
:10093000C701B6010E94D6020894C11CD11CE11C5B
:10094000F11C80E4C81682E4D8068FE0E80680E057
:10095000F80639F7FF90EF90DF90CF9008958F92CF
:100960009F92AF92BF92CF92DF92EF92FF92CF937E
:10097000DF934B015C01EA0150930D0140930C01A0
:1009800024E630E040E050E00E940C070F2EFAE031
:10099000CF2EF0E0DF2EF0E0EF2EF0E0FF2EF02D76
:1009A000A70196010E940C07822F805DBE010E9464
:1009B0006300C0910C01D0910D012196D0930D01DF
:1009C000C0930C01C501B401A70196010E940C0758
:1009D000862F805DBE010E946300DF91CF91FF9062
:1009E000EF90DF90CF90BF90AF909F908F90089541
:1009F000EC01CC24DD247601C394C701B6010E942A
:100A00004004009739F0C701B601AE010E94AF045F
:100A10000E94DE050894C11CD11CE11CF11CEDCF25
:100A200088EF94E060E070E00E945F0583E090E072
:100A30000E94F804DB01FC0115821482ED91FC9107
:100A40001197309729F411969C938E930895F9018C
:100A50002481358121153105D1F79583848308954B
:100A6000DC01ED91FC911197309741F084819581E3
:100A700011969C938E938E2F9F2F0895FFCFCF9327
:100A8000DF9300D0CDB7DEB79A83898380910001D0
:100A90009091010106960E944907009759F48981B7
:100AA0009A819093010180930001069661E070E0C5
:100AB0000E9469070F900F90DF91CF910895EF92F8
:100AC000FF920F931F93CF93DF9300D0CDB7DEB784
:100AD0007C018B01F89480910801909109010097A5
:100AE00029F580E88093E40087EB8093E50084E0BB
:100AF0008093810088EE91E09093800180937F0144
:100B000085E592E09093ED018093EC0182EC92E018
:100B100090935A02809359021092C7021092C60213
:100B200081E090E0909309018093080182E091E0D8
:100B30000E9430059A838983FC01F182E08213834D
:100B400002831582148206960E944907813091051E
:100B5000E1F47894A0910001B0910101ED91FC9134
:100B6000119712968D919C9113970995F894809105
:100B700000019091010162E071E00E941A058AE093
:100B800091E00E9430050E943F0589819A81875932
:100B90009F4FE981FA81978B868B918F808FCF0150
:100BA0006AE071E00E941A0578940F900F90DF912F
:100BB000CF911F910F91FF90EF900895CF93DF9306
:100BC000CAE0D1E08091000190910101BE010E9434
:100BD0001A05CE010E9430050E943F05DF91CF919A
:100BE0000895FC0180819181009729F481E090E0D3
:100BF0009183808308956281738180910001909137
:100C000001010E941A058AE091E00E9430050E94CD
:100C10003F050895FC01228133812115310541F002
:100C2000C9010E9430056AE071E00E941A0508952A
:100C300011821082089504D06894B1118DC0089576
:100C400070D088F09F5790F0B92F9927B751A0F036
:100C5000D1F0660F771F881F991F1AF0BA95C9F750
:100C600012C0B13081F077D0B1E0089574C0672F21
:100C7000782F8827B85F39F0B93FCCF38695779500
:100C80006795B395D9F73EF49095809570956195E9
:100C90007F4F8F4F9F4F0895E89409C097FB3EF414
:100CA00090958095709561957F4F8F4F9F4F9923B9
:100CB000A9F0F92F96E9BB279395F6958795779537
:100CC0006795B795F111F8CFFAF4BB0F11F460FFF7
:100CD0001BC06F5F7F4F8F4F9F4F16C0882311F04F
:100CE00096E911C0772321F09EE8872F762F05C063
:100CF000662371F096E8862F70E060E02AF09A95FE
:100D0000660F771F881FDAF7880F9695879597F9F2
:100D1000089557FD9058440F551F59F05F3F71F0EB
:100D20004795880F97FB991F61F09F3F79F0879552
:100D30000895121613061406551FF2CF4695F1DFDB
:100D400008C0161617061806991FF1CF869571056B
:100D5000610508940895E894BB2766277727CB019F
:100D600097F9089511F40EF44DC03EC0DADFD0F3C8
:100D70009923D9F3CEF39F57550B87FF46D0002414
:100D8000A0E640EA900180585695979528F4805C3B
:100D9000660F771F881F20F026173707480730F4A3
:100DA000621B730B840B202931294A2BA6951794BB
:100DB0000794202531254A2758F7660F771F881F8B
:100DC00020F026173707480730F4620B730B840BAB
:100DD000200D311D411DA09581F7B901842F915837
:100DE000880F9695879508959F3F31F0915020F494
:100DF000879577956795B795880F911D96958795F7
:100E000097F908959FEF80EC089591505040660F38
:100E1000771F881FD2F7089597FB092E05260ED05D
:100E200057FD04D014D00AD0001C38F450954095DA
:100E3000309521953F4F4F4F5F4F0895F6F79095AE
:100E40008095709561957F4F8F4F9F4F0895A1E2D8
:100E50001A2EAA1BBB1BFD010DC0AA1FBB1FEE1F34
:100E6000FF1FA217B307E407F50720F0A21BB30B7F
:100E7000E40BF50B661F771F881F991F1A9469F7FB
:100E800060957095809590959B01AC01BD01CF0157
:100E90000895DC012D923D924D925D926D927D926E
:100EA0008D929D92AD92BD92CD92DD92ED92FD928A
:100EB0000D931D93CD93DD93FF91EF918DB78D939E
:100EC0008EB78D938FB78D93ED93FD9388279927D8
:100ED0000994DC01CB0181309105811D2D903D905D
:100EE0004D905D906D907D908D909D90AD90BD905A
:100EF000CD90DD90ED90FD900D911D91CD91DD9106
:100F0000ED91FD910D90F894FEBF0FBEEDBFED91F8
:080F1000FD910994F894FFCF54
:040F18000E017B014A
:00000001FF
