:100000000C942E000C9449000C9449000C94490067
:100010000C9449000C9449000C9449000C9449003C
:100020000C9449000C9449000C9449000C9449002C
:100030000C9449000C9449000C9449000C9449001C
:100040000C9449000C9449000C9449000C9449000C
:100050000C9449000C9449000C94490011241FBED3
:10006000CFEFD4E0DEBFCDBF11E0A0E0B1E0E2ED24
:10007000F0E002C005900D92A030B107D9F711E071
:10008000A0E0B1E001C01D92A030B107E1F70C94EF
:100090004B000C94000080E88093E40087EB809391
:1000A000E50021E12093EC0098E89093F10083E3D0
:1000B0008093FB002093ED009093F2008093FC006E
:1000C0002093EE009093F3008093FD0080E090E099
:0200D000089591
:00000001FF
