:100000000C9492000C946C100C94FC0F0C948C0FBC
:100010000C941C0F0C94AC0E0C94AF000C942C118F
:100020000C94AF000C94DC100C943C0E0C94CC0D92
:100030000C945C0D0C94EC0C0C947C0C0C940C0C3F
:100040000C949C0B0C942C0B0C94BC0A0C944C0A36
:100050000C94DC090C946C090C94FC08093D093DD6
:10006000093D093D093D841E9698093D093D093D1C
:10007000093D093D841E9698093D093D093D093D0C
:10008000093D841E9698093D093D093D093D093DFC
:10009000841E9698093D093D093D093D093D841E90
:1000A0009698093D093D093D093D093D841E9698F4
:1000B0002D312D311BB7093D1BB7093D093D1BB73C
:1000C0005D014A014A014A014A014A014A015D01B2
:1000D0005D015D015D0188015D0126014A014A0162
:1000E0004A014A014A014A014A015D015D015D017F
:1000F0005D0188015D012601880188018801880170
:10010000B801B801B801B801B801B801B8013701A8
:100110003701370106010601B801B801880137012E
:100120002601060111241FBECFEFD4E0DEBFCDBFF4
:1001300011E0A0E0B1E0E2E7FDE202C005900D921F
:10014000AC35B107D9F714E0ACE5B1E001C01D92C0
:10015000A73BB107E1F70E94E5000C94B7160C9499
:100160000000CF92DF92EF92FF920F931F93CF93F5
:10017000DF93EC010E811F8160E070E0CB0120E095
:1001800030E0A9010F2EF0EDEF2EF4E0FF2EF02D60
:10019000CC24DD240E94EA110C811D8160E070E016
:1001A000CB0120E030E0A9010F2EF4EEEF2EF5E0B8
:1001B000FF2EF02D0E94EA11DF91CF911F910F9138
:1001C000FF90EF90DF90CF90089587EB8093E5004C
:1001D00080E18093E6008FE08093E70080E88093E1
:1001E000E40080E284B980E091E061EB70E040E0FF
:1001F00050E00E940A150895AF92BF92CF92DF920D
:10020000EF92FF920F931F93CF93DF93843309F400
:1002100046C0853370F48133F1F0823320F48033AB
:1002200009F093C086C0823301F1833309F08DC099
:1002300029C0873309F459C0883330F48533D9F1A4
:10024000863309F082C044C0883309F458C089332A
:1002500009F07BC061C0CC24DD24EE24FF24E394AC
:1002600001E010E048E050E070C0CC24DD24C394ED
:100270000F2EFEE0EF2EFF24F02D01E010E041E014
:1002800050E063C0CC24DD24C3940F2EFBE0EF2E9E
:10029000FF24F02D01E010E041E050E056C0CC24F6
:1002A000DD240F2EFBE0EF2EFF24F02D05E010E003
:1002B00040E050E04AC0CC24DD24C3940F2EFBE084
:1002C000EF2EFF24F02D04E010E041E050E03DC0AF
:1002D000CC24DD24C3940F2EFFE0EF2EFF24F02D5D
:1002E00004E010E041E050E030C0CC24DD24EE24F6
:1002F000FF24E39401E010E041E050E026C0CC246C
:10030000DD24C3940F2EFFE0EF2EFF24F02D05E037
:1003100010E041E050E019C0CC24DD24C3940F2E3E
:10032000FBE0EF2EFF24F02D05E010E041E050E06F
:100330000CC0CC24DD24C3940F2EF5E0EF2EFF2457
:10034000F02D05E010E041E050E06230710509F465
:1003500082C06330710544F46115710591F061301C
:10036000710509F04BC132C06430710509F4DDC07C
:10037000643071050CF494C06530710509F03EC11C
:10038000F9C06CEE70E0FB018081807F8083A1EF7B
:10039000B0E08C91807F8C93C6EFD0E08881807F25
:1003A00088832BEF30E0F9018081807F8083FB011F
:1003B0008081482B40838C91082B0C938881E82AFC
:1003C000E882F9018081C82AC08218C10F2EFCEE94
:1003D000AF2EBB24F02DF50180818F708083A1EFBB
:1003E000B0E08C918F708C93C6EFD0E088818F70D5
:1003F00088832BEF30E0F90180818F708083F501D5
:100400006081CA0182959295907F9827807F982776
:10041000862B80834C91C80182959295907F982776
:10042000807F9827842B8C934881C7018295929571
:10043000907F9827807F9827842B8883F90180817B
:10044000CC0CDD1CCC0CDD1CCC0CDD1CCC0CDD1C68
:10045000C82AC082D3C06DEE70E0FB018081807F2E
:100460008083A2EFB0E08C91807F8C93C7EFD0E0C7
:100470008881807F88832CEF30E0F9018081807F44
:100480008083FB018081482B40838C91082B0C9347
:100490008881E82AE882F9018081C82AC082AEC03A
:1004A0000F2EFDEEAF2EBB24F02DF50180818F7055
:1004B0008083A2EFB0E08C918F708C93C7EFD0E077
:1004C00088818F7088832CEF30E0F90180818F70F4
:1004D0008083F5016081CA0182959295907F98276B
:1004E000807F9827862B80834C91C80182959295B6
:1004F000907F9827807F9827842B8C934881C70111
:1005000082959295907F9827807F9827842B888367
:10051000F9018081CC0CDD1CCC0CDD1CCC0CDD1C6D
:10052000CC0CDD1CC82AC08269C06EEE70E0FB01F5
:100530008081807F8083A3EFB0E08C91807F8C935B
:10054000C8EFD0E08881807F88832DEF30E0F9010B
:100550008081807F8083FB018081482B40838C9148
:10056000082B0C938881E82AE882F9018081C82A47
:10057000C08244C00F2EFEEEAF2EBB24F02DF5013D
:1005800080818F708083A3EFB0E08C918F708C930B
:10059000C8EFD0E088818F7088832DEF30E0F901BB
:1005A00080818F708083F5016081CA018295929568
:1005B000907F9827807F9827862B80834C91C80155
:1005C00082959295907F9827807F9827842B8C9393
:1005D0004881C70182959295907F9827807F9827C0
:1005E000842B8883F9018081CC0CDD1CCC0CDD1CB4
:1005F000CC0CDD1CCC0CDD1CC82AC082DF91CF9155
:100600001F910F91FF90EF90DF90CF90BF90AF9030
:100610000895CF92DF92EF92FF929C016AE070E022
:100620000E9412168217930779F1C90164E670E0FF
:100630000E9412168217930751F1C90168EE73E008
:100640000E9412168217930729F1C90160E177E22F
:100650000E9412168217930701F16901EE24D7FC5C
:10066000E094FE2CC701B60120EA36E841E050E0F4
:100670000E942516DC01CB01C816D906EA06FB0646
:1006800079F485E090E00EC081E090E00BC082E05C
:1006900090E008C083E090E005C084E090E002C0F4
:1006A00086E090E0FF90EF90DF90CF9008954F921A
:1006B0005F926F927F928F929F92AF92BF92CF92F2
:1006C000DF92EF92FF920F931F93CF93DF9300D0AF
:1006D00000D0CDB7DEB76C010E9409037C0118166B
:1006E00019060CF0FDC04601AA2497FCA094BA2C70
:1006F0000F2EF0EA4F2EF6E85F2EF1E06F2EF0E0BD
:100700007F2EF02DC501B401A30192010E94251690
:1007100069837A838B839C83C501B40120E432E42E
:100720004FE050E00E94251629813A814B815C817F
:10073000621B730B840B950BA30192010E9425167B
:10074000922EC60160E177E20E9412168C01C80168
:10075000AA2797FDA095BA2F29813A814B815C8108
:10076000281B390B4A0B5B0BCA01B90120E137E2A8
:1007700040E050E00E942516F22F28EE33E0C6013B
:10078000B9010E9412165C01C8018A199B09B901BE
:100790000E941216E62F24E630E0C601B9010E943D
:1007A00012168C01C501801B910BB9010E94121613
:1007B000462F2AE030E0C601B9010E9412165C0102
:1007C000C8018A199B09B9010E94121610E3662418
:1007D00077240F2EF0E3DF2EF02DD40E0F2EF0E352
:1007E000BF2EF02DBF0E0F2EF0E34F2EF02D4E0E2C
:1007F0000F2EF0E3CF2EF02DC90C0A2D005D0F2E29
:10080000F0E38F2EF02D860E32E06316710409F4AA
:1008100045C043E06416710444F46114710481F12D
:1008200051E06516710479F432C084E068167104F1
:1008300009F442C0E4E06E167104BCF1F5E06F16F5
:10084000710409F440C022E06216710441F133E002
:100850006316710444F46114710499F041E0641664
:100860007104B9F515C054E06516710431F184E0E6
:1008700068167104DCF0E5E06E16710451F524C0D1
:10088000102F812F65E070E00E94FC0022C0182D1F
:10089000812F64E070E00E94FC001BC01D2D812FA1
:1008A00063E070E00E94FC0014C0142D812F62E010
:1008B00070E00E94FC000DC01B2D812F61E070E0F4
:1008C0000E94FC0006C01C2D812F60E070E00E9499
:1008D000FC000894611C711C6E147F0409F094CF15
:1008E0000F900F900F900F90DF91CF911F910F916C
:1008F000FF90EF90DF90CF90BF90AF909F908F9040
:100900007F906F905F904F900895CB016AE070E008
:100910000E9412169C01862F805DB9010E94FC0086
:100920000895CB010E94570308956230710561F06C
:100930006330710579F06130710591F4EFEEF0E00C
:100940008081816080830FC0E9EFF0E08081816069
:10095000808309C0EEEFF0E080818160808303C076
:1009600080E090E0089508956230710559F0633099
:10097000710569F06130710579F4EFEEF0E0808186
:1009800010820DC0E9EFF0E08081108208C0EEEF28
:10099000F0E08081108203C080E090E00895089527
:1009A000CF92DF92EF92FF920F931F93CF93DF933B
:1009B000EC018E819F818133910511F41F821E828B
:1009C0008E819F81880F991FFC01E45AFF4F25916A
:1009D000349180549F4FFC01C590D49040E050E08A
:1009E0000C811D8160E070E0CB010F2EF2E2EF2E52
:1009F000F6E0FF2EF02D0E94EA11EE81FF81EE0F4E
:100A0000FF1FE45AFF4F2591349140E050E00C81E4
:100A10001D8160E070E0CB010F2EFFECEF2EF6E0C1
:100A2000FF2EF02DCC24DD240E94EA11EE81FF81FF
:100A3000EE0FFF1FE45AFF4F6591749180E090E044
:100A40009B01AC01285C3E4F4F4F5F4F0C811D81D5
:100A50000F2EF4EDEF2EF6E0FF2EF02D0E94EA119E
:100A6000CE80DF80F601EE0FFF1FE45AFF4F259185
:100A70003491C60101969F838E8340E050E0285C4C
:100A80003E4F4F4F5F4FCA01B9018E010F2EF0ED5F
:100A9000EF2EF4E0FF2EF02D0E94EA11DF91CF91AE
:100AA0001F910F91FF90EF90DF90CF900895CF921C
:100AB000DF92EF92FF920F931F93FC010681178143
:100AC00060E070E0CB0120E030E0A9010F2EF4EDF2
:100AD000EF2EF6E0FF2EF02DCC24DD240E94EA114B
:100AE0001F910F91FF90EF90DF90CF9008952D9A76
:100AF00008952D980895CF92DF92EF92FF920F9371
:100B00001F93CF93DF938C01EB01209729F060E0D6
:100B100070E00E94770504C060E070E00E947905F3
:100B2000CC24DD24C394209711F0CC24DD2469E08B
:100B30007DE380E090E020E030E0A9010F2EFBE7AC
:100B4000EF2EF5E0FF2EF02D0E94EA11DF91CF91FC
:100B50001F910F91FF90EF90DF90CF9008950F932A
:100B60001F93CF93DF93EC01BE01882777FD80951B
:100B7000982F0E9454150E94BC150E9421159B01BC
:100B80002F5F3F4F223031058CF000E010E0E2E0B3
:100B9000F0E0CE01BF010E941216009711F40F5F22
:100BA0001F4F31962E173F07A4F702C000E010E058
:100BB00081E090E00115110511F080E090E0DF91F7
:100BC000CF911F910F910895CF92DF92EF92FF92F4
:100BD0000F931F93CF93DF937C01EB0100E010E0B4
:100BE00007C08FE7CF3FD80711F0219601C0E80179
:100BF000CE010E94AF050097A1F3F7018481958192
:100C000061E974E0AE010E9401136E010894C11CF9
:100C1000D11C65E37CE080E090E020E030E0A901B9
:100C200087010F2EF4EEEF2EF5E0FF2EF02D0E943F
:100C3000EA11DF91CF911F910F91FF90EF90DF901C
:100C4000CF900895FC01778366830895AF92BF9299
:100C5000CF92DF92EF92FF920F931F93CF93DF9388
:100C6000EC015B016E817F8189E09DE30E94121699
:100C7000CB01AC01662757FD6095762F81E090E0AF
:100C80006C01CA18DB08CB01BA0128E331E040E06F
:100C900050E08E010F2EF6E2EF2EF6E0FF2EF02D43
:100CA0000E94EA11A114B10499F00C811D8160E049
:100CB00070E0CB0120E030E0A9010F2EF9E7EF2E24
:100CC000F5E0FF2EF02DCC24DD240E94EA1112C0A5
:100CD0000C811D8160E070E0CB0120E030E0A901D3
:100CE0000F2EF7E7EF2EF5E0FF2EF02DCC24DD24BC
:100CF0000E94EA11DF91CF911F910F91FF90EF9029
:100D0000DF90CF90BF90AF900895AF92BF92CF92F7
:100D1000DF92EF92FF920F931F93CF93DF93EC013B
:100D20005B016E817F816115710571F182E19AE746
:100D30000E941216CB01AC01662757FD6095762FF5
:100D400081E090E06C01CA18DB08CB01BA012CE904
:100D500030E040E050E08E010F2EF5E8EF2EF6E097
:100D6000FF2EF02D0E94EA11A114B10439F08C81FC
:100D70009D8160E070E00E94790506C08C819D81B4
:100D800060E070E00E947705DF91CF911F910F9195
:100D9000FF90EF90DF90CF90BF90AF90089560E00C
:100DA00070E00E9485060895CF92DF92EF92FF9245
:100DB0000F931F938C0160E070E0CB0120E030E0E6
:100DC000A9010F2EF2E2EF2EF6E0FF2EF02DCC243B
:100DD000DD240E94EA111F910F91FF90EF90DF90A8
:100DE000CF900895CF93DF93EB01E881F98130979D
:100DF000F9F0E817F90711F412C0FD01A081B181E3
:100E00001097C9F08A179B07C1F7309749F08D9169
:100E10009C9111979183808381E090E00EC0DF0167
:100E20008D919C9111979983888381E090E005C012
:100E300080E090E002C080E090E0DF91CF910895E3
:100E4000CF93DF9300D0CDB7DEB79A8389838091AB
:100E500042019091430106960E947616009759F43C
:100E600089819A819093430180934201069661E0C3
:100E700070E00E9496160F900F90DF91CF91089529
:100E8000FC018081882321F0319681918823E9F744
:100E90000895CF93DF9300D000D000D0CDB7DEB758
:100EA000E7E4F2E081E090E09C0122953295307F0A
:100EB0003227207F3227295B3D4F318320830196E3
:100EC00070968F30910581F71092280310922703B6
:100ED00082E991E09C01235E3F4F30939301209380
:100EE00092019C01265C3F4F3093B0012093AF01EB
:100EF00029EE31E03093CD012093CC011092EA012C
:100F00001092E9019C012C5F3F4F3E832D831A8292
:100F1000198289819A81880F991F880F991F9C01D6
:100F2000220F331F220F331F220F331F281B390BB1
:100F300049815A81240F351FC90188569E4F9C83D1
:100F40008B830E947616E981FA8120E630E0E29FE9
:100F5000C001E39F900DF29F900D11248D569C4F80
:100F6000EB81FC81918B808B938B828B2EE933E11B
:100F7000368B258BED81FE811182108229813A8189
:100F80002F5F3F4F3A8329837D96FE83ED83243084
:100F9000310509F0BECF10922B0210922A02109256
:100FA0002F0210922E0210922D0210922C028EE12E
:100FB00091E00E9440078CE291E00E9440078FE39D
:100FC00091E00E944007E1E6F0E080E88083108233
:100FD000109285001092840084E08093810081E06B
:100FE00080936F0026960FB6F894DEBF0FBECDBF7C
:100FF000DF91CF91089520E030E02F5F3F4F929531
:1010000082958F7089279F7089270097B1F72115E6
:10101000310519F021503040E9F7089508950895F9
:101020000F931F93CF93DF939C018B01DB01CD9135
:10103000DC911197209751F1FC0146815781608521
:1010400071858E819F81A885B985481759076A07E0
:101050007B0714F41BC0EF01E881F981309749F058
:1010600086819781A085B185481759076A077B0754
:1010700094F7D9011196FC93EE93209721F4F8018F
:101080003183208308C03983288305C0D901119694
:10109000DC93CE93F4CFDF91CF911F910F91089500
:1010A0000F931F93CF93DF939C018B01DB01CD91B5
:1010B000DC911197209751F1FC01428153816481A9
:1010C00075818A819B81AC81BD81481759076A0768
:1010D0007B0714F41BC0EF01E881F981309749F0D8
:1010E00082819381A481B581481759076A077B07DC
:1010F00094F7D9011196FC93EE93209721F4F8010F
:101100003183208308C03983288305C0D901119613
:10111000DC93CE93F4CFDF91CF911F910F9108957F
:10112000DC01ED91FC911197309741F08081918124
:1011300011969C938E938E2F9F2F08958FEF8093FF
:10114000EC008093ED008093EE0081E083BF8895F2
:10115000FDCFFB0120813181DC0111963C932E9360
:10116000918380830895FB0120813181DC011196F8
:101170003C932E93918380830895DC01ED91FC9143
:1011800011978081918111969C938E938E2F9F2F22
:101190000895E0914401F09145010280F381E02D32
:1011A000A0916C01B0916D01109729F180914601D9
:1011B000909147010097F9F0309779F016968D914C
:1011C0009D910D90BC91A02D4681578160857185C0
:1011D000841B950BA60BB70B72F486E491E00E947A
:1011E000BD0864E471E00E94B308809144019091CD
:1011F00045010E94200708951F920F920FB60F928B
:1012000011240F931F932F933F934F935F936F93EB
:101210007F938F939F93AF93BF93EF93FF938091AF
:101220006401909165012091840030918500AC01AA
:10123000662757FD6095762FBA0155274427890107
:1012400020E030E0402B512B622B732B4093660142
:10125000509367016093680170936901B09B1AC055
:1012600040918400509185000196AA2797FDA09592
:10127000BA2FDC019927882760E070E0842B952B3A
:10128000A62BB72B8093660190936701A09368010A
:10129000B0936901E0912802F0912902309739F06A
:1012A000809190019091910161E170E009950E9417
:1012B000C908FF91EF91BF91AF919F918F917F915D
:1012C0006F915F914F913F912F911F910F910F90CF
:1012D0000FBE0F901F9018951F920F920FB60F928E
:1012E00011240F931F932F933F934F935F936F930B
:1012F0007F938F939F93AF93BF93EF93FF938091CF
:101300006401909165012091840030918500AC01C9
:10131000662757FD6095762FBA0155274427890126
:1013200020E030E0402B512B622B732B4093660161
:10133000509367016093680170936901B09B1AC074
:1013400040918400509185000196AA2797FDA095B1
:10135000BA2FDC019927882760E070E0842B952B59
:10136000A62BB72B8093660190936701A093680129
:10137000B0936901E0912602F0912702309739F08D
:1013800080918E0190918F0160E170E009950E943B
:10139000C908FF91EF91BF91AF919F918F917F917C
:1013A0006F915F914F913F912F911F910F910F90EE
:1013B0000FBE0F901F9018951F920F920FB60F92AD
:1013C00011240F931F932F933F934F935F936F932A
:1013D0007F938F939F93AF93BF93EF93FF938091EE
:1013E0006401909165012091840030918500AC01E9
:1013F000662757FD6095762FBA0155274427890146
:1014000020E030E0402B512B622B732B4093660180
:10141000509367016093680170936901B09B1AC093
:1014200040918400509185000196AA2797FDA095D0
:10143000BA2FDC019927882760E070E0842B952B78
:10144000A62BB72B8093660190936701A093680148
:10145000B0936901E0912402F0912502309739F0B0
:1014600080918C0190918D016FE070E009950E9450
:10147000C908FF91EF91BF91AF919F918F917F919B
:101480006F915F914F913F912F911F910F910F900D
:101490000FBE0F901F9018951F920F920FB60F92CC
:1014A00011240F931F932F933F934F935F936F9349
:1014B0007F938F939F93AF93BF93EF93FF9380910D
:1014C0006401909165012091840030918500AC0108
:1014D000662757FD6095762FBA0155274427890165
:1014E00020E030E0402B512B622B732B40936601A0
:1014F000509367016093680170936901B09B1AC0B3
:1015000040918400509185000196AA2797FDA095EF
:10151000BA2FDC019927882760E070E0842B952B97
:10152000A62BB72B8093660190936701A093680167
:10153000B0936901E0912202F0912302309739F0D3
:1015400080918A0190918B016EE070E009950E9474
:10155000C908FF91EF91BF91AF919F918F917F91BA
:101560006F915F914F913F912F911F910F910F902C
:101570000FBE0F901F9018951F920F920FB60F92EB
:1015800011240F931F932F933F934F935F936F9368
:101590007F938F939F93AF93BF93EF93FF9380912C
:1015A0006401909165012091840030918500AC0127
:1015B000662757FD6095762FBA0155274427890184
:1015C00020E030E0402B512B622B732B40936601BF
:1015D000509367016093680170936901B09B1AC0D2
:1015E00040918400509185000196AA2797FDA0950F
:1015F000BA2FDC019927882760E070E0842B952BB7
:10160000A62BB72B8093660190936701A093680186
:10161000B0936901E0912002F0912102309739F0F6
:1016200080918801909189016DE070E009950E9498
:10163000C908FF91EF91BF91AF919F918F917F91D9
:101640006F915F914F913F912F911F910F910F904B
:101650000FBE0F901F9018951F920F920FB60F920A
:1016600011240F931F932F933F934F935F936F9387
:101670007F938F939F93AF93BF93EF93FF9380914B
:101680006401909165012091840030918500AC0146
:10169000662757FD6095762FBA01552744278901A3
:1016A00020E030E0402B512B622B732B40936601DE
:1016B000509367016093680170936901B09B1AC0F1
:1016C00040918400509185000196AA2797FDA0952E
:1016D000BA2FDC019927882760E070E0842B952BD6
:1016E000A62BB72B8093660190936701A0936801A6
:1016F000B0936901E0911E02F0911F02309739F01A
:1017000080918601909187016CE070E009950E94BC
:10171000C908FF91EF91BF91AF919F918F917F91F8
:101720006F915F914F913F912F911F910F910F906A
:101730000FBE0F901F9018951F920F920FB60F9229
:1017400011240F931F932F933F934F935F936F93A6
:101750007F938F939F93AF93BF93EF93FF9380916A
:101760006401909165012091840030918500AC0165
:10177000662757FD6095762FBA01552744278901C2
:1017800020E030E0402B512B622B732B40936601FD
:10179000509367016093680170936901B09B1AC010
:1017A00040918400509185000196AA2797FDA0954D
:1017B000BA2FDC019927882760E070E0842B952BF5
:1017C000A62BB72B8093660190936701A0936801C5
:1017D000B0936901E0911C02F0911D02309739F03D
:1017E00080918401909185016BE070E009950E94E1
:1017F000C908FF91EF91BF91AF919F918F917F9118
:101800006F915F914F913F912F911F910F910F9089
:101810000FBE0F901F9018951F920F920FB60F9248
:1018200011240F931F932F933F934F935F936F93C5
:101830007F938F939F93AF93BF93EF93FF93809189
:101840006401909165012091840030918500AC0184
:10185000662757FD6095762FBA01552744278901E1
:1018600020E030E0402B512B622B732B409366011C
:10187000509367016093680170936901B09B1AC02F
:1018800040918400509185000196AA2797FDA0956C
:10189000BA2FDC019927882760E070E0842B952B14
:1018A000A62BB72B8093660190936701A0936801E4
:1018B000B0936901E0911A02F0911B02309739F060
:1018C00080918201909183016AE070E009950E9405
:1018D000C908FF91EF91BF91AF919F918F917F9137
:1018E0006F915F914F913F912F911F910F910F90A9
:1018F0000FBE0F901F9018951F920F920FB60F9268
:1019000011240F931F932F933F934F935F936F93E4
:101910007F938F939F93AF93BF93EF93FF938091A8
:101920006401909165012091840030918500AC01A3
:10193000662757FD6095762FBA0155274427890100
:1019400020E030E0402B512B622B732B409366013B
:10195000509367016093680170936901B09B1AC04E
:1019600040918400509185000196AA2797FDA0958B
:10197000BA2FDC019927882760E070E0842B952B33
:10198000A62BB72B8093660190936701A093680103
:10199000B0936901E0911802F0911902309739F083
:1019A000809180019091810169E070E009950E9429
:1019B000C908FF91EF91BF91AF919F918F917F9156
:1019C0006F915F914F913F912F911F910F910F90C8
:1019D0000FBE0F901F9018951F920F920FB60F9287
:1019E00011240F931F932F933F934F935F936F9304
:1019F0007F938F939F93AF93BF93EF93FF938091C8
:101A00006401909165012091840030918500AC01C2
:101A1000662757FD6095762FBA015527442789011F
:101A200020E030E0402B512B622B732B409366015A
:101A3000509367016093680170936901B09B1AC06D
:101A400040918400509185000196AA2797FDA095AA
:101A5000BA2FDC019927882760E070E0842B952B52
:101A6000A62BB72B8093660190936701A093680122
:101A7000B0936901E0911602F0911702309739F0A6
:101A800080917E0190917F0168E070E009950E944D
:101A9000C908FF91EF91BF91AF919F918F917F9175
:101AA0006F915F914F913F912F911F910F910F90E7
:101AB0000FBE0F901F9018951F920F920FB60F92A6
:101AC00011240F931F932F933F934F935F936F9323
:101AD0007F938F939F93AF93BF93EF93FF938091E7
:101AE0006401909165012091840030918500AC01E2
:101AF000662757FD6095762FBA015527442789013F
:101B000020E030E0402B512B622B732B4093660179
:101B1000509367016093680170936901B09B1AC08C
:101B200040918400509185000196AA2797FDA095C9
:101B3000BA2FDC019927882760E070E0842B952B71
:101B4000A62BB72B8093660190936701A093680141
:101B5000B0936901E0911402F0911502309739F0C9
:101B600080917C0190917D0167E070E009950E9471
:101B7000C908FF91EF91BF91AF919F918F917F9194
:101B80006F915F914F913F912F911F910F910F9006
:101B90000FBE0F901F9018951F920F920FB60F92C5
:101BA00011240F931F932F933F934F935F936F9342
:101BB0007F938F939F93AF93BF93EF93FF93809106
:101BC0006401909165012091840030918500AC0101
:101BD000662757FD6095762FBA015527442789015E
:101BE00020E030E0402B512B622B732B4093660199
:101BF000509367016093680170936901B09B1AC0AC
:101C000040918400509185000196AA2797FDA095E8
:101C1000BA2FDC019927882760E070E0842B952B90
:101C2000A62BB72B8093660190936701A093680160
:101C3000B0936901E0911202F0911302309739F0EC
:101C400080917A0190917B0166E070E009950E9495
:101C5000C908FF91EF91BF91AF919F918F917F91B3
:101C60006F915F914F913F912F911F910F910F9025
:101C70000FBE0F901F9018951F920F920FB60F92E4
:101C800011240F931F932F933F934F935F936F9361
:101C90007F938F939F93AF93BF93EF93FF93809125
:101CA0006401909165012091840030918500AC0120
:101CB000662757FD6095762FBA015527442789017D
:101CC00020E030E0402B512B622B732B40936601B8
:101CD000509367016093680170936901B09B1AC0CB
:101CE00040918400509185000196AA2797FDA09508
:101CF000BA2FDC019927882760E070E0842B952BB0
:101D0000A62BB72B8093660190936701A09368017F
:101D1000B0936901E0911002F0911102309739F00F
:101D2000809178019091790165E070E009950E94B9
:101D3000C908FF91EF91BF91AF919F918F917F91D2
:101D40006F915F914F913F912F911F910F910F9044
:101D50000FBE0F901F9018951F920F920FB60F9203
:101D600011240F931F932F933F934F935F936F9380
:101D70007F938F939F93AF93BF93EF93FF93809144
:101D80006401909165012091840030918500AC013F
:101D9000662757FD6095762FBA015527442789019C
:101DA00020E030E0402B512B622B732B40936601D7
:101DB000509367016093680170936901B09B1AC0EA
:101DC00040918400509185000196AA2797FDA09527
:101DD000BA2FDC019927882760E070E0842B952BCF
:101DE000A62BB72B8093660190936701A09368019F
:101DF000B0936901E0910E02F0910F02309739F033
:101E0000809176019091770164E070E009950E94DD
:101E1000C908FF91EF91BF91AF919F918F917F91F1
:101E20006F915F914F913F912F911F910F910F9063
:101E30000FBE0F901F9018951F920F920FB60F9222
:101E400011240F931F932F933F934F935F936F939F
:101E50007F938F939F93AF93BF93EF93FF93809163
:101E60006401909165012091840030918500AC015E
:101E7000662757FD6095762FBA01552744278901BB
:101E800020E030E0402B512B622B732B40936601F6
:101E9000509367016093680170936901B09B1AC009
:101EA00040918400509185000196AA2797FDA09546
:101EB000BA2FDC019927882760E070E0842B952BEE
:101EC000A62BB72B8093660190936701A0936801BE
:101ED000B0936901E0910C02F0910D02309739F056
:101EE000809174019091750163E070E009950E9402
:101EF000C908FF91EF91BF91AF919F918F917F9111
:101F00006F915F914F913F912F911F910F910F9082
:101F10000FBE0F901F9018951F920F920FB60F9241
:101F200011240F931F932F933F934F935F936F93BE
:101F30007F938F939F93AF93BF93EF93FF93809182
:101F40006401909165012091840030918500AC017D
:101F5000662757FD6095762FBA01552744278901DA
:101F600020E030E0402B512B622B732B4093660115
:101F7000509367016093680170936901B09B1AC028
:101F800040918400509185000196AA2797FDA09565
:101F9000BA2FDC019927882760E070E0842B952B0D
:101FA000A62BB72B8093660190936701A0936801DD
:101FB000B0936901E0910A02F0910B02309739F079
:101FC000809172019091730162E070E009950E9426
:101FD000C908FF91EF91BF91AF919F918F917F9130
:101FE0006F915F914F913F912F911F910F910F90A2
:101FF0000FBE0F901F9018951F920F920FB60F9261
:1020000011240F931F932F933F934F935F936F93DD
:102010007F938F939F93AF93BF93EF93FF938091A1
:102020006401909165012091840030918500AC019C
:10203000662757FD6095762FBA01552744278901F9
:1020400020E030E0402B512B622B732B4093660134
:10205000509367016093680170936901B09B1AC047
:1020600040918400509185000196AA2797FDA09584
:10207000BA2FDC019927882760E070E0842B952B2C
:10208000A62BB72B8093660190936701A0936801FC
:10209000B0936901E0910802F0910902309739F09C
:1020A000809170019091710161E070E009950E944A
:1020B000C908FF91EF91BF91AF919F918F917F914F
:1020C0006F915F914F913F912F911F910F910F90C1
:1020D0000FBE0F901F9018951F920F920FB60F9280
:1020E00011240F931F932F933F934F935F936F93FD
:1020F0007F938F939F93AF93BF93EF93FF938091C1
:102100006401909165012091840030918500AC01BB
:10211000662757FD6095762FBA0155274427890118
:1021200020E030E0402B512B622B732B4093660153
:10213000509367016093680170936901B09B1AC066
:1021400040918400509185000196AA2797FDA095A3
:10215000BA2FDC019927882760E070E0842B952B4B
:10216000A62BB72B8093660190936701A09368011B
:10217000B0936901E0910602F0910702309739F0BF
:1021800080916E0190916F0160E070E009950E946E
:10219000C908FF91EF91BF91AF919F918F917F916E
:1021A0006F915F914F913F912F911F910F910F90E0
:1021B0000FBE0F901F9018951F920F920FB60F929F
:1021C00011242F933F938F939F93AF93BF93EF93DC
:1021D000FF9320916401309165012F5F3F4F309351
:1021E000650120936401E0916A01F0916B013097E1
:1021F00009F182819381A481B5812A173B07D1F42B
:10220000209184003091850020953095280F391F4A
:102210002115310529F48091840090918500019663
:102220009093890080938800EFE6F0E080818260DF
:10223000808305C0EFE6F0E080818D7F8083FF9191
:10224000EF91BF91AF919F918F913F912F910F90FF
:102250000FBE0F901F9018951F920F920FB60F92FE
:102260001124CF92DF92EF92FF920F931F932F933F
:102270003F934F935F936F937F938F939F93AF930E
:10228000BF93CF93DF93EF93FF93C0906401D090FF
:1022900065018091840090918500B0990EC0EE2474
:1022A000D7FCE094FE2C7601DD24CC24A0E0B0E045
:1022B000C82AD92AEA2AFB2A14C080918400909166
:1022C00085000894C11CD11CEE24D7FCE094FE2CA0
:1022D0007601DD24CC24A0E0B0E0C82AD92AEA2A7D
:1022E000FB2AE0916A01F0916B01309709F446C036
:1022F00082819381A481B5818C199D09AE09BF09A2
:10230000181619061A061B060CF458C0CAE6D1E0C6
:102310000CE611E0CE010E949008B8010E9410085E
:10232000E0916A01F0916B01309741F182819381D4
:10233000A481B5818C199D09AE09BF09181619062B
:102340001A061B063CF73AC02091840030918500A4
:1023500020953095280F391F2115310529F48091DA
:102360008400909185000196909389008093880065
:10237000EFE6F0E080818260808305C0EFE6F0E068
:1023800080818D7F80830E94C908FF91EF91DF914A
:10239000CF91BF91AF919F918F917F916F915F91FD
:1023A0004F913F912F911F910F91FF90EF90DF90F0
:1023B000CF900F900FBE0F901F9018958281938140
:1023C000A481B58120916401309165012A173B07F2
:1023D000A9F6BACF3F924F925F926F927F928F92FF
:1023E0009F92AF92BF92CF92DF92EF92FF920F93A4
:1023F0001F93CF93DF932B013C0149015A018FB703
:102400000F2EF0E83F2EF02D3822F89488E491E06A
:102410000E949008EC011B870A87FD86EC86DF8608
:10242000CE86332061F0E0914201F09143010280B9
:10243000F381E02D428153816481758108C0409110
:102440006601509167016091680170916901440DC6
:10245000551D661D771D4A835B836C837D8318142D
:1024600019041A041B0454F00F2EFFEF8F2EFFEFF8
:102470009F2EFFEFAF2EFFE7BF2EF02D840E951E8F
:10248000A61EB71E8E829F82A886B986809164019F
:1024900090916501E0918400F0918500B0990FC0A2
:1024A000AA2797FDA095BA2F9C0111270027CF01DD
:1024B000A0E0B0E0802B912BA22BB32B13C0E091B6
:1024C0008400F09185000196AA2797FDA095BA2F68
:1024D0009C0111270027CF01A0E0B0E0802B912BB9
:1024E000A22BB32B481B590B6A0B7B0B141615063A
:1024F00016061706B4F5CE016AE671E00E94500890
:10250000E0916A01F0916B01309729F1428153818A
:1025100064817581809164019091650186179707A8
:10252000D1F4809184009091850080959095840FDE
:10253000951F009731F440918400509185004F5FC2
:102540005F4F5093890040938800EFE6F0E0808170
:10255000826080833FC0EFE6F0E080818D7F8083E2
:1025600039C0CE016CE671E00E9410083320A9F159
:102570008091460190914701009771F1E0916C01C3
:10258000F0916D01A0914401B091450112960D901A
:10259000BC91A02D468157816085718516968D91DD
:1025A0009D910D90BC91A02D8A019B01081B190BD8
:1025B0002A0B3B0B8AF486E491E00E94BD0864E498
:1025C00071E00E94B30880914401909145010E94FE
:1025D000200702C0332009F078948C2F9D2FDF91C3
:1025E000CF911F910F91FF90EF90DF90CF90BF9010
:1025F000AF909F908F907F906F905F904F903F90A3
:102600000895AF92BF92CF92DF92FF920F931F93E4
:10261000CF93DF938C015B016A018FB70F2EF0E837
:10262000FF2EF02DF822F894D801CD91DC9111976E
:10263000209709F43FC0EC81FD81309731F0C081D3
:10264000D181EC81FD813097D1F7E0914201F09189
:102650004301CE17DF0721F0FF2009F459C007C05E
:10266000FF2009F458C07894CFEFDFEF56C0D801AF
:1026700012968D919C911397009729F0DC01159685
:102680001C921E921497D8011396FC93EE93129706
:1026900015830483CE010E942007E0914201F0914E
:1026A000430182819381009709F043C07894C0E090
:1026B000D0E033C08091420190914301F8019183B1
:1026C0008083FF2049F0D80112968D919C91139739
:1026D0008130910509F07894C801B601F50109959A
:1026E000EC018FB7F894F8011182108282819381F6
:1026F0008230910548F013821282DC0115961C92FB
:102700001E9214970E942007FF2039F0789405C08C
:10271000CFEFDFEF02C0CFEFDFEF8C2F9D2FDF91E8
:10272000CF911F910F91FF90DF90CF90BF90AF900E
:102730000895D8011196FC93EE93C5CF0F2EFCE6B9
:10274000EF2EF1E0FF2EF02D0F2EF8E4CF2EF1E06A
:10275000DF2EF02D0F2EF4E4AF2EF1E0BF2EF02D82
:102760000F2EF6E48F2EF1E09F2EF02DC091420146
:10277000D0914301C7010E9490088C019B838A83FA
:102780007894FC0164857585468557858285938597
:102790000E9401138FB7F894C801B6010E94A908DE
:1027A000E0914401F09145010190F081E02DA2817A
:1027B000B381E0916C01F0916D013097B1F0109709
:1027C000A9F2468157816085718516968D919D91FC
:1027D0000D90BC91A02D481B590B6A0B7B0B141656
:1027E0001506160617060CF0C1CFC5010E94BD08DC
:1027F000B4010E94B308A0914401B0914501149620
:10280000ED91FC911597309741F0A081B18114961C
:10281000ED91FC9115973097C1F7CD010E942007EB
:10282000A5CF1F93CF93DF93EC011FB71078F894D7
:102830006AE671E00E94F206009739F4CE016CE678
:1028400071E00E94F206009731F0CE0168E471E079
:102850000E94A90826C0E0914401F09145013097FB
:1028600001F14091420150914301E417F507A1F0B5
:10287000828193818C179D0779F4848195812A85C3
:102880003B858217930741F413821282CE0168E4DC
:1028900071E00E94A90805C00190F081E02D3097F9
:1028A00021F7112309F07894DF91CF911F910895BA
:1028B0000FB607FE0CC0E0914201F0914301028087
:1028C000F381E02D428153816481758108C040917C
:1028D0006601509167016091680170916901FC0186
:1028E000408351836283738308950F931F930FB6C0
:1028F00007FE0CC0E0914201F09143010280F38198
:10290000E02D028113812481358108C00091660188
:10291000109167012091680130916901FC0180816B
:102920009181A281B381081B190B2A0B3B0B602FED
:10293000712F822F932F1F910F9108950F931F9343
:102940004FB74078F894009164011091650180912F
:10295000840090918500B0990EC0222717FD209524
:10296000322F980111270027A0E0B0E0082B192B87
:102970002A2B3B2B13C080918400909185000F5F20
:102980001F4F222717FD2095322F9801112700276E
:10299000A0E0B0E0082B192B2A2B3B2B442369F035
:1029A0007894E0914201F09143010280F381E02D9F
:1029B00082819381A481B58108C080916601909144
:1029C0006701A0916801B0916901081B190B2A0BDE
:1029D0003B0B602F712F822F932F1F910F91089522
:1029E0004231B8F4AFB7F89450E0440F551FFA01E4
:1029F000E259FE4F918380834A5F5D4FFA017183F4
:102A0000608321E030E0FC0133832283AA230CF4AD
:102A1000789408958C01EB017A018FB7F8940E94A5
:102A200049077894209721F0C801B701FE01099564
:102A30008FB7F8940E94C908789481E083BF889585
:102A4000FDCF04D06894B1118DC0089570D088F086
:102A50009F5790F0B92F9927B751A0F0D1F0660F8A
:102A6000771F881F991F1AF0BA95C9F712C0B130A5
:102A700081F077D0B1E0089574C0672F782F882750
:102A8000B85F39F0B93FCCF3869577956795B395E4
:102A9000D9F73EF490958095709561957F4F8F4F53
:102AA0009F4F0895E89409C097FB3EF49095809558
:102AB000709561957F4F8F4F9F4F9923A9F0F92F04
:102AC00096E9BB279395F695879577956795B79582
:102AD000F111F8CFFAF4BB0F11F460FF1BC06F5F68
:102AE0007F4F8F4F9F4F16C0882311F096E911C07A
:102AF000772321F09EE8872F762F05C0662371F09B
:102B000096E8862F70E060E02AF09A95660F771FAE
:102B1000881FDAF7880F9695879597F9089557FDDE
:102B20009058440F551F59F05F3F71F04795880F3B
:102B300097FB991F61F09F3F79F0879508951216D2
:102B400013061406551FF2CF4695F1DF08C016167E
:102B500017061806991FF1CF86957105610508942F
:102B60000895E894BB2766277727CB0197F9089546
:102B700011F40EF44DC03EC0DADFD0F39923D9F33F
:102B8000CEF39F57550B87FF46D00024A0E640EABE
:102B9000900180585695979528F4805C660F771FB2
:102BA000881F20F026173707480730F4621B730B85
:102BB000840B202931294A2BA695179407942025A8
:102BC00031254A2758F7660F771F881F20F02617F0
:102BD0003707480730F4620B730B840B200D311D4F
:102BE000411DA09581F7B901842F9158880F9695C2
:102BF000879508959F3F31F0915020F48795779500
:102C00006795B795880F911D9695879597F90895C3
:102C10009FEF80EC089591505040660F771F881FFA
:102C2000D2F7089597FB092E07260AD077FD04D026
:102C300027D006D000201AF4709561957F4F089533
:102C4000F6F7909581959F4F089597FB092E0526DD
:102C50000ED057FD04D028D00AD0001C38F450956F
:102C60004095309521953F4F4F4F5F4F0895F6F7B0
:102C700090958095709561957F4F8F4F9F4F0895E8
:102C8000AA1BBB1B51E107C0AA1FBB1FA617B70792
:102C900010F0A61BB70B881F991F5A95A9F78095AE
:102CA0009095BC01CD010895A1E21A2EAA1BBB1B71
:102CB000FD010DC0AA1FBB1FEE1FFF1FA217B30708
:102CC000E407F50720F0A21BB30BE40BF50B661F1E
:102CD000771F881F991F1A9469F7609570958095E2
:102CE00090959B01AC01BD01CF010895DC012D92AF
:102CF0003D924D925D926D927D928D929D92AD929C
:102D0000BD92CD92DD92ED92FD920D931D93CD93E8
:102D1000DD93FF91EF918DB78D938EB78D938FB724
:102D20008D93ED93FD93882799270994DC01CB01BE
:102D300081309105811D2D903D904D905D906D905D
:102D40007D908D909D90AD90BD90CD90DD90ED905B
:102D5000FD900D911D91CD91DD91ED91FD910D9025
:102D6000F894FEBF0FBEEDBFED91FD910994F8946C
:022D7000FFCF93
:102D7200000000001801080100000000100100001E
:102D8200000000005C0100000000000060010A0D6C
:102D920054696E7954696D626572200076322E3004
:102DA200312028323031322D30312D323429000A8F
:102DB2000D002A022A0292014702303132333435A1
:0C2DC20036373839414243444546000092
:00000001FF
