:100000000C942E000C944B000C944B000C944B0061
:100010000C944B000C944B000C944B000C944B0034
:100020000C944B000C944B000C944B000C944B0024
:100030000C944B000C944B000C944B000C944B0014
:100040000C944B000C944B000C944B000C944B0004
:100050000C944B000C944B000C944B0011241FBECD
:10006000CFEFD4E0DEBFCDBF11E0A0E0B1E0ECED1A
:10007000F8E002C005900D92A431B107D9F711E064
:10008000A4E1B1E001C01D92A431B107E1F70E94E3
:1000900097020C946C040C94000080E88093E400B8
:1000A00087EB8093E5000895E82F80538A3008F0AD
:1000B00044C16230710509F47BC06330710544F4BA
:1000C0006115710591F06130710509F036C13DC0CF
:1000D0006430710509F4CFC0643071050CF498C028
:1000E0006530710509F029C1F6C08091EC00F0E09F
:1000F000EE0FFF1FE056FF4F20813181932F929525
:100100009F70807F892B8093EC004091F100832FBA
:10011000992787FD9A958F70407F842B8093F100FB
:100120004091F600C901E4E095958795EA95E1F7DD
:100130008F70407F842B8093F6008091FB002F709E
:10014000807F282B2093FB0008952091EC00F0E0A5
:10015000EE0FFF1FE056FF4F40815181852F9927F9
:1001600087FD9A95807F2F70822B8093EC002091E1
:10017000F100CA0134E0959587953A95E1F7807FC3
:100180002F70822B8093F1008091F600942F907F46
:100190008F70982B9093F6008091FB00B4E0440F91
:1001A000551FBA95E1F78F70842B8093FB0008955B
:1001B0008091ED00F0E0EE0FFF1FE056FF4F208131
:1001C0003181932F92959F70807F892B8093ED00D2
:1001D0004091F200832F992787FD9A958F70407F79
:1001E000842B8093F2004091F700C901E4E09595DB
:1001F0008795EA95E1F78F70407F842B8093F70015
:100200008091FC002F70807F282B2093FC000895A4
:100210002091ED00F0E0EE0FFF1FE056FF4F408110
:100220005181852F992787FD9A95807F2F70822B8A
:100230008093ED002091F200CA0134E095958795F6
:100240003A95E1F7807F2F70822B8093F2008091A6
:10025000F700942F907F8F70982B9093F7008091E8
:10026000FC00B4E0440F551FBA95E1F78F70842B62
:100270008093FC0008958091EE00F0E0EE0FFF1FE8
:10028000E056FF4F20813181932F92959F70807FA0
:10029000892B8093EE004091F300832F992787FDEF
:1002A0009A958F70407F842B8093F3004091F800E3
:1002B000C901E4E095958795EA95E1F78F70407F55
:1002C000842B8093F8008091FD002F70807F282B75
:1002D0002093FD0008952091EE00F0E0EE0FFF1F47
:1002E000E056FF4F40815181852F992787FD9A95D0
:1002F000807F2F70822B8093EE002091F300CA0143
:1003000034E0959587953A95E1F7807F2F70822BA1
:100310008093F3008091F800942F907F8F70982B3A
:100320009093F8008091FD0094E0440F551F9A953A
:10033000E1F78F70842B8093FD0008958F929F9238
:10034000AF92BF92CF92DF92EF92FF920F931F93E3
:10035000DF93CF93CDB7DEB728970FB6F894DEBF03
:100360000FBECDBF5B016C01CB01D601BC01CD013D
:1003700011E001C01F5F2AE030E040E050E00E9441
:100380002F04C901DA01BC01CD0161157105810598
:10039000910581F7173008F016E0E12EB5E0FB2E4D
:1003A0004E010894811C911C1CC0C4018F0D911D2D
:1003B00098878F83B501C6012AE030E040E050E025
:1003C0000E942F04EF81F8856083B501C6012AE001
:1003D00030E040E050E00E942F0459016A01FA9495
:1003E000EA94EE2011F705E07E010894E11CF11C6F
:1003F0000BC0602F70E0F701E60FF71F8081805D72
:100400000E94540001501150112399F728960FB6FD
:10041000F894DEBF0FBECDBFCF91DF911F910F913A
:10042000FF90EF90DF90CF90BF90AF909F908F9014
:1004300008956F927F928F929F92AF92BF92CF92C8
:10044000DF92EF92FF920F931F935B016C0182E0AA
:10045000A816B104C104D10490F182E0A816B10439
:10046000C104D10479F1C601B5010E943E030E9486
:10047000CE0320E030E040E85FE30E94A7020E9444
:100480000B033B014C0112E0E12EF12C012D112D4B
:1004900010C0C601B501A80197010E942F04611583
:1004A00071058105910559F00894E11CF11C011DAD
:1004B000111DE614F704080519055CF303C020E0DC
:1004C00030E002C021E030E0C9011F910F91FF90A0
:1004D000EF90DF90CF90BF90AF909F908F907F90E4
:1004E0006F900895AF92BF92CF92DF92EF92FF92FA
:1004F0000F931F9301E0E02EF12C012D112D05C06B
:100500000894E11CF11C011D111D5701680108949C
:10051000A108B108C108D108C601B5010E9419029D
:10052000892B71F3C601B5010E949E01E9CFE1E676
:10053000F0E080E8808310828093E40087EB809372
:10054000E5000E94720280E090E008955058BB27B9
:10055000AA270ED0E5C0D6D030F0DBD020F031F4A1
:100560009F3F11F41EF4CBC00EF4E095E7FBC1C031
:10057000E92FE7D080F3BA1762077307840795075E
:1005800018F071F49EF5FFC00EF4E0950B2EBA2F13
:10059000A02D0B01B90190010C01CA01A001112489
:1005A000FF27591B99F0593F50F4503E68F11A1635
:1005B000F040A22F232F342F4427585FF3CF4695C6
:1005C00037952795A795F0405395C9F77EF41F16E8
:1005D000BA0B620B730B840BBAF09150A1F0FF0FB2
:1005E000BB1F661F771F881FC2F70EC0BA0F621F9E
:1005F000731F841F48F4879577956795B795F7958E
:100600009E3F08F0B3CF9395880F08F09927EE0F1F
:1006100097958795089504D06894B111B5C0089551
:1006200098D088F09F5790F0B92F9927B751A0F034
:10063000D1F0660F771F881F991F1AF0BA95C9F776
:1006400012C0B13081F09FD0B1E008959CC0672FF7
:10065000782F8827B85F39F0B93FCCF38695779526
:100660006795B395D9F73EF490958095709561950F
:100670007F4F8F4F9F4F0895E89409C097FB3EF43A
:1006800090958095709561957F4F8F4F9F4F9923DF
:10069000A9F0F92F96E9BB279395F695879577955D
:1006A0006795B795F111F8CFFAF4BB0F11F460FF1D
:1006B0001BC06F5F7F4F8F4F9F4F16C0882311F075
:1006C00096E911C0772321F09EE8872F762F05C089
:1006D000662371F096E8862F70E060E02AF09A9524
:1006E000660F771F881FDAF7880F9695879597F919
:1006F000089597F99F6780E870E060E008959FEFA4
:1007000080EC089500240A941616170618060906A8
:10071000089500240A941216130614060506089577
:10072000092E0394000C11F4882352F0BB0F40F4FF
:10073000BF2B11F460FF04C06F5F7F4F8F4F9F4F3F
:10074000089557FD9058440F551F59F05F3F71F0C1
:100750004795880F97FB991F61F09F3F79F0879528
:100760000895121613061406551FF2CF4695F1DFB1
:1007700008C0161617061806991FF1CF8695710541
:10078000610508940895E894BB2766277727CB0175
:1007900097F9089511F40EF4B2CF4AC0DADFD0F31E
:1007A0009923D9F3CEF39F57550B87FF51D0569518
:1007B0009795B0E020F4660F771F881FBB1F1F932B
:1007C0000F9300249001A0018001F001A0E80E0F1A
:1007D0001F1F0A1E511D601B710B8009B50B48F4C9
:1007E000600F711F801DB51F0E1B1F0B0A0A5109D8
:1007F00007C02E0F3F1F4A1F0E0F1F1F0A1E511D3D
:10080000660F771F881FBB1FA695F795E795F8F62B
:100810000617170708065B07211D311D411D0F91A3
:100820001F91B901842F9158880F96958795089547
:100830009F3F49F0915028F4869577956795B79535
:100840009F5F80389F4F880F9695879597F90895F9
:1008500091505040660F771F881FD2F7089597FB7D
:10086000092E05260ED057FD04D014D00AD0001C46
:1008700038F450954095309521953F4F4F4F5F4F3D
:100880000895F6F790958095709561957F4F8F4FFD
:100890009F4F0895A1E21A2EAA1BBB1BFD010DC09C
:1008A000AA1FBB1FEE1FFF1FA217B307E407F50720
:1008B00020F0A21BB30BE40BF50B661F771F881FFC
:1008C000991F1A9469F760957095809590959B0192
:0C08D000AC01BD01CF010895F894FFCFEA
:1008DC0051151081E111B111B005B114F1141011C1
:0408EC00F115B1153C
:00000001FF
