:100000000C942E000C944B000C944B000C944B0061
:100010000C944B000C944B000C944B000C944B0034
:100020000C944B000C944B000C944B000C944B0024
:100030000C944B000C944B000C944B000C944B0014
:100040000C944B000C944B000C944B000C944B0004
:100050000C944B000C944B000C944B0011241FBECD
:10006000CFEFD4E0DEBFCDBF11E0A0E0B1E0E0EE25
:10007000F0E002C005900D92A030B107D9F711E071
:10008000A0E0B1E001C01D92A030B107E1F70E94ED
:100090004D000C946E000C9400001092850010929C
:1000A000840080E88093E40087EB8093E50084E09F
:1000B00080938100E4E8F0E0AEEFB0E021E08081E1
:1000C00091819923E4F71C921182108280819181A1
:1000D0009923E4F72C9311821082F1CFF894FFCF8B
:00000001FF
