:100000000C942E000C944B000C944B000C944B0061
:100010000C94A1070C944B000C944B000C944B00D7
:100020000C944B000C944B000C944B000C944B0024
:100030000C944B000C944B000C944B000C944B0014
:100040000C944B000C944B000C944B000C944B0004
:100050000C944B000C944B000C944B0011241FBECD
:10006000CFEFD4E0DEBFCDBF11E0A0E0B1E0E8EA21
:10007000F3E102C005900D92A831B107D9F713E062
:10008000A8E1B1E001C01D92A334B107E1F70E94DD
:10009000A8050C94D2090C940000DF93CF93CDB740
:1000A000DEB7E6E4F0E01082E4E4F0E082E0808392
:1000B000E6E4F0E08081803BD9F7E4E4F0E01082F0
:1000C000CF91DF910895DF93CF930F92CDB7DEB735
:1000D000198212C0E6E4F0E01082E4E4F0E085E08A
:1000E0008083E6E4F0E08081893CD8F3E4E4F0E04A
:1000F000108289818F5F89838981893158F30F90BC
:10010000CF91DF910895DF93CF9300D000D00F926D
:10011000CDB7DEB789837B836A838981803308F416
:100120009DC289818A3308F099C28A819B819D830F
:100130008C838C819D818230910509F4F2C08C8181
:100140009D81833091055CF48C819D810097D1F075
:100150008C819D818130910509F477C07FC28C81AB
:100160009D818430910509F4ABC18C819D818430DF
:1001700091050CF439C18C819D818530910509F47C
:1001800002C26CC2ACEEB0E0ECEEF0E08081282F51
:10019000207F8981882F90E0C097880F991FFC01EC
:1001A000E050FF4F80819181892F992782958F7030
:1001B000822B8C93A1EFB0E0E1EFF0E08081282F5B
:1001C000207F8981882F90E0C097880F991FFC01BC
:1001D000E050FF4F80819181892F990F990B8F708B
:1001E000822B8C93A6EFB0E0E6EFF0E08081282F21
:1001F000207F8981882F90E0C097880F991FFC018C
:10020000E050FF4F808191819595879595958795D1
:1002100095958795959587958F70822B8C93ABEFED
:10022000B0E0EBEFF0E08081282F207F8981882FDC
:1002300090E0C097880F991FFC01E050FF4F80812C
:1002400091818F70822B8C9309C2ACEEB0E0ECEE02
:10025000F0E08081282F2F708981882F90E0C0974F
:10026000880F991FFC01E050FF4F8081918180E150
:100270009802812D990B112482959295907F982751
:10028000807F9827822B8C93A1EFB0E0E1EFF0E024
:100290008081282F2F708981882F90E0C097880F48
:1002A000991FFC01E050FF4F80819181892F990FA8
:1002B000990B82959295907F9827807F9827822B23
:1002C0008C93A6EFB0E0E6EFF0E08081282F2F704E
:1002D0008981882F90E0C097880F991FFC01E0501A
:1002E000FF4F80819181807F822B8C93ABEFB0E0B8
:1002F000EBEFF0E08081282F2F708981882F90E02C
:10030000C097880F991FFC01E050FF4F80819181B9
:1003100082959295907F9827807F9827822B8C9347
:100320009DC1ADEEB0E0EDEEF0E08081282F207FA2
:100330008981882F90E0C097880F991FFC01E050B9
:10034000FF4F80819181892F992782958F70822B11
:100350008C93A2EFB0E0E2EFF0E08081282F207FC5
:100360008981882F90E0C097880F991FFC01E05089
:10037000FF4F80819181892F990F990B8F70822B6C
:100380008C93A7EFB0E0E7EFF0E08081282F207F8B
:100390008981882F90E0C097880F991FFC01E05059
:1003A000FF4F808191819595879595958795959536
:1003B0008795959587958F70822B8C93ACEFB0E0E5
:1003C000ECEFF0E08081282F207F8981882F90E05A
:1003D000C097880F991FFC01E050FF4F80819181E9
:1003E0008F70822B8C933AC1ADEEB0E0EDEEF0E071
:1003F0008081282F2F708981882F90E0C097880FE7
:10040000991FFC01E050FF4F8081918180E19802AB
:10041000812D990B112482959295907F9827807F4A
:100420009827822B8C93A2EFB0E0E2EFF0E080817E
:10043000282F2F708981882F90E0C097880F991FEF
:10044000FC01E050FF4F80819181892F990F990B1A
:1004500082959295907F9827807F9827822B8C9306
:10046000A7EFB0E0E7EFF0E08081282F2F708981BF
:10047000882F90E0C097880F991FFC01E050FF4F34
:1004800080819181807F822B8C93ACEFB0E0ECEF88
:10049000F0E08081282F2F708981882F90E0C0970D
:1004A000880F991FFC01E050FF4F80819181829558
:1004B0009295907F9827807F9827822B8C93CEC02F
:1004C000AEEEB0E0EEEEF0E08081282F207F898153
:1004D000882F90E0C097880F991FFC01E050FF4FD4
:1004E00080819181892F992782958F70822B8C939F
:1004F000A3EFB0E0E3EFF0E08081282F207F898137
:10050000882F90E0C097880F991FFC01E050FF4FA3
:1005100080819181892F990F990B8F70822B8C93F9
:10052000A8EFB0E0E8EFF0E08081282F207F8981FC
:10053000882F90E0C097880F991FFC01E050FF4F73
:1005400080819181959587959595879595958795C6
:10055000959587958F70822B8C93ADEFB0E0EDEF82
:10056000F0E08081282F207F8981882F90E0C0973C
:10057000880F991FFC01E050FF4F808191818F709F
:10058000822B8C936BC0AEEEB0E0EEEEF0E080819B
:10059000282F2F708981882F90E0C097880F991F8E
:1005A000FC01E050FF4F8081918180E19802812D14
:1005B000990B112482959295907F9827807F982798
:1005C000822B8C93A3EFB0E0E3EFF0E08081282F43
:1005D0002F708981882F90E0C097880F991FFC01A8
:1005E000E050FF4F80819181892F990F990B82955F
:1005F0009295907F9827807F9827822B8C93A8EFE5
:10060000B0E0E8EFF0E08081282F2F708981882FFB
:1006100090E0C097880F991FFC01E050FF4F808148
:100620009181807F822B8C93ADEFB0E0EDEFF0E015
:100630008081282F2F708981882F90E0C097880FA4
:10064000991FFC01E050FF4F808191818295929526
:10065000907F9827807F9827822B8C930F900F9004
:100660000F900F900F90CF91DF9108950F931F93EC
:10067000DF93CF93CDB7DEB763970FB6F894DEBFA5
:100680000FBECDBF6E877F87888B998B85E08F8368
:1006900081E08E838E859F85A889B98989839A8315
:1006A000AB83BC8303C08E818F5F8E8389819A81E7
:1006B000AB81BC812AE030E040E050E0BC01CD01DC
:1006C0000E949509DA01C90189839A83AB83BC83AF
:1006D00089819A81AB81BC810097A105B10519F789
:1006E0008E81873010F086E08E838E818D832DC0C1
:1006F0008F81082F10E08E859F85A889B9892AE00F
:1007000030E040E050E0BC01CD010E949509DC01E1
:10071000CB01282FCE010896FC01E00FF11F2083AA
:100720008E859F85A889B9892AE030E040E050E0B5
:10073000BC01CD010E949509DA01C9018E879F870E
:10074000A88BB98B8F8181508F838D818A8B8A8909
:10075000882311F081E08A8B8A899D8191509D8345
:10076000882331F685E08F8313C08F81482F50E0B6
:100770008F81282F30E0CE010896FC01E20FF31F95
:100780008081805DBA010E9483008F8181508F83B8
:100790008E818B8B8B89882311F081E08B8B8B89E9
:1007A0009E8191509E83882301F763960FB6F8943B
:1007B000DEBF0FBECDBFCF91DF911F910F91089586
:1007C000DF93CF93CDB7DEB72E970FB6F894DEBF89
:1007D0000FBECDBF69877A878B879C8789859A856D
:1007E000AB85BC850097A105B10549F089859A853F
:1007F000AB85BC8581309105A105B10519F41E8634
:100800001D866AC089859A85AB85BC858230910535
:10081000A105B10529F481E090E09E878D875CC039
:1008200069857A858B859C850E94A408DC01CB01B3
:10083000BC01CD010E943409DC01CB0120E030E095
:1008400040E85FE3BC01CD010E940D08DC01CB0153
:10085000BC01CD010E947108DC01CB0189839A8320
:10086000AB83BC8382E090E0A0E0B0E08D839E8308
:10087000AF83B88720C089859A85AB85BC852D81DB
:100880003E814F815885BC01CD010E949509DC0154
:10089000CB010097A105B10519F41E861D861CC069
:1008A0008D819E81AF81B8850196A11DB11D8D837B
:1008B0009E83AF83B8872D813E814F815885898182
:1008C0009A81AB81BC81281739074A075B079CF2E4
:1008D00081E090E09E878D878D859E852E960FB650
:1008E000F894DEBF0FBECDBFCF91DF9108950F9377
:1008F0001F93DF93CF93CDB7DEB728970FB6F89449
:10090000DEBF0FBECDBF6B837C838D839E835887F4
:100910004F8388E191E00E9450078F8198859093E2
:1009200021018093200100912001109121018B81F0
:100930009C81AD81BE8124E630E040E050E0BC0106
:10094000CD010E949509DC01CB012AE030E040E0B6
:1009500050E0BC01CD010E949509DA01C901805D1A
:10096000B8010E9483001A82198205C089819A8188
:1009700001969A83898389819A8123E0883E920730
:10098000ACF3809120019091210101969093210177
:100990008093200100912001109121018B819C8185
:1009A000AD81BE812AE030E040E050E0BC01CD01E5
:1009B0000E949509DC01CB01805DB8010E94830093
:1009C00088E191E00E947C0728960FB6F894DEBF7C
:1009D0000FBECDBFCF91DF911F910F910895DF938F
:1009E000CF9300D000D000D0CDB7DEB79E838D83EB
:1009F00081E090E0A0E0B0E089839A83AB83BC8380
:100A000089819A81AB81BC81BC01CD010E94E00348
:100A1000009759F02D813E8189819A81AB81BC81FB
:100A2000A901BC01CD010E94770489819A81AB8123
:100A3000BC810196A11DB11D89839A83AB83BC83C0
:100A4000DFCFDF93CF9300D000D0CDB7DEB781E00A
:100A500090E0A0E0B0E089839A83AB83BC830BC0B5
:100A600089819A81AB81BC810196A11DB11D8983C9
:100A70009A83AB83BC8389819A81AB81BC81BC01A1
:100A8000CD010E94E003009759F389819A81AB81DF
:100A9000BC81BC01CD010E94360389819A81AB8162
:100AA000BC810196A11DB11D89839A83AB83BC8350
:100AB000E2CFDF93CF93CDB7DEB7E1E8F0E084E09B
:100AC0008083E4E8F0E0808191812DE38930920712
:100AD000C0F3E4EFF0E01082E4E8F0E0808191817F
:100AE0002AE782319207C0F3E4EFF0E081E08083EF
:100AF000E4E8F0E011821082E4CFDF93CF93CDB72A
:100B0000DEB7A5E2B0E0E5E2F0E0808180688C939A
:100B1000EFEEF0E01082E9EFF0E081E08083E3E2C5
:100B2000F0E080818823DCF3EFEEF0E081E0808369
:100B3000E9EFF0E01082E3E2F0E080818823DCF767
:100B4000EFEEF0E01082E9EFF0E081E08083E7CFA4
:100B5000DF93CF93CDB7DEB7E1E6F0E080E88083A6
:100B6000E1E6F0E0108289E595E060E070E00E9447
:100B7000BD068DE795E060E070E00E94BD060E9432
:100B8000210580E090E0CF91DF910895DF93CF932E
:100B900000D0CDB7DEB7E4EEF0E080E88083E5EE8C
:100BA000F0E087EB8083E0E7F0E01082E6EBF0E036
:100BB00088E08083E2EBF0E01082E3EBF0E082E398
:100BC0008083E0EBF0E08BE08083E6EBF0E0808177
:100BD000882F90E0877090700097B9F7E7E3F0E016
:100BE0001082E0E7F0E082E080831A82198228C058
:100BF00049815A8189819A819C012F5F3F4F8DE6FF
:100C000090E0BC01269FC001279F900D369F900D5C
:100C100011249C0121573E4F8DE690E0BC01469F78
:100C2000C001479F900D569F900D1124FC01ED5679
:100C3000FE4F3183208389819A8101969A8389832B
:100C400089819A81833091059CF21092DB02109287
:100C5000DA0281E090E090931F0180931E010F90D3
:100C60000F90CF91DF910895DF93CF9300D000D004
:100C700000D0CDB7DEB79C838B837E836D83EB8101
:100C8000FC8115821482ED81FE8180819181009723
:100C900039F4ED81FE818B819C819183808319C021
:100CA000ED81FE81808191819A83898306C0E981EB
:100CB000FA81848195819A838983E981FA8184818B
:100CC00095810097A1F7E981FA818B819C819583B9
:100CD000848326960FB6F894DEBF0FBECDBFCF91AA
:100CE000DF910895DF93CF9300D000D0CDB7DEB76A
:100CF0009C838B83EB81FC81808191819A838983A2
:100D0000EB81FC81808191810097A1F0EB81FC81D6
:100D10000190F081E02D84819581EB81FC819183AC
:100D2000808389819A810F900F900F900F90CF91BF
:100D3000DF910895FFCFDF93CF9300D0CDB7DEB71B
:100D40009A838983809116019091170106960E94DB
:100D5000CB07009769F489819A819093170180935A
:100D6000160189819A81069661E070E00E94EB0786
:100D70000F900F90CF91DF910895DF93CF9300D024
:100D800000D000D0CDB7DEB79C838B837E836D838C
:100D9000F89480911E0190911F01009711F40E9418
:100DA000C60584E191E00E9472069A838983E981F5
:100DB000FA818B819C8191838083E981FA818D8185
:100DC0009E8193838283E981FA81158214828981CD
:100DD0009A8106960E94CB078130910501F578949F
:100DE000E0911601F091170120813181E091160107
:100DF000F091170182819381F9010995F89420916E
:100E000016013091170184E191E0BC01C9010E94F3
:100E100034068CE191E00E9472060E949B06898153
:100E20009A810696FC01709689819A814D96845B21
:100E30009F4F9183808389819A810696FC017296E7
:100E400089819A814D96845B9F4F918380838CE149
:100E500091E029813A81BC01C9010E94340678944D
:100E600026960FB6F894DEBF0FBECDBFCF91DF91AF
:100E70000895DF93CF93CDB7DEB72091160130915F
:100E800017018CE191E0BC01C9010E9434068CE19C
:100E900091E00E9472060E949B06CF91DF91089517
:100EA000DF93CF9300D0CDB7DEB79A838983F894D0
:100EB000E981FA8180819181009739F4E981FA8191
:100EC00081E090E09183808311C089819A810296AC
:100ED0002091160130911701BC01C9010E9434060E
:100EE0008CE191E00E9472060E949B0678940F901C
:100EF0000F90CF91DF910895DF93CF9300D0CDB7BE
:100F0000DEB79A838983F894E981FA81828193819B
:100F1000009769F089819A8102960E9472069C016D
:100F20008CE191E0BC01C9010E94340604C0E98152
:100F3000FA811182108278940F900F90CF91DF91F7
:100F400008951F920F920FB60F9211242F933F9383
:100F50004F935F936F937F938F939F93AF93BF93C1
:100F6000EF93FF93DF93CF93CDB7DEB70E9439079E
:100F7000CF91DF91FF91EF91BF91AF919F918F91B1
:100F80007F916F915F914F913F912F910F900FBE85
:100F90000F901F901895DC012D923D924D925D921D
:100FA0006D927D928D929D92AD92BD92CD92DD9289
:100FB000ED92FD920D931D93CD93DD93FF91EF91F3
:100FC0008DB78D938EB78D938FB78D93ED93FD93E2
:100FD000882799270994DC01CB0181309105811D77
:100FE0002D903D904D905D906D907D908D909D9059
:100FF000AD90BD90CD90DD90ED90FD900D911D9147
:10100000CD91DD91ED91FD910D90F894FEBF0FBE55
:10101000EDBFED91FD9109945058BB27AA270ED042
:10102000E5C0D6D030F0DBD020F031F49F3F11F492
:101030001EF4CBC00EF4E095E7FBC1C0E92FE7D06A
:1010400080F3BA17620773078407950718F071F4E5
:101050009EF5FFC00EF4E0950B2EBA2FA02D0B01CC
:10106000B90190010C01CA01A0011124FF27591BED
:1010700099F0593F50F4503E68F11A16F040A22FF3
:10108000232F342F4427585FF3CF46953795279564
:10109000A795F0405395C9F77EF41F16BA0B620B63
:1010A000730B840BBAF09150A1F0FF0FBB1F661FAA
:1010B000771F881FC2F70EC0BA0F621F731F841FED
:1010C00048F4879577956795B795F7959E3F08F013
:1010D000B3CF9395880F08F09927EE0F97958795D2
:1010E000089504D06894B111B5C0089598D088F0DF
:1010F0009F5790F0B92F9927B751A0F0D1F0660F04
:10110000771F881F991F1AF0BA95C9F712C0B1301E
:1011100081F09FD0B1E008959CC0672F782F882779
:10112000B85F39F0B93FCCF3869577956795B3955D
:10113000D9F73EF490958095709561957F4F8F4FCC
:101140009F4F0895E89409C097FB3EF490958095D1
:10115000709561957F4F8F4F9F4F9923A9F0F92F7D
:1011600096E9BB279395F695879577956795B795FB
:10117000F111F8CFFAF4BB0F11F460FF1BC06F5FE1
:101180007F4F8F4F9F4F16C0882311F096E911C0F3
:10119000772321F09EE8872F762F05C0662371F014
:1011A00096E8862F70E060E02AF09A95660F771F28
:1011B000881FDAF7880F9695879597F9089597F91C
:1011C0009F6780E870E060E008959FEF80EC0895ED
:1011D00000240A9416161706180609060895002416
:1011E0000A9412161306140605060895092E039490
:1011F000000C11F4882352F0BB0F40F4BF2B11F404
:1012000060FF04C06F5F7F4F8F4F9F4F089557FD62
:101210009058440F551F59F05F3F71F04795880F64
:1012200097FB991F61F09F3F79F0879508951216FB
:1012300013061406551FF2CF4695F1DF08C01616A7
:1012400017061806991FF1CF869571056105089458
:101250000895E894BB2766277727CB0197F908956F
:1012600011F40EF4B2CF4AC0DADFD0F39923D9F3E8
:10127000CEF39F57550B87FF51D056959795B0E009
:1012800020F4660F771F881FBB1F1F930F93002446
:101290009001A0018001F001A0E80E0F1F1F0A1E9F
:1012A000511D601B710B8009B50B48F4600F711F55
:1012B000801DB51F0E1B1F0B0A0A510907C02E0FF8
:1012C0003F1F4A1F0E0F1F1F0A1E511D660F771F5B
:1012D000881FBB1FA695F795E795F8F60617170721
:1012E00008065B07211D311D411D0F911F91B9019A
:1012F000842F9158880F9695879508959F3F49F0C0
:10130000915028F4869577956795B7959F5F8038BB
:101310009F4F880F9695879597F908959150504063
:10132000660F771F881FD2F7089597FB092E0526B1
:101330000ED057FD04D014D00AD0001C38F45095BC
:101340004095309521953F4F4F4F5F4F0895F6F7E9
:1013500090958095709561957F4F8F4F9F4F089521
:10136000A1E21A2EAA1BBB1BFD010DC0AA1FBB1FA9
:10137000EE1FFF1FA217B307E407F50720F0A21B1B
:10138000B30BE40BF50B661F771F881F991F1A9488
:1013900069F760957095809590959B01AC01BD01B2
:0813A000CF010895F894FFCF7E
:1013A80051151081E111B111B005B114F1141011EA
:0813B800F115B1158F012201AE
:00000001FF
