:100000000C942E000C944B000C944B000C944B0061
:100010000C944B000C944B000C944B000C944B0034
:100020000C944B000C944B000C944B000C944B0024
:100030000C944B000C944B000C944B000C944B0014
:100040000C944B000C944B000C944B000C944B0004
:100050000C944B000C944B000C944B0011241FBECD
:10006000CFEFD4E0DEBFCDBF11E0A0E0B1E0E0EC27
:10007000F0E002C005900D92A030B107D9F711E071
:10008000A0E0B1E001C01D92A030B107E1F70E94ED
:100090004D000C945E000C94000080E88093E40016
:1000A00087EB8093E5002F9AE9EFF0E081E01F9B5A
:1000B000FECF80831F99FECF1082F9CFF894FFCF37
:00000001FF
